:020000040800F2
:10000000A8C600206D2900086504000867040008E0
:100010006B0400086F04000873040008000000006F
:10002000000000000000000000000000770400084D
:1000300079040008000000007B0400087D0400082B
:1000400087290008872900088729000887290008D0
:1000500087290008872900088729000887290008C0
:1000600087290008872900088729000887290008B0
:1000700087290008872900088729000887290008A0
:100080008729000887290008872900088729000890
:100090008729000887290008872900088729000880
:1000A0008729000887290008872900088729000870
:1000B00087290008872900088991000887290008F6
:1000C0008729000887290008872900088729000850
:1000D00087290008E12800088729000887290008E7
:1000E0008729000887290008872900088729000830
:1000F0008729000887290008872900088729000820
:10010000872900089D2500088729000887290008FD
:1001100087290008872900088729000887290008FF
:1001200087290008872900088729000887290008EF
:1001300000F002F800F06BF80AA090E8000C82448E
:100140008344AAF10107DA4501D100F060F8AFF26B
:10015000090EBAE80F0013F0010F18BFFB1A43F0A5
:10016000010318476C5403008C5403000A444FF0F9
:10017000000C10F8013B13F0070408BF10F8014B06
:100180001D1108BF10F8015B641E05D010F8016B4B
:10019000641E01F8016BF9D113F0080F1EBF10F8AF
:1001A000014BAD1C0C1B09D16D1E58BF01F801CBD2
:1001B000FAD505E014F8016B01F8016B6D1EF9D555
:1001C0009142D6D37047000000230024002500266A
:1001D000103A28BF78C1FBD8520728BF30C148BFAA
:1001E0000B607047642909F0C785752909F0C4853B
:1001F000782909F0FD8563290AF0728073290AF0D5
:100200007780002070471FB51FBD10B510BD0AF0E4
:10021000D3F81146FFF7F7FF00F008F80AF0F1F8FD
:1002200003B4FFF7F2FF03BC02F000FBADF51A7D4B
:10023000002402F08BFA4FF4A06002F0B7FB4FF4F9
:10024000E13002F001FB00F00BFA00F0D3FA0020DD
:1002500004F05DFC40A009F033FD45A009F030FD3D
:1002600047A009F02DFD4AA009F02AFD07F0C0FFC4
:100270004A49012208684AA106F049F94749012282
:10028000486848A106F043F904460D2C18D146A051
:1002900009F016FD4FF48052012142A007F0B2FA96
:1002A000044634B947A007F0BCF949A009F008FD9D
:1002B00002E04EA009F004FD4FF47A7002F083FAD8
:1002C0000DE051A009F0FCFCC82002F07CFA544873
:1002D000006808B9012000E00020514908606A4622
:1002E00001A930A008F028F80028EAD14DA0019912
:1002F00009F0E6FC4EA0009909F0E2FC0A224FA1A9
:1003000010A806F02FF90FAB1E224FA110A806F07F
:10031000CAFA10A806F014FC012248A110A806F0A1
:1003200021F90FAB322202A910A806F0DBF910A8C0
:1003300006F006FC02A949A009F0C2FC0AE0C820A8
:1003400002F041FA3648006808B9012000E00020B8
:1003500033490860F3E70000454C495445205354A5
:100360004D333246313033205E5F5E0D0A000000AF
:10037000464154465320544553540D0A0000000092
:1003800041544F4D40414C49454E54454B0D0A0098
:10039000323032302F342F310D0A0000740000202B
:1003A000303A0000313A0000466C617368204469BD
:1003B000736B20466F726D617474696E672E2E2E9A
:1003C0000D0A0000313A414C49454E54454B00005E
:1003D000466C617368204469736B20466F726D616F
:1003E000742046696E6973680D0A0000466C61737B
:1003F00068204469736B20466F726D61742045728A
:10040000726F720D0A00000046414C53482046614D
:10041000746673204572726F72210D0A000000002D
:1004200094812142746F74616C25640D0A00000090
:100430006672656525640D0A00000000313A2F6D73
:1004400073672E74787400006C2077616E7420746A
:10045000686520776F726C64210D0A002025730A8D
:1004600020000000704700BFFEE700BFFEE700BFAE
:10047000FEE700BFFEE77047704770477047000017
:100480000CB50020019000906C48006840F480306A
:100490006A49086000BF6948006800F400300090B5
:1004A0000198401C0190009818B90198B0F5A06F10
:1004B000F1D16248006800F4003010B101200090D2
:1004C00001E0002000900098012843D15C480068BA
:1004D00040F010005A4908600846006820F0030008
:1004E00008600846006840F0020008605348406811
:1004F000524948600846406848600846406840F4F1
:10050000806048600846406820F47C1048600846D7
:10051000406840F4E81048600846006840F0807089
:10052000086000BF4548006800F000700028F9D05E
:100530004248406820F0030040494860084640684F
:1005400040F00200486000BF3C48406800F00C00EA
:100550000828F9D10CBD10B5FFF792FF10BD10B5FA
:100560003648006840F00100344908600846406899
:10057000344908403149486008460068324908401B
:100580002E4908600846006820F48020086008466C
:10059000406820F4FE0048604FF41F008860FFF7B9
:1005A000DAFF4FF000602949086010BD10B5002146
:1005B00000200022214B5B6803F00C0121B10429CB
:1005C00006D0082928D107E0214B224C236027E0E0
:1005D0001F4B204C236023E0184B5B6803F4701022
:1005E000164B5B6803F48032022303EB904022B980
:1005F000194B4343174C23600DE0104B5B6803F429
:10060000003323B1144B4343124C236003E0104BDF
:100610004343104C236003E00D4B0E4C236000BF9E
:1006200000BF064B5B68C3F303130C4CE15C094B42
:100630001B68CB40074C236010BD00000010024037
:10064000002002400000FFF8FFFFF6FE08ED00E08A
:1006500000127A000000002000093D000400002084
:1006600008B50121482002F02BFD2020ADF8000044
:1006700010208DF8030003208DF802006946094818
:1006800002F062FA2021074802F00BFB2020ADF8AF
:1006900000006946044802F057FA2021024802F09F
:1006A00000FB08BD000C01400018014070B5054674
:1006B000002405E0601CC4B2C82C01DD002070BD20
:1006C00002213A4802F0AFFE0028F3D0294637480D
:1006D00002F056FE002405E0601CC4B2C82C01DD07
:1006E0000020ECE70121314802F09DFE0028F3D004
:1006F0002E4802F047FEC0B2E1E700B587B0012105
:10070000082002F0DDFC0121880302F0E6FC4FF432
:100710006040ADF8180018208DF81B0003208DF8FC
:100720001A0006A9224802F00FFA4FF4604120484F
:1007300002F0B7FA0020ADF804004FF48270ADF873
:1007400006000020ADF808000220ADF80A000120E4
:10075000ADF80C004002ADF80E003820ADF81000E6
:100760000020ADF812000720ADF8140001A90F48D1
:1007700002F030FD01210D4802F0D1FDFF20FFF70E
:1007800095FF07B000BD10B50446084800884FF635
:10079000C771084005490880084600882043088042
:1007A0000121024802F0BBFD10BD000000380040EE
:1007B000000C014010B500240020D14908609020B1
:1007C000FFF774FF0020FFF771FF0020FFF76EFFB7
:1007D0000020FFF76BFFFF20FFF768FF44EA0024CB
:1007E000FF20FFF763FF04430120C649C1F8B001B1
:1007F000204610BD08B50121082002F061FC4FF42D
:100800008050ADF8000010208DF8030003208DF813
:1008100002006946BC4802F097F94FF48051BA488B
:1008200002F03FFA0120B6490860FFF766FF00209A
:10083000FFF7A9FFFFF7BEFFB449088008BD10B558
:1008400000240020AE4908600520FFF72FFFFF209D
:10085000FFF72CFF04460120AA49C1F8B001204649
:1008600010BD10B504460020A54908600120FFF71F
:100870001DFF2046FFF71AFF0120A249C1F8B00171
:1008800010BD10B500209E4908600620FFF70EFF3E
:1008900001209C49C1F8B00110BD10B50020984955
:1008A00008600420FFF702FF01209649C1F8B0015B
:1008B00010BD2DE9F04106460C4617460020904930
:1008C00008600320FFF7F2FEC4F30740FFF7EEFED7
:1008D000C4F30720FFF7EAFEE0B2FFF7E7FE0025CA
:1008E00005E0FF20FFF7E2FE7055681C85B2BD42AF
:1008F000F7DB012082490860BDE8F08110B500BF38
:10090000FFF79DFF00F001000028F9D110BD2DE98F
:10091000F04106460C461746FFF7B3FF0020784922
:1009200008600220FFF7C2FEC4F30740FFF7BEFED7
:10093000C4F30720FFF7BAFEE0B2FFF7B7FE0025C9
:1009400004E0705DFFF7B2FE681C85B2BD42F8DBC3
:1009500001206B490860FFF7D1FFBDE8F0812DE968
:10096000F04107460E461446F0B2C0F58075AC4221
:1009700000DC254612E02A4631463846FFF7C7FF1D
:10098000AC4200D10BE02F442E44601B84B2B4F57E
:10099000807F02DD4FF4807500E02546EBE700BF65
:1009A000BDE8F08110B50446214659A009F088F948
:1009B0002403FFF766FFFFF7A1FF002050490860FE
:1009C0002020FFF773FEC4F30740FFF76FFEC4F368
:1009D0000720FFF76BFEE0B2FFF768FE01204949F0
:1009E000C1F8B001FFF78AFF10BD2DE9F05F814625
:1009F0000F461646DFF820B14FEA1738C7F30B0A47
:100A0000CAF58054A64200DC344644E04FEA08317F
:100A10004FF480525846FFF74CFF002508E00AEBE0
:100A200005001BF80000FF2800D003E0681C85B219
:100A3000A542F4DB00BFA54216DA4046FFF7B2FF3D
:100A4000002507E019F8050005EB0A010BF8010085
:100A5000681C85B2A542F5DB4FEA08314FF480529D
:100A60005846FFF77CFF04E0224639464846FFF728
:100A700076FFA64200D10FE008F101084FF0000A0E
:100A8000A1442744301B86B2B6F5805F02DD4FF4E7
:100A9000805400E03446B9E700BFBDE8F09F10B5D0
:100AA000FFF7EFFEFFF72AFF002015490860C72077
:100AB000FFF7FCFD01201349C1F8B001FFF71EFF4D
:100AC00010BD10B500200E490860B920FFF7EEFDFB
:100AD00001200C49C1F8B001032001F050FE10BD07
:100AE00010B5002006490860AB20FFF7DFFD0120AC
:100AF0000449C1F8B001032001F041FE10BD00001F
:100B0000B081214200802142000C014014000020ED
:100B100066653A25780D0A00700200200146002023
:100B2000012900D011B9FE4B197000E02620704752
:100B30000146FC4A506820F0FF00084350607047AF
:100B400070B5044605E0F748456B05F0450000B177
:100B500000E0F8E700BF042003F09DFF20B104206F
:100B600003F0A3FF032070BD012003F094FF20B128
:100B7000012003F09AFF0120F5E7EA480069A0424E
:100B800001D01020EFE740F2FF50E64988630846A5
:100B9000406908210840C0B2E5E72DE9FC4107465D
:100BA0000D46002600240020009001900820DE4918
:100BB000086010204860402088600020C8604FF422
:100BC00080600861084603F0EFFE1020FFF7B8FFD1
:100BD000044614B12046BDE8FC81D44800880004D6
:100BE000D149086037204860402088600020C860F4
:100BF0004FF480600861084603F0D6FE3720FFF707
:100C00009FFF04460CB12046E5E74FF0FF30C8498E
:100C1000086008204860302088600220C8600020FA
:100C2000086101204861084603F0E7FE0020BE4944
:100C3000086033204860402088600020C8604FF47E
:100C400080600861084603F0AFFE3320FFF778FFAD
:100C500004460CB12046BEE70CE04FF4001003F050
:100C60001AFF38B103F0EBFE4DF82600761C022E79
:100C700000D306E0AB48406B40F22A6108400028F0
:100C8000EBD000BF082003F006FF20B1082003F0DE
:100C90000CFF04209FE7022003F0FDFE20B102209C
:100CA00003F003FF022096E7202003F0F4FE20B1BA
:100CB000202003F0FAFE06208DE74FF4007003F0C9
:100CC000EAFE28B14FF4007003F0EFFE072082E740
:100CD00040F2FF5003F0E9FE00980006009901F48D
:100CE0007F4140EA0120009901F47F0140EA112090
:100CF000009940EA1160686001980006019901F4CA
:100D00007F4140EA0120019901F47F0140EA11206E
:100D1000019940EA1160286020465CE77CB50546F1
:100D2000002400200090019000260DB1022600E072
:100D300000267C48406900F0007008B10E207CBDA0
:100D40007A49098888B26946FFF727FF04460CB143
:100D50002046F4E7019800F4802060B373480088CF
:100D600000047149086037204860402088600020F6
:100D7000C8604FF480600861084603F015FE372014
:100D8000FFF7DEFE04460CB12046D8E76648066051
:100D9000062065494860402088600020C8604FF404
:100DA00080600861084603F0FFFD0620FFF7C8FEDB
:100DB00004462046C3E72520C1E770B50446002558
:100DC0005C480078032801D1272070BD594800787D
:100DD00038B158480078012803D0564800780228D6
:100DE00018D1022C01D32720EFE7E0B2FFF796FFDE
:100DF00005467DB94B48406820F4C05049494860D9
:100E000008464068A1B240EAC12046494860084609
:100E1000406848602846D8E710B504464248046058
:100E2000072041494860402088600020C8604FF496
:100E300080600861084603F0B7FD0720FFF780FED9
:100E400010BDF0B50146002000223A4B1B7881F816
:100E50005630364B1B88A1F85430374B1B681A0E9E
:100E600093090B70C2F383034B7002F003038B7082
:100E7000314B1B68C3F30742CA702F4B1B88C3F367
:100E800007220A712C4B1A784A715B681A0E1301FB
:100E9000CB80294B5B68C3F30742CB8843EA12132C
:100EA000CB8002F00F030B72234B9B88C3F3072206
:100EB000D3094B72C2F380138B72C2F34013CB720F
:100EC000C2F300130B7300234B731A4B1B783BB117
:100ED000184B1B78012B03D0164B1B78032B5ED1CC
:100EE00093071B0D0B61144B1A790B6943EA8203BC
:100EF0000B61114B9B681A0E0B6943EA92130B614D
:100F0000C2F3C2030B7502F007034B750A4B9B68D3
:100F1000C3F3074253098B75C2F38203CB750DE00F
:100F20002000002000800140881200201C000020CA
:100F30009C12002018000020B412002093075B0FC1
:100F40000B76F74B1B89C3F307220B7E43EAD213C0
:100F50000B760B695B1C0024C1E912340B7E9B1CD1
:100F6000012404FA03F3DC17D1E91256A5FB037C34
:100F700006FB03C305FB0433C1E912730C7A01239A
:100F8000A3400B650024D1E912650B6DA6FB037C21
:100F900005FB03C306FB0433C1E912732EE0E14BEA
:100FA0001B78022B2AD1DE4B1A7993069B0A0B6120
:100FB000DB4B9B681A0E0B6943EA02230B61D84B8B
:100FC0009B68C3F307420B6913430B61D44B1B8926
:100FD000C3F307220B695B1C4FF40074A3FB0446A8
:100FE0004FF480630025A4FB037C06FB03C304FBD2
:100FF0000533C1E912734FF400730B65C2F380131C
:1010000001F8193F93065B0E4B70C54B1A7A4B786B
:1010100043EAD2134B7002F07F038B70C04BDB6846
:101020001A0ED309CB70C2F341130B71C2F38203C2
:101030004B7193071B0F8B71B94BDB68C3F30742EE
:101040008B7943EA92138B71C2F34013CB71002367
:101050000B7202F001034B72B14B9B89C3F3072261
:10106000D3098B72C2F38013CB72C2F340130B739C
:10107000C2F300134B73C2F381038B7302F00303BB
:10108000CB73A74B1A7B53080B7401234B74A64BED
:101090001B681A0ECA741939A34B1B68C3F30742A5
:1010A0001402CC85A04B1B88C3F30722CB8D1343BE
:1010B000CB859D4B1A7814060C635B681A0E0B6B7C
:1010C00043EA02440C63984B5B68C3F307420B6B23
:1010D00043EA02240C63944B9B88C3F307220B6BF7
:1010E00013430B63904B1A7934235A548E4B9B68ED
:1010F0001A0E35235A548C4B9B68C3F307421406CF
:101100008C63894B1B89C3F307228B6B43EA024430
:101110008C63854B1A7A8B6B43EA02248C63824B77
:10112000DB681A0E8B6B13438B637F4BDB68C3F357
:1011300007423C235B5C43EA12143C235C541307D4
:101140001C0DCC87784B9B89C3F30722CB8F1343AD
:10115000CB87754B1A7B540840235C5401244123F0
:101160005C54F0BD70B500264FF4803505E06F4843
:10117000446B04F0450000B103E02800A5F101052F
:10118000F5D100BF15B104F0040028B103260420F6
:1011900003F08BFC304670BD012003F07CFC18B1DD
:1011A0000126012003F081FC40F2FF5003F07DFC9A
:1011B0003046F0E72DE9F04105460E464FF00008B5
:1011C00005E05A48476B07F0450000B100E0F8E73A
:1011D00000BF042003F05FFC28B1042003F065FC8D
:1011E0000320BDE8F081012003F055FC20B101206F
:1011F00003F05BFC0120F4E74C480069A84201D0F1
:101200001020EEE740F2FF5003F04FFC47484469DE
:1012100004F4604018B9200C30804046E1E704F443
:10122000005008B11320DCE704F4804008B110201E
:10123000D7E704F4004008B10F20D2E74046D0E7DA
:1012400038B500240120009003F099FB08B925204F
:1012500038BD34480078042821D000203449086083
:1012600002204860C02088600020C8604FF4806081
:101270000861084603F098FBFFF774FF04460CB1C1
:101280002046E5E7294840692749086027488069E2
:1012900048602648C06988602448006AC8602148C0
:1012A000007858B11F480078012807D01D48007801
:1012B000062803D01B480078022816D100201C49BC
:1012C000086003204860402088600020C8604FF418
:1012D00080600861084603F067FB69460320FFF75A
:1012E00069FF04460CB12046B2E70E480078032897
:1012F00020D1BDF8000000040D49086003204860BB
:10130000402088600020C8604FF480600861084673
:1013100003F04AFBFFF726FF04465CB1204697E73F
:10132000B412002018000020C412002000800140E8
:1013300088120020FE480078042827D0BDF800005D
:10134000FC490860BDF800000004FB490860092062
:101350004860C02088600020C8604FF48060086149
:10136000084603F021FBFFF7FDFE04460CB12046C2
:101370006EE7F2484069F2490860F04880694860C9
:10138000EE48C0698860ED48006AC86000205FE7E9
:1013900010B505E0E948446B04F0450000B100E0F9
:1013A000F8E700BF042003F076FB20B1042003F02F
:1013B0007CFB032010BD40F2FF5003F076FB0020C1
:1013C000F8E770B500264FF4803505E0DB48446B44
:1013D00004F0450000B103E02800A5F10105F5D1B6
:1013E00000BF15B104F0040028B10326042003F067
:1013F0005CFB304670BD04F0400018B10026402070
:1014000003F053FB3046F5E770B500254FF4803408
:1014100004E0802003F03FFB00B103E02000A4F1D2
:101420000104F6D100BF0CB9032070BD40F2FF509B
:1014300003F03BFB2846F8E72DE9F047002700249E
:1014400000260025A046A146B220BE49087500200E
:10145000086048608860C8600861084603F064FA64
:10146000032003F081FA012003F07BFA00BF12E0B1
:101470000020B149086048608860C8604FF480600F
:101480000861084603F090FAFFF7BEFF044604B96E
:1014900003E0781CC7B24A2FEADB00BF14B1204634
:1014A000BDE8F0874FF4D570A34908600820486074
:1014B000402088600020C8604FF4806008610846C2
:1014C00003F072FAFFF77DFF044624B90120984922
:1014D00008704FF080490020974908603720486025
:1014E000402088600020C8604FF480600861084692
:1014F00003F05AFA3720FFF723FB0446002C4BD1A8
:1015000034E000208C490860372048604020886023
:101510000020C8604FF480600861084603F044FA78
:101520003720FFF70DFB04460CB12046B8E786488C
:1015300049EA00008049086029204860402088600E
:101540000020C8604FF480600861084603F02CFA60
:10155000FFF71EFF04460CB12046A1E77748466915
:10156000012080EAD67080F001086D1CB8F1000FF0
:1015700003D14FF6FF708542C3D34FF6FF7085420B
:1015800002D31B2420468BE706F08040060032D0B1
:101590000220674908702EE01CE06C48664908602C
:1015A00001204860402088600020C8604FF48060BF
:1015B0000861084603F0F8F9FFF7EAFE04460CB1AB
:1015C00020466DE75D484669012080EAD67080F0CC
:1015D00001086D1CB8F1000F03D14FF6FF70854272
:1015E000DBD34FF6FF70854202D31B24204657E71A
:1015F00003204F490870204652E77CB5002500249F
:101600000121302001F05CFD012140F2024001F097
:101610004AFD4FF4F850ADF8000018208DF8030093
:1016200003208DF802006946494801F08DFA042034
:10163000ADF8000018208DF8030003208DF802009B
:101640006946444801F080FA8020ADF80000482047
:101650008DF8030003208DF8020069463D4801F033
:1016600073FA03F053F931208DF8040000208DF84F
:1016700005008DF8060001208DF8070001A801F093
:101680009AF9FFF7D9FE044614B9FFF7D9FD0446CD
:101690001CB93148FFF7D5FB044634B92E49B1F8DF
:1016A00054100804FFF7B8FB04461CB90120FFF7EB
:1016B00084FB04461CB11E480078032812D126483A
:1016C00090F8560020B1244890F85600012801D126
:1016D0000A2500E004252846FFF72AFA0020FFF734
:1016E0001DFA044620467CBD10B5002003F03CF9ED
:1016F000002010BD70B58CB006460C461546012181
:10170000022001F0D0FC154802F0D6FF002113485A
:1017100003F09FF809488030019002960395A008D5
:10172000049000200590802006908000079017E02C
:10173000180000201C0000208812002000800140BA
:10174000B412002070120020000010800080FF8082
:101750000010014000140140D8120020440402404F
:1017600080000890002009904FF400500A9000205B
:101770000B9001A9FA4803F041F80021F84803F062
:1017800068F80CB070BD0146002002E04910421C10
:10179000D0B20129FAD170472DE9F84F814617469A
:1017A00098460A9C4FF0000AD3464D464FF0FF364C
:1017B000B9F1000F02D12620BDE8F88F0020E949D9
:1017C000C862E9480078022805D10402780A40EA94
:1017D000C8574FEA68280020E44988604860401EE6
:1017E0000860012048610020C8600861084603F0D5
:1017F00004F9DC48406900F0007008B10E20DBE716
:10180000002C21DDB4F5006F1EDC601E2040D8B92D
:101810002046FFF7B8FF0090D54804601020D44957
:101820004860402088600020C8604FF480600861F4
:10183000084603F0B9F81020FFF782F98246BAF1A2
:10184000000F03D05046B7E72620B5E70098000107
:10185000C6498860084644604FF0FF3008600120A8
:1018600048610220C86000200861084603F0C5F8FE
:10187000BF4807601120BE494860402088600020B2
:10188000C8604FF480600861084603F08DF81120AD
:10189000FFF756F98246BAF1000F01D050468BE7A8
:1018A000B448007800285AD100F0BCFF18E04FF48B
:1018B000004003F0F0F878B14FF0000B06E0A948C3
:1018C0008030006845F82B000BF1010BBBF1080FCD
:1018D000F5D32035A84E03E00EB904206CE7761E40
:1018E000A048406B40F22A6108400028DFD0082061
:1018F00003F0D1F820B1082003F0D7F804205BE70B
:10190000022003F0C8F820B1022003F0CEF8022034
:1019100052E7202003F0BFF820B1202003F0C5F8E3
:10192000062049E74FF4007003F0B5F828B14FF4F2
:10193000007003F0BAF807203EE703E003F07FF8F9
:1019400028602D1D4FF4001003F0A5F80028F5D1F4
:1019500000F06AFF40F2FF5003F0A7F832E085483C
:10196000007801282ED1002221464846FFF7C2FE0A
:1019700000208249087082490870824908707948BD
:10198000C06B40F22A3108437649C863012003F056
:1019900008F800E0761E72484438006800F40050F1
:1019A00038B97848007820B97448007808B9002E12
:1019B000F0D10EB90420FFE67048007810B16F48EE
:1019C00090F800A05046F7E62DE9FF5F17469846CD
:1019D000DDE90E464FF00009CA464FF0FF356A496F
:1019E0000098086000205F49C8625F4800780228BC
:1019F00005D10402780A40EAC8574FEA6828002057
:101A00005A4988604860401E0860012048610020F3
:101A1000C8600861084602F0F0FF5248406900F0D3
:101A2000007018B10E2004B0BDE8F09F002C21DD3D
:101A3000B4F5006F1EDC601E2040D8B92046FFF7C9
:101A4000A2FE83464A48046010204949486040206D
:101A500088600020C8604FF480600861084602F08A
:101A6000A3FF1020FFF76CF88146B9F1000F03D0F7
:101A70004846D8E72620D6E7012E70D906FB04F0A9
:101A8000B0F1007F01D32620CDE74FEA0B10374994
:101A9000886006FB04F048604FF0FF3008600120CA
:101AA00048610220C86000200861084602F0A5FFD6
:101AB0002F48076012202E4948604020886000208F
:101AC000C8604FF480600861084602F06DFF122084
:101AD000FFF736F88146B9F1000F01D04846A2E77A
:101AE0002448007800287DD100F09CFE1EE04FF4D1
:101AF000004002F0D0FFA8B14FF0000A08E01948FA
:101B0000803000682049096841F82A000AF1010A7A
:101B1000BAF1080FF3D31C48006820301A49086056
:101B2000154D03E00DB904207DE76D1E0D48406B97
:101B300040F22A3108400028D9D0082002F0ABFF3B
:101B400020B1082002F0B1FF04206CE7022002F06F
:101B5000A2FFD8B1022002F0A8FF022063E7A4E0B0
:101B60004404024000800140180000209C12002024
:101B70008812002020000020FFFF7F0022000020AC
:101B8000210000202300002024000020202002F05B
:101B900082FF20B1202002F088FF062043E74FF4A7
:101BA000007002F078FF28B14FF4007002F07DFF62
:101BB000072038E709E002F042FFFA4909680860A7
:101BC000F8480068001DF74908604FF4001002F063
:101BD00062FF0028EFD14FF4807002F05CFF20B369
:101BE000F14800E028E0007838B1EF48007801289B
:101BF00003D0ED480078022817D10020EB49086097
:101C00000C204860402088600020C8604FF480604D
:101C10000861084602F0C8FE0C20FEF791FF8146DD
:101C2000B9F1000F01D04846FDE600F0FDFD40F29D
:101C3000FF5002F03AFF38E0DD480078012834D147
:101C400006FB04F100220098FFF754FD0020D9495B
:101C500008700120D84908700020D8490870D84879
:101C6000C06B40F22A310843D549C8630846C06AB0
:101C700040F00800C86200E06D1ED248006800F421
:101C8000005008B9002DF7D10DB90420CBE600BFF4
:101C9000CA48007818B9C74800780028F8D0C54865
:101CA000007810B1C34890F800904846BBE61CB5D8
:101CB0000446002001900090C34800880004BB49FE
:101CC00008600D204860402088600020C8604FF404
:101CD00080600861084602F067FEB948406B0090DA
:101CE00002E0B748406B0090009800F045000028E3
:101CF000F7D0012002F0CFFE20B1012002F0D5FE86
:101D000001201CBD042002F0C6FE20B1042002F018
:101D1000CCFE0320F5E7AA4800690D2801D0102069
:101D2000EFE740F2FF5002F0C0FEA5484069019085
:101D30000198C0F3432020700020E2E72DE9FF5F07
:101D400086B017469846149D002600200590049002
:101D5000002481460390824602900195DDF818B078
:101D6000DDF818B0BBF1000F03D126200AB0BDE8A2
:101D7000F09F00209249C862944988604860401EE4
:101D80000860012048610020C8600861084602F030
:101D900034FE8B48406900F0007008B10E20E5E782
:101DA00081480078022805D10502780A40EAC85720
:101DB0004FEA6828002D1FDDB5F5006F1CDC681E9A
:101DC0002840C8B92846FFF7DEFC05907748056033
:101DD000102076494860402088600020C8604FF499
:101DE00080600861084602F0DFFD1020FEF7A8FEC3
:101DF00006461EB13046B9E72620B7E7724800888C
:101E000000046A4908600D20486040208860002076
:101E1000C8604FF480600861084602F0C5FD0D20DF
:101E2000FEF78EFE06460EB130469FE764484069D5
:101E300003904FF0FF341BE0641E634800880004E9
:101E40005A4908600D204860402088600020C86022
:101E50004FF480600861084602F0A6FD0D20FEF7F1
:101E60006FFE06460EB1304680E755484069039044
:101E7000039800F4807008B9002CDDD10CB929203A
:101E800074E74A4807601820484948604020886045
:101E90000020C8604FF480600861084602F084FDAD
:101EA0001820FEF74DFE06460EB130465EE70020D4
:101EB000414908700598000144498860084645601A
:101EC0004FF0FF300860012048610020C8600861C1
:101ED000084602F092FD4FF0FF34354800780028A4
:101EE0005FD100F09FFC43E04FF4804002F0D3FD4F
:101EF000C8B30198A0EB0900202821D20198A0EBDB
:101F0000090000F0030020B90198A0EB0900800847
:101F100004E00198A0EB09008008401C02904FF0FB
:101F2000000A09E0DBF8000002F08DFD0AF1010A69
:101F30000BF1040B09F1040902988245F2D30FE07A
:101F40004FF0000A05E05BF82A0002F07CFD0AF180
:101F5000010ABAF1080FF6D30BF1200B09F12009A1
:101F60006FF0404404E0FFE70CB90420FEE6641E75
:101F70001348406B40F21A6108400028B4D0082092
:101F800002F089FD20B1082002F08FFD0420EDE66B
:101F9000022002F080FDD8B1022002F086FD02206E
:101FA000E4E630E024000020180000208812002021
:101FB000200000202200002021000020230000201B
:101FC00000800140000402401C0000209C12002000
:101FD000102002F060FD20B1102002F066FD052007
:101FE000C4E64FF4007002F056FD28B14FF40070C3
:101FF00002F05BFD0720B9E600F016FC40F2FF504E
:10200000FC4988633EE0FC48007801283AD1102260
:1020100029460698FFF76EFB0020F8490870F8493A
:102020000870F8490870F348C06B40F21A31084351
:10203000F049C8630846C06A40F00800C86200E082
:10204000641EF148006800F4005008B9002CF7D174
:102050001CB9FFF7D2FA042088E64FF0FF3400E005
:10206000641EE848007820B9E448007808B9002CDC
:10207000F6D10CB9042079E6E048007810B1DF48C9
:10208000007873E640F2FF5002F00FFD04A8FFF75E
:102090000EFE064603E004A8FFF709FE06463EB919
:1020A0009DF810000728F6D09DF810000628F2D001
:1020B00030465BE62DE9FF5F84B0DDE9124700267C
:1020C000002003900290002580468146019007FB86
:1020D00004FBDDF810A0DDF810A0BAF1000F03D169
:1020E000262008B0BDE8F09F0020C249C862C74959
:1020F00088604860401E0860012048610020C86078
:102100000861084602F079FCBA48406900F00070A6
:1021100008B10E20E5E7BE480078022808D1040285
:10212000DDE90601400A40EAC1504912CDE9060145
:10213000002C1FDDB4F5006F1CDC601E2040C8B908
:102140002046FFF720FB0390B24804601020B149FD
:102150004860402088600020C8604FF480600861BB
:10216000084602F021FC1020FEF7EAFC06461EB1EC
:102170003046B6E72620B4E7012F6FD907FB04F0FD
:10218000B0F1007F01D32620ABE7A148007838B139
:102190009F480078012803D09D48007802282DD15F
:1021A0009D48008800049B49086037204860402013
:1021B00088600020C8604FF480600861084602F023
:1021C000F3FB3720FEF7BCFC06460EB1304688E72D
:1021D0009048076017208F494860402088600020A1
:1021E000C8604FF480600861084602F0DDFB1720EC
:1021F000FEF7A6FC06460EB1304672E78549069802
:10220000086019204860402088600020C8604FF4B2
:1022100080600861084602F0C7FB1920FEF790FCB9
:1022200006460EB130465CE70398000177498860A6
:1022300007FB04F048604FF0FF3008600120486160
:102240000020C8600861084602F0D7FB6A480078A1
:10225000002871D1451E00F0E5FA40E0F3E0654842
:10226000406B00F48040A8B3ABEB080020281ED2DE
:10227000ABEB080000F0030018B9ABEB08008008D6
:1022800003E0ABEB08008008401C01904FF0000910
:1022900009E0DAF8000002F0D6FB09F101090AF1C1
:1022A000040A08F1040801988145F2D30FE04FF0C9
:1022B000000905E05AF8290002F0C5FB09F10109FF
:1022C000B9F1080FF6D30AF1200A08F120086FF0DF
:1022D000404504E0FFE70DB9042002E76D1E4548C4
:1022E000406B40F21A3108400028B8D0082002F0B4
:1022F000D2FB20B1082002F0D8FB0420F1E6022036
:1023000002F0C9FB20B1022002F0CFFB0220E8E678
:10231000102002F0C0FB20B1102002F0C6FB052007
:10232000DFE64FF4007002F0B6FB30B14FF40070FE
:1023300002F0BBFB0720D4E62CE04FF4807002F0E3
:10234000AAFB00B33248007838B131480078012840
:1023500003D02F480078022815D100202D490860AD
:102360000C204860402088600020C8604FF48060E6
:102370000861084602F018FB0C20FEF7E1FB064658
:102380000EB13046ADE600F04FFA40F2FF5002F0D9
:102390008CFB58E018480078012854D107FB04F161
:1023A00010220498FFF7A6F90020144908700120B4
:1023B000134908700020134908700E48C06B40F2A2
:1023C0001A3108430B49C8630846C06A40F0080048
:1023D000C8624FF0FF3500E06D1E0B48006800F446
:1023E000005008B9002DF7D1C5B9FFF706F9042050
:1023F00077E600000080014020000020220000203D
:102400002100002023000020000402409C12002034
:1024100018000020881200201C0000204FF0FF351B
:1024200000E06D1EC248007820B9C248007808B9A3
:10243000002DF6D10DB9042053E6BE48007810B146
:10244000BC4800784DE640F2FF5002F02EFB02A897
:10245000FFF72DFC064603E002A8FFF728FC06461E
:102460003EB99DF808000728F6D09DF80800062818
:10247000F2D0304635E610B5AF48406B00F48070BE
:1024800070B3AE480078012814D10020AC49086030
:102490000C204860402088600020C8604FF48060B5
:1024A0000861084602F080FA0C20FEF749FBA149BA
:1024B000087002E000209F4908709F48806B40F43C
:1024C00080709D4988630846C06B4CF23A3188435E
:1024D0009949C8630120964908709648007810BD54
:1024E000022002F0D8FA68B1022002F0DEFA924827
:1024F000C06B4CF23A3188438F49C86302208D4942
:102500000870ECE7082002F0C6FA68B1082002F073
:10251000CCFA8948C06B4CF23A3188438649C8638B
:10252000042084490870DAE7202002F0B4FA68B188
:10253000202002F0BAFA8048C06B4CF23A3188434E
:102540007D49C86306207B490870C8E7102002F067
:10255000A2FA68B1102002F0A8FA7748C06B4CF2DA
:102560003A3188437449C863052072490870B6E758
:102570004FF4007002F08FFA70B14FF4007002F067
:1025800094FA6D48C06B4CF23A3188436A49C8638B
:10259000072068490870A2E70020A0E710B5FFF700
:1025A0006AFF10BD70B50446002514B926252846DB
:1025B00070BD644800880004614908600D204860CF
:1025C000402088600020C8604FF4806008610846A1
:1025D00002F0EAF90D20FEF7B3FA05460DB12846E0
:1025E000E6E75548406920602846E1E708B5002045
:1025F00000906846FFF7D6FF08B1FF2008BD00989D
:10260000C0F34320FAE72DE9FE4F83460C4691467E
:1026100000200290002625462C46700240EAD5563E
:102620006D020BF00300F0B14FF0000A18E04FF418
:10263000007000904FEA4A20471946EBE0733A4693
:102640004148FFF7A9F802904FF400723E495846FE
:1026500007F0E2FC0BF5007B0AF1010000F0FF0A35
:10266000CA45E4DB16E0B9F1010F09D14FF400705F
:102670002A46334600905846FFF78EF8029009E04C
:102680004FF400702A463346CDE900095846FFF75B
:102690009BF902900298BDE8FE8F2DE9FE4F81461E
:1026A0000C46924600200290002625462C467002D9
:1026B00040EAD5566D0209F00300F0B14FF0000B6F
:1026C00018E04FF4007249461F4807F0A5FC4FF48C
:1026D000007000904FEA4B20471946EBE0733A46F2
:1026E0001948FFF72BFB029009F500790BF1010067
:1026F00000F0FF0BD345E4DB16E0BAF1010F09D17E
:102700004FF400702A46334600904846FFF716FB08
:10271000029009E04FF400702A463346CDE9000AE2
:102720004846FFF7C7FC02900298BDE8FE8F000004
:102730002300002022000020008001402100002012
:10274000881200201C0000203013002010B56FF00C
:10275000040000F07AF92E4800682E49B0FBF1F031
:102760002D4908700846007800EB4001C1EBC0100D
:102770004FF6FF7101EAC0002849088010BD0146EC
:10278000254A12784A434FF0E0235A6100229A61A9
:102790001A46126942F001021A6100BF4FF0E022AE
:1027A000106900F001021AB100F48032002AF5D05D
:1027B0004FF0E022126922F001024FF0E0231A618B
:1027C00000229A6170470146144A12884A434FF02A
:1027D000E0235A6100229A611A46126942F001020E
:1027E0001A6100BF4FF0E022106900F001021AB137
:1027F00000F48032002AF5D04FF0E022126922F076
:1028000001024FF0E0231A6100229A617047000034
:102810000000002000127A00280000202A0000207A
:1028200030BF704772B6704762B6704700BF7047DE
:1028300000BF4A4A128802F04002002AF9D0C2B210
:10284000464B1B1D1A80704710B586B00446012107
:1028500044F2040000F034FC4FF40070ADF81400B2
:1028600003208DF8160018208DF8170005A93C48A4
:1028700000F06AF94FF48060ADF8140004208DF880
:10288000170005A9364800F05FF925208DF80000F3
:1028900003208DF801008DF8020001208DF803005F
:1028A000684600F088F801940020ADF80800ADF803
:1028B0000A00ADF80C00ADF810000C20ADF80E00C9
:1028C00001A9264800F029FE012240F225512348A3
:1028D00000F0BBFE0121214800F0ABFE06B010BDA8
:1028E00010B540F225511D4800F094FF10B31B486D
:1028F00000F010FFC4B21B48008800F40040C8B9C3
:102900001848008800F4804060B10A2C03D00020F1
:102910001449088020E01348008840F40040114921
:10292000088019E00D2C06D10E48008840F4804044
:102930000C49088010E00B480088C0F30D000A49DC
:102940000C5408480088401C064908800846008846
:10295000C72801DD0020088010BD000000380140BC
:102960000008014030000020301500200948804751
:1029700009480047FEE7FEE7FEE7FEE7FEE7FEE761
:10298000FEE7FEE7FEE7FEE704480549054A064B79
:10299000704700005F05000831010008A8C0002052
:1029A000A8C60020A8C20020A8C2002031490143C7
:1029B000314A1160704770B5002100230F22C4789E
:1029C00004B32D4C246804F4E064C4F5E064210AE7
:1029D000C1F10403CA40447804FA03F18478144036
:1029E00021430901254C0678A155047804F01F0500
:1029F0000124AC4005786D11AD0005F1E025C5F866
:102A0000004109E0047804F01F050124AC401C4D8E
:102A10000678761145F8264070BD1A4A0A400243EE
:102A2000154B1B1F1A60704739B1134A121D1268EB
:102A30000243114B1B1D1A6006E00F4A121D12685B
:102A400082430D4B1B1D1A607047042808D14FF0BC
:102A5000E021096941F004014FF0E022116107E033
:102A60004FF0E021096921F004014FF0E0221161EB
:102A7000704700000000FA050CED00E000E400E003
:102A800080E100E080FFFF1F10B50446CC4884427F
:102A900008D10121042000F02DFB0021042000F0CA
:102AA00029FB46E0C748844208D10121082000F0F4
:102AB00021FB0021082000F01DFB3AE0C2488442BF
:102AC00008D10121102000F015FB0021102000F09A
:102AD00011FB2EE0BD48844208D10121202000F0E6
:102AE00009FB0021202000F005FB22E0B8488442C9
:102AF00008D10121402000F0FDFA0021402000F023
:102B0000F9FA16E0B348844208D10121802000F090
:102B1000F1FA0021802000F0EDFA0AE0AE4884428C
:102B200007D10121801500F0E5FA0021A01500F081
:102B3000E1FA10BD10B50121084600F0DBFA0021D2
:102B4000012000F0D7FA10BD2DE9F0410246002522
:102B50000026002000230024002791F803C00CF079
:102B60000F0591F803C00CF0100CBCF1000F03D05E
:102B700091F802C04CEA050591F800C0BCF1000FC5
:102B800031D0146800202BE04FF0010C0CFA00F358
:102B9000B1F800C00CEA03069E4220D183004FF03A
:102BA0000F0C0CFA03F7BC4305FA03FC4CEA0404CF
:102BB00091F803C0BCF1280F06D14FF0010C0CFABC
:102BC00000FCC2F814C00AE091F803C0BCF1480F41
:102BD00005D14FF0010C0CFA00FCC2F810C0401CEB
:102BE0000828D1D31460B1F800C0BCF1FF0F34DD68
:102BF000546800202EE000F1080C4FF0010808FA9C
:102C00000CF3B1F800C00CEA03069E4221D1830008
:102C10004FF00F0C0CFA03F7BC4305FA03FC4CEA27
:102C2000040491F803C0BCF1280F05D100F1080C91
:102C300008FA0CF8C2F8148091F803C0BCF1480FF0
:102C400007D100F1080C4FF0010808FA0CF8C2F89F
:102C50001080401C0828CED35460BDE8F0814FF6A8
:102C6000FF710180022181700421C170704702460A
:102C7000002093680B400BB1012000E0002070475A
:102C80000146886880B2704702460020D3680B4036
:102C90000BB1012000E0002070470146C86880B2F7
:102CA000704701617047416170470AB1016100E0FE
:102CB00041617047C16070474FF480320A438261BE
:102CC0008161826182698269704702460020434BBC
:102CD00018684FF68073184040EA021008433F4BD3
:102CE000186070473E49C8617047F0B50A46002336
:102CF00000240021002500F00046B6F1004F02D16B
:102D0000364EF16901E0354E7168C0F3034583B278
:102D100000F44016B6F5401F08D121F070612F4E27
:102D2000766826F070662D4F7E6012E000F4801603
:102D3000B6F5801F06D1032606FA05F4A14341F03B
:102D4000706106E0460D360103FA06F6B14341F024
:102D5000706122B1460D360103FA06F6314300F0E8
:102D60000046B6F1004F02D11C4EF16101E01B4E4E
:102D70007160F0BD30B500228B071C0F0F2303FAE2
:102D800004F2164B08338C1053F824309343134C41
:102D900008348D1044F8253023468C1053F8243025
:102DA0008C07240F00FA04F423430C4C08348D10D4
:102DB00044F8253030BD0A49DC3108607047000016
:102DC00000080140000C01400010014000140140C7
:102DD00000180140001C014000200140000001409B
:102DE00000002042DF48006840F00100DD49086033
:102DF00008464068DC490840DA49486008460068EF
:102E0000DA490840D74908600846006820F4802065
:102E100008600846406820F4FE0048604FF41F0038
:102E200088607047CF49096821F48031CD4A11602C
:102E30001146096821F480211160B0F5803F03D06C
:102E4000B0F5802F0ED106E0C649096841F4803103
:102E5000C44A116007E0C349096841F4A021C14A8E
:102E6000116000E000BF00BF704710B501460022AE
:102E7000002300204A11012A02D1BA4C236806E03F
:102E8000022A02D1B74C236A01E0B64C636A01F012
:102E90001F02012494401C400CB1012000E00020DE
:102EA00010BD38B5002000900024002500BF31205F
:102EB000FFF7DBFF05460098401C00900098B0F536
:102EC000A06F01D0002DF2D03120FFF7CEFF08B166
:102ED000012400E00024204638BD01460020A14A1C
:102EE000106820F0F80040EAC10010607047A04967
:102EF00008607047024600209A4B586820F47C1006
:102F000042EA01031843974B586070479849086696
:102F1000704701460020934A506820F003000843A0
:102F2000506070478F48406800F00C0070470146C1
:102F300000208C4A506820F0F00008435060704731
:102F400001460020874A506820F4E0600843506042
:102F5000704701460020834A506820F4605040EAE0
:102F6000C1005060704729B17E4A527A02437D4BBE
:102F70005A7204E07B4A527A82437A4B5A72704703
:102F80007B49D8310860704701460020754A506877
:102F900020F440400843506070470021714A2032BD
:102FA0001170704A82F82010012802D004280AD13A
:102FB00004E001216B4A2032117005E00521694AC5
:102FC0002032117000E000BF00BF704769490860FF
:102FD00070476449096A0143624A11627047654952
:102FE00044390860704730B50021002200240023D6
:102FF0005C4D6D6805F00C0121B1042905D008294C
:1030000023D105E05C4D056022E05B4D05601FE0CB
:10301000544D6D6805F47012524D6D6805F480349E
:10302000022505EB92421CB9544D554305600BE057
:103030004C4D6D6805F400351DB1504D554305608C
:1030400002E04D4D5543056002E04B4D056000BF69
:1030500000BF444D6D6805F0F0010909484D6B5CF7
:103060000568DD4045603F4D6D6805F4E061090A83
:10307000434D6B5C4568DD4085603A4D6D6805F4F5
:103080006051C90A3E4D6B5C4568DD40C560354DF9
:103090006D6805F44041890B3A4D6B5CC568B5FB22
:1030A000F3F5056130BD29B12E4A526902432D4B1B
:1030B0005A6104E02B4A526982432A4B5A61704795
:1030C00029B1284A92690243264B9A6104E0254AB5
:1030D00092698243234B9A61704729B1214AD26990
:1030E0000243204BDA6104E01E4AD26982431D4B41
:1030F000DA61704729B11B4AD2680243194BDA6082
:1031000004E0184AD2688243164BDA60704729B14E
:10311000144A12690243134B1A6104E0114A1269FE
:103120008243104B1A61704712494039086070475A
:103130000F49C86470470B49C87170470948406A15
:1031400040F0807007494862704701460020054AF8
:1031500092680A400AB1012000E00020704701494E
:1031600088727047001002400000FFF8FFFFF6FE73
:10317000000042428004424200127A0000093D00F1
:10318000320000204200002010B50446BE488442B0
:1031900008D101218014FFF7ADFF0021A014FFF733
:1031A000A9FF16E0B948844208D101210014FFF7B5
:1031B000AEFF00212014FFF7AAFF0AE0B4488442C2
:1031C00007D10121C013FFF7A2FF0021E013FFF791
:1031D0009EFF10BD10B50022028802F441520B88F8
:1031E0004C8823438C882343CC8823430C89234376
:1031F0004C8923438C892343CC8923431A4302807F
:10320000838B4FF2FF74234083830B8A038210BDAC
:103210002DE9F04F85B005460C464FF00009022716
:103220004FF000084FF0010B0026B246A88B4FF27A
:1032300040010840A88302202884B5F81C90A068AB
:10324000022801D100BF38E0A08810B94FF0010B6F
:1032500001E04FF0020B8D48854200D100E000BF35
:103260006846FFF7C0FEDDF800A0E088B0F5007FFB
:103270000AD14FEA1A2000EB80004000A168B0FBA1
:10328000F1F0401D86B20BE04FEA4B10BAFBF0F0B4
:1032900000EB80004000A168B0FBF1F0401D86B259
:1032A0000A20B6FBF0F606F00108A6EB0800C0F312
:1032B0004F074FF6FF7000EA0828022F01DBFF2FAF
:1032C00002DD02274FF00008E08840EA080038439A
:1032D0002884A088A189084361880843218808437D
:1032E00040F4006040EA0909A5F81C9005B0BDE86B
:1032F000F08F0021018041808180C1800181418166
:103300008181C181072101827047002101804180B4
:103310008180C1800221816000218181704721B1BB
:10332000028842F04002028004E002884FF6BF7338
:103330001A400280704721B1828B42F480628283FE
:1033400004E0828B4FF6FF331A408283704730B51A
:10335000002400230C110125A540ABB21AB18588C9
:103360001D43858002E085889D43858030BD1AB16C
:1033700083880B43838002E083888B43838070477C
:10338000818170470146888970474FF6FF629142FC
:1033900004D0028842F48072028004E002884FF672
:1033A000FF631A400280704721B1828842F0040214
:1033B000828004E082884FF6FB731A408280704757
:1033C00002884FF2FF731A40028002880A4302808B
:1033D0007047018841F480510180704721B1028813
:1033E00042F40052028004E002884DF6FF731A4056
:1033F0000280704702460020012901D0108B00E0B6
:10340000908A70470146088A7047B1F5804F04D111
:10341000028842F48042028004E002884BF6FF7387
:103420001A40028070470246002013890B400BB1FE
:10343000012000E000207047CA4302817047F0B5C8
:103440000246002000240023002501F00F0701267A
:10345000BE40B4B20B1101269E40B3B2968806EA74
:1034600003051689264016B10DB1012000E00020A9
:10347000F0BD10B5002201F00F040123A3409AB261
:10348000D343038110BD00000030014000380040EC
:10349000003C004010B50446FB48844209D101219C
:1034A0008803FFF727FE00214FF48040FFF722FE3C
:1034B00032E0F648844209D101214804FFF727FE93
:1034C00000214FF40030FFF722FE25E0F04884424F
:1034D00009D101218804FFF71AFE00214FF4802052
:1034E000FFF715FE18E0EB48844209D10121C8041A
:1034F000FFF70DFE00214FF40020FFF708FE0BE060
:10350000E548844208D101210805FFF700FE0021AB
:103510004FF48010FFF7FBFD10BD2DE9F04786B09A
:1035200005460E460024A24600BFA1460027B089EA
:1035300000B100BF2F462C8A4CF6FF700440F08883
:1035400004432C82AC894EF6F3100440B0883189D4
:103550000843718908430443AC81AC8A4FF6FF40AD
:103560000440B0890443AC8201A8FFF73CFDC64883
:10357000874202D1DDF810A001E0DDF80CA0A88997
:1035800000F4004040B10AEBCA0000EB0A103168B9
:103590004900B0FBF1F807E00AEBCA0000EB0A10A3
:1035A00031688900B0FBF1F86420B8FBF0F0040149
:1035B0002009642101FB1089A88900F4004040B172
:1035C000322000EBC900B0FBF1F000F0070004432B
:1035D00008E0322000EB09106421B0FBF1F000F0AC
:1035E0000F0004432C8106B0BDE8F0874FF416515C
:1035F000016000218180C18001810C214181002175
:103600008181704710B502460020108A4FF2FF03F7
:1036100018400B884C8823438C882343CC88234351
:103620001843108210BD0021018041808180C1803B
:10363000704721B1828942F40052828104E082897C
:103640004DF6FF731A4082817047F0B5034600249F
:1036500000260025002040F66A17B94200D100BFBD
:103660001846C1F3421401F01F06012707FA06F5B8
:10367000012C01D10C3004E0022C01D1103000E00B
:1036800014301AB107682F43076002E00768AF43A0
:103690000760F0BD1AB1838A0B43838202E0838AFC
:1036A0008B4383827047028A4FF6F0731A4002827E
:1036B000028A0A430282704782894FF2FF731A40DE
:1036C000828182890A438281704721B1828942F0D6
:1036D0000202828104E082894FF6FD731A408281E2
:1036E0007047028A4FF6DF731A400282028A0A4349
:1036F0000282704721B1028A42F48042028204E0D1
:10370000028A4BF6FF731A4002827047C1F3080227
:103710008280704701468888C0F30800704781891D
:1037200041F0010181817047028BD2B20283028B8A
:1037300042EA012202837047028B02F47F42028335
:10374000028B0A430283704721B1828A42F0200231
:10375000828204E0828A4FF6DF731A4082827047C9
:1037600021B1828A42F01002828204E0828A4FF6FE
:10377000EF731A408282704721B1828A42F00802B8
:10378000828204E0828A4FF6F7731A408282704781
:1037900021B1828942F40042828103E08289C2F32E
:1037A0000E028281704721B1828A42F400628282D5
:1037B00004E0828A4FF2FF731A4082827047828A45
:1037C0004FF6FB731A408282828A0A4382827047D4
:1037D00021B1828A42F00202828204E0828A4FF69C
:1037E000FD731A408282704702460020B1F5007FC7
:1037F00000D100BF13880B400BB1012000E0002076
:10380000704701F40072B2F5007F00D100BFCA43D7
:103810000280704770B50246002400230025002076
:1038200040F66A16B14200D100BFC1F3421501F063
:103830001F03012606FA03F3012D02D196893340B6
:1038400006E0022D02D1168A334001E0968A334009
:103850000C12012606FA04F41688344013B10CB198
:10386000012000E0002070BD10B50022002340F6CA
:103870006A14A14200D100BF0A1201249440A3B2ED
:10388000DC43048010BD00000038014000440040CB
:1038900000480040004C00400050004010B5044675
:1038A000FE48844208D10121C014FFF723FC002107
:1038B000E014FFF71FFCC4E0B4F1804F08D10121F0
:1038C0000846FFF724FC00210120FFF720FCB8E0A8
:1038D000F348844208D101210220FFF718FC00219F
:1038E0000220FFF714FCACE0EE48844208D101212D
:1038F0000420FFF70CFC00210420FFF708FCA0E0E7
:10390000E948844208D101210820FFF700FC00218A
:103910000820FFF7FCFB94E0E448844208D1012131
:103920001020FFF7F4FB00211020FFF7F0FB88E0E8
:10393000DF48844208D101212020FFF7E8FB002165
:103940002020FFF7E4FB7CE0DA48844208D1012123
:103950004014FFF7CFFB00216014FFF7CBFB70E0B2
:10396000D548844209D10121C804FFF7C3FB0021D7
:103970004FF40020FFF7BEFB63E0D048844209D13A
:1039800001210805FFF7B6FB00214FF48010FFF777
:10399000B1FB56E0CA48844209D101214805FFF72E
:1039A000A9FB00214FF40010FFF7A4FB49E0C54834
:1039B000844208D101214020FFF7A9FB00214020CB
:1039C000FFF7A5FB3DE0C048844208D101218020DB
:1039D000FFF79DFB00218020FFF799FB31E0BB48FA
:1039E000844208D101218015FFF791FB0021A01529
:1039F000FFF78DFB25E0B648844209D10121080478
:103A0000FFF778FB00214FF48030FFF773FB18E0DD
:103A1000B048844209D101214804FFF76BFB002123
:103A20004FF40030FFF766FB0BE0AB48844208D14F
:103A300001218804FFF75EFB00214FF48020FFF78F
:103A400059FB10BD00220288944B98420ED0994B2E
:103A500098420BD0B0F1804F08D0914B984205D0DE
:103A6000904B984202D0904B984204D14FF68F73FE
:103A70001A404B881A438D4B984207D08C4B984282
:103A800004D04FF6FF431A40CB881A4302808B883C
:103A900083850B880385814B98420BD0854B9842D8
:103AA00008D08B4B984205D08A4B984202D08A4B63
:103AB000984201D10B7A038601238382704770B547
:103AC000002400220023058C4FF6FE763540058445
:103AD000028C8388048B4FF68F752C40B51E2C40CA
:103AE0000D882C43751E2A400D892A434D882A4390
:103AF0006A4DA8420BD06F4DA84208D0744DA84221
:103B000005D0744DA84202D0734DA84213D14FF690
:103B1000F7752A404D892A434FF6FB752A408D8858
:103B20002A434FF6FF652B404FF6FF552B408D89FA
:103B30002B43CD892B4383800483CD8885860284E3
:103B400070BD70B5002400220023058C4FF6EF767F
:103B500035400584028C8388048B48F6FF752C4021
:103B60004FF6FF452C400D884FF6FF7606EA0525F7
:103B70002C434FF6DF752A400D8906EA05152A43C6
:103B80004D8806EA05152A43444DA84202D0494D06
:103B9000A8421DD14FF67F752A404D894FF6FF761A
:103BA00006EA05152A434FF6BF752A408D8806EAB6
:103BB00005152A434FF6FF352B404FF2FF752B407A
:103BC0008D8906EA85052B43CD8906EA85052B43B9
:103BD00083800483CD880587028470BD70B500247E
:103BE00000220023058C4FF6FF6635400584028CC9
:103BF0008388848B4FF68F752C404FF6FC752C40D4
:103C00000D882C434FF6FF552A400D894FF6FF765D
:103C100006EA05252A434D8806EA05252A431F4D55
:103C2000A84202D0234DA8421DD14FF2FF752A4071
:103C30004D894FF6FF7606EA05252A434FF6FF35F4
:103C40002A408D8806EA05252A434EF6FF752B404B
:103C50004DF6FF752B408D8906EA05152B43CD895E
:103C600006EA05152B4383808483CD8885870284EB
:103C700070BD70B5002200230024058C4EF6FF763F
:103C800035400584038C8488828B48F6FF752A4072
:103C90004FF6FF452A400D8820E00000002C01402F
:103CA0000004004000080040000C004000100040EC
:103CB0000014004000340140004C0140005001401D
:103CC0000054014000180040001C0040002000404B
:103CD0000040014000440140004801404FF6FF769B
:103CE00006EA05252A434DF6FF752B400D8906EAA5
:103CF00005352B434D8806EA05352B43FA4DA8427E
:103D000002D0FA4DA84208D14BF6FF752C408D89A0
:103D10004FF6FF7606EA85152C4384808283CD8892
:103D2000A0F84050038470BD828B4FF2FF331A40DD
:103D30008283828B4FF6FF7303EA01231A43828347
:103D40007047F0B50C461546002200210026078C6E
:103D50004EF6FF7C07EA0C070784828B018C4FF636
:103D6000FF7707EA043640F6FF473A404FF6FF7701
:103D700007EA05273A434FF6FF7707EA03373A4346
:103D8000D94FB8420ED0D94FB8420BD0B0F1804FC6
:103D900008D0D74FB84205D0D64FB84202D0D64F40
:103DA000B84206D14DF6FF77394046F48057394383
:103DB00005E047F6FF57394044F480573943828382
:103DC0000184F0BD828B4FF6F3731A408283828B9D
:103DD0000A4382837047F0B50C4615460022002145
:103DE0000026078C4FF6FF6C07EA0C070784828BCE
:103DF000018C4FF6FF7707EA04264FF60C773A401E
:103E00004FF6FF7707EA03172F433A43B64FB842FE
:103E10000ED0B64FB8420BD0B0F1804F08D0B44F9F
:103E2000B84205D0B34FB84202D0B34FB84206D122
:103E30004FF6FF57394046F48077394305E04FF29B
:103E4000FF57394044F48077394382830184F0BDC1
:103E5000028B4FF2FF331A400283028B4FF6FF733F
:103E600003EA01231A4302837047F0B50C46154656
:103E7000002200210026078C4FF6EF7C07EA0C0792
:103E80000784028B018C4FF6FF7707EA041640F691
:103E9000FF473A404FF6FF7707EA03373A434FF6BA
:103EA000FF7707EA05273A438F4FB8420ED08F4F6E
:103EB000B8420BD0B0F1804F08D08D4FB84205D03A
:103EC0008C4FB84202D08C4FB84206D14FF6DF7704
:103ED000394046F01007394305E04FF65F77394027
:103EE00044F01007394302830184F0BD028B4FF682
:103EF000F3731A400283028B0A4302837047F0B5C2
:103F00000C46154600220021068C4FF6FE773E40F7
:103F10000684028B018C4FF60C7632407E1C06EA3A
:103F200003162E433243704EB0420ED06F4EB04255
:103F30000BD0B0F1804F08D06D4EB04205D06D4E21
:103F4000B04202D06C4EB04206D14FF6FD76314001
:103F500044F00106314305E04FF6F576314044F078
:103F60000106314302830184F0BD70B505460C465D
:103F70005D4885420ED05D4885420BD0B5F1804F3B
:103F800008D05B48854205D05A48854202D05A483D
:103F9000854200D100E000BF208850B92389A28863
:103FA00061882846FFF7ABFFE1882846FFF79EFFB0
:103FB00025E0208804280AD12389A2886188284620
:103FC000FFF753FFE1882846FFF742FF17E02088FC
:103FD00008280AD12389A28861882846FFF7FBFEBA
:103FE000E1882846FFF7EEFE09E02389A288618870
:103FF0002846FFF7A6FEE1882846FFF795FE70BD2C
:104000002DE9F04105460C4600260127608808B9D5
:10401000022600E00026A088012801D1022700E046
:1040200001272088A0B92389A28861882846FFF744
:1040300066FFE1882846FFF759FF23893A46314653
:104040002846FFF712FFE1882846FFF701FF13E03B
:104050002389A28861882846FFF707FFE188284660
:10406000FFF7F6FE23893A4631462846FFF747FF19
:10407000E1882846FFF73AFFBDE8F0810A884B88BF
:104080001A438B881A43CB881A430B891A434B89EE
:104090001A438B891A43A0F8442070474FF6FF71EA
:1040A000818000210180C180418001727047002120
:1040B000018041808180C180018141818181C181F4
:1040C0007047002101804180012181800021C18051
:1040D000018170470021018041808180C180018180
:1040E0004181818170470000002C01400034014073
:1040F0000004004000080040000C004021B102888C
:1041000042F00102028004E002884FF6FE731A407A
:104110000280704731B1B0F8442042F40042A0F868
:10412000442005E0B0F84420C2F30E02A0F8442079
:1041300070471AB183890B43838102E083898B43E3
:10414000838170478182704741EA0203A0F84830BA
:1041500070471AB183890B43838102E083898B43C3
:104160008381704701894FF6F872114001817047D1
:104170000A46002101894FF68F73194011430181CE
:10418000704730B504460D4629462046FFF7F0FF3C
:10419000208940F00700208130BD2DE9F041044620
:1041A0000D4616461F46602D06D13B46012231467C
:1041B0002046FFF75AFE05E03B46012231462046E5
:1041C000FFF79DFE29462046FFF7D2FF208940F0E9
:1041D00007002081BDE8F08130B50C46002101893F
:1041E000C9B24FF6FF7505EA032515432543294358
:1041F000018130BD2DE9F04105460E46174698462F
:10420000002443463A4631462846FFF7E5FF2C890D
:104210004FF6F870044044F007044FF68F700440E6
:1042200044F070042C81BDE8F081F0B504460D46E1
:1042300016461F463B46324629462046FFF7CCFF2E
:10424000208940F480402081F0BD01858282704742
:104250000A46002101884FF68F73194011430180EF
:104260007047F0B50C4615461E460021002200237B
:104270000189028B038C4FF6F877394021434FF6C2
:10428000FC473A4040F201173A434FF6DD773B4096
:104290004FF6FF7707EA06172F433B43018102835E
:1042A0000384F0BD0A460021018B4FF68F7319403D
:1042B0001143018370470A460021018B48F6FF73C2
:1042C00019404FF6FF7303EA022319430183704735
:1042D0000A460021818B4FF68F7319401143818369
:1042E00070470A460021818B48F6FF7319404FF64C
:1042F000FF7303EA022319438183704721B10288C7
:1043000042F08002028004E002884FF67F731A4078
:104310000280704721B1828842F00402828004E06A
:1043200082884FF6FB731A408280704721B18288E1
:1043300042F00802828004E082884FF6F7731A4048
:104340008280704721B1828842F00102828004E0BD
:1043500082884FF6FE731A40828070470A46002119
:10436000018B4FF6F77319401143018370470A46DA
:104370000021018B4FF2FF7319404FF6FF7303EAE0
:1043800002231943018370470A460021818B4FF6AF
:10439000F77319401143818370470A460021818BCE
:1043A0004FF2FF7319404FF6FF7303EA02231943DC
:1043B000818370470A460021018B4FF6FB73194039
:1043C0001143018370470A460021018B4FF6FF33EA
:1043D00019404FF6FF7303EA022319430183704724
:1043E0000A460021818B4FF6FB73194011438183EC
:1043F00070470A460021818B4FF6FF3319404FF674
:10440000FF7303EA02231943818370470A460021A0
:10441000018B4FF67F7319401143018370470A46A1
:104420000021018BC1F30E014FF6FF7303EA022353
:104430001943018370470A460021818B4FF67F7331
:1044400019401143818370470A460021818BC1F3D3
:104450000E014FF6FF7303EA02231943818370476D
:104460000A460021018C4FF6FD7319401143018467
:1044700070470A460021018C4FF6F773194011432B
:10448000018470470A460021018C4FF6DF73194002
:104490004FF6FF7303EA02131943018470470A467B
:1044A0000021018C4FF67F7319404FF6FF7303EA2A
:1044B00002131943018470470A460021018C4FF60C
:1044C000FF5319404FF6FF7303EA02231943018497
:1044D00070470A460021018C4FF2FF7319404FF6D6
:1044E000FF7303EA02231943018470470A4600213F
:1044F000018C4DF6FF7319404FF6FF7303EA023348
:1045000019430184704730B5002301248C40A3B2C5
:10451000048C9C430484048C02FA01F5ADB22C4354
:10452000048430BD30B5002304248C40A3B2048C35
:104530009C430484048C02FA01F5ADB22C4304843C
:1045400030BD70B503460020002418461830012500
:104550008D40ACB21D8CA5431D8409B1082909D139
:1045600000EB6100056825F07005056005681543DE
:1045700005600EE00D1FC5F34E052844056825F4BF
:10458000E045056005684FF6FF7606EA02263543EA
:10459000056070BD21B1028842F00202028004E091
:1045A00002884FF6FD731A400280704721B10288DD
:1045B00042F00402028004E002884FF6FB731A40C6
:1045C0000280704721B1828842F08002828004E03C
:1045D00082884FF67F731A408280704702884FF6B8
:1045E000F7731A40028002880A430280704782886B
:1045F0004FF68F731A40828082880A438280704708
:1046000002894FF6F8731A40028102890A43028137
:10461000704702894FF67F731A40028102890A436C
:104620000281704781847047818570478186704719
:104630000187704781877047A0F840107047028853
:104640004FF6FF431A40028002880A4302807047F7
:104650000146888E70470146088F70470146888F53
:1046600070470146B1F8400070470146888C70479A
:104670000146088D704702460020138A0B400BB19B
:10468000012000E000207047CA430282704730B525
:104690000246002000230024158A05EA01039589BB
:1046A00005EA010413B10CB1012000E0002030BD87
:1046B000CA4302827047000001684FF6FE72114043
:1046C00001600021016041608160C1608D498842C4
:1046D00008D18C490839496841F00F01894A083AE4
:1046E00051608AE087491431884208D185490839E8
:1046F000496841F0F001834A083A51607DE0814900
:104700002831884208D17F490839496841F47061ED
:104710007C4A083A516070E07A493C31884208D1BD
:1047200078490839496841F47041764A083A51603D
:1047300063E074495031884208D1724908394968A8
:1047400041F470216F4A083A516056E06D49643176
:10475000884208D16B490839496841F47001694AB7
:10476000083A516049E067497831884208D1654983
:104770000839496841F07061624A083A51603CE08A
:104780006149884206D1011F096841F00F01021FEB
:10479000116032E05C491431884208D15A49091F3E
:1047A000096841F0F001584A121F116025E056498E
:1047B0002831884208D15449091F096841F47061C1
:1047C000514A121F116018E04F493C31884208D10C
:1047D0004D49091F096841F470414B4A121F11608D
:1047E0000BE049495031884207D14749091F096800
:1047F00041F47021444A121F1160704710B5002225
:10480000026847F6F0739A430C6A8B6823430C697D
:1048100023434C6923438C692343CC6923434C6A6B
:1048200023438C6A23431A430260CB6843600B68BE
:1048300083604B68C36010BD0021016041608160EE
:10484000C160016141618161C16101624162816256
:10485000704721B1026842F00102026004E0026880
:104860004FF6FE731A40026070471AB103680B439B
:10487000036002E003688B43036070474160704748
:104880000146486880B2704701460020002201F0CE
:1048900080531BB11C4B083B1A6802E0194B083BC4
:1048A0001A6802EA01030BB1012000E00020704702
:1048B00000F0805119B11449091F086002E0114944
:1048C00008394860704701460020002201F08053FB
:1048D0001BB10D4B083B1A6802E00A4B083B1A68F3
:1048E00002EA01030BB1012000E00020704700F054
:1048F000805119B10449091F086002E001490839D3
:1049000048607047080002400804024000206F49D8
:10491000086048608860C86048628862C8626C4805
:1049200088630020C86370470021684A516847F6D1
:10493000FF629143027D83681A4343681A43C36848
:104940001A4303681A4303691A4311435F4A5160CB
:10495000704700210175016041608160C1600161A3
:1049600070475C49086070475849096821F00301A5
:10497000564A116011460968014311607047534857
:10498000006800F00300704729B1504AD26B02431F
:104990004E4BDA6304E04D4AD26B82434B4BDA63F1
:1049A00070474D49086070470021484B02689A6083
:1049B0001A46D1686FF30A01D0E901231A43C3688C
:1049C0001A4303691A431143404AD16070470021DA
:1049D000016041608160C160016170473B480069CE
:1049E000C0B2704708B50146002000903748143027
:1049F000084400900098006808BD0021334B02680D
:104A00005A6242689A621A46D16A21F0F701D0E9E7
:104A100002231A4303691A4343691A4311432B4A79
:104A2000D16270474FF0FF31016000214160816029
:104A3000C1600161416170472448006B70472348A1
:104A400080300068704721498031086070471F48F6
:104A5000806C704720491431086070471E49183136
:104A6000086070471C491C31086070471A492031A2
:104A7000086070471949086070471849091D0860A7
:104A8000704701218143154A08321160704713496C
:104A90000C3108607047014600200C4A526B0A40F6
:104AA0000AB1012000E00020704708498863704780
:104AB00001460020054A526B0A400AB1012000E07D
:104AC0000020704701498863704700000080014062
:104AD000FF07C000A00030428C053042AC013042DC
:104AE00070B503460C4603E014F8015B03F8015B64
:104AF0001500A2F10102F7D170BD30B5034601E007
:104B000003F8011B1400A2F10102F9D130BD10B568
:104B100004467A4951F824104A00794951F8240092
:104B20000021FFF7EAFF774951F82420744908393A
:104B300051F824000021FFF7E0FF01217048083000
:104B4000015510BD10B501460023002207E06C4856
:104B500050F8210030F8120000B15B1C521C67486D
:104B600050F821009042F2D864205843634C54F826
:104B70002140B0FBF4F0C0B210BD2DE9F04704466F
:104B80000F460025A9465E480830005D20B95C4804
:104B900010380168204688471FB94FF0FF30BDE844
:104BA000F087594850F82400B7FBF0F6564850F803
:104BB0002400B7FBF0F100FB117000B1761C4F48E8
:104BC00050F82400451E20E04D4850F8240030F8ED
:104BD000150010B909F1010901E04FF00009B145D4
:104BE00012D14FF0000808E0454850F8240005EBCA
:104BF000080220F8126008F10108B045F4D34248D9
:104C000050F824006843CAE76D1E002DDCDA4FF02F
:104C1000FF30C4E72DE9F04104460E46384808301D
:104C2000005D38B9364810380168204688470120B1
:104C3000BDE8F081334850F82400B04217D932481B
:104C400050F82400B6FBF0F12D4850F8240030F85D
:104C50001120002507E00023294850F824004F19AF
:104C600020F817306D1C9542F5DB0020E0E70220AC
:104C7000DEE770B505460C4604B970BD204808381B
:104C800050F82500261A31462846FFF7C3FF00BF1B
:104C9000F3E770B504460E4631462046FFF76DFF38
:104CA0000546681C08B9002070BD1548083850F842
:104CB00024002844F8E72DE9F04104460F46164643
:104CC00031462046FFF759FF0546681C10B9002001
:104CD000BDE8F0810A49083951F8241048193246D4
:104CE0003946FFF7FDFE39462046FFF7C2FF04486C
:104CF000083850F824002844EAE7000028A40008F7
:104D00005800002038A4000830A400080146002004
:104D1000704770B50446002514B1012C0BD103E097
:104D2000FCF76BFC054608E0FBF764FD4FF4C04060
:104D30007449088001E0012500BF00BF0DB10120CA
:104D400070BD0020FCE72DE9F04107460E461546F0
:104D50001C464FF0000814B90420BDE8F08117B1DB
:104D6000012F22D112E0E2B229463046FDF74BFC7A
:104D7000804607E0FCF741FCE2B229463046FDF7E9
:104D800042FC8046B8F1000FF4D111E009E069025D
:104D90004FF400723046FBF78CFD6D1C06F5007673
:104DA000641E002CF3D1A04602E04FF0010800BFC2
:104DB00000BFB8F1000F01D10020CEE70120CCE701
:104DC0002DE9F04107460E4615461C464FF00008F7
:104DD00014B90420BDE8F08117B1012F22D112E0EF
:104DE000E2B229463046FDF758FC804607E0FCF762
:104DF00004FCE2B229463046FDF74FFC8046B8F18C
:104E0000000FF4D111E009E069024FF4007230465E
:104E1000FBF7EBFD6D1C06F50076641E002CF3D14C
:104E2000A04602E04FF0010800BF00BFB8F1000F3C
:104E300001D10020CEE70120CCE72DE9F04706465E
:104E40008946154646BBB9F1000F09D0B9F1010FEB
:104E500013D0B9F1020F05D0B9F1030F19D106E053
:104E6000002418E04FF400702860002413E0264866
:104E7000B0F85000288000240DE023484FF4007261
:104E80000023D0E91271384604F0F5FE28600024B2
:104E900001E0042400BF22E0012E1FD1B9F1000F70
:104EA00009D0B9F1010F11D0B9F1020F05D0B9F154
:104EB000030F10D106E000240FE04FF400702880AB
:104EC00000240AE008202880002406E00D4800881D
:104ED0002860002401E0042400BF00E001242046F3
:104EE000BDE8F0870020704710B504462146002039
:104EF000FFF7CFFE10BD10B5044621460020FFF796
:104F0000B8FE10BD64000020D812002070B5034622
:104F10000C4603E014F8015B03F8015B1500A2F1F5
:104F20000102F7D170BD30B5034601E003F8011B63
:104F30001400A2F10102F9D130BDF0B503461C46C0
:104F40000D46002000BF1600A2F1010207D014F8A0
:104F5000017B15F801CBA7EB0C063000F3D0F0BDB8
:104F6000024600E0521C107810B110788842F9D146
:104F7000107870472DE9F041044600272079F8B1F8
:104F8000E56A607801232A4604F13001FFF718FF33
:104F900008B1012714E000202071206A281AA169B5
:104FA00088420DD2E67809E0A069054460780123C3
:104FB0002A4604F13001FFF703FF761E022EF3D2DA
:104FC0003846BDE8F08170B504460D460026E06A1B
:104FD000A84210D02046FFF7CDFF06465EB96078A4
:104FE00001232A4604F13001FFF7ADFE10B14FF066
:104FF000FF350126E562304670BD70B50446204697
:10500000FFF7B8FF0546002D59D1207803284FD16E
:10501000607901284CD14202002104F13000FFF7F1
:1050200082FF552184F82E12AA2184F82F125220D3
:1050300084F8300052213120015561213220015580
:10504000412133200155722184F8141284F815127D
:10505000412184F81612612184F81712217C84F80A
:105060001812208A010A84F819122069010C84F8A8
:105070001A122069010E84F81B12217B84F81C127D
:10508000A089010A84F81D12E068010C84F81E1240
:10509000E068010E84F81F12E069401CE06260784D
:1050A000012304F13001E26AFFF78AFE00206071FB
:1050B000607800221146FFF7C0FE00B101252846A6
:1050C00070BD0246891E5069801E884201D80020AA
:1050D00070479378906A01FB0300F9E72DE9F047E8
:1050E00005460C46022C02D36869A04202D84FF054
:1050F000010969E04FF0FF392878012804D002281F
:105100002ED003285CD13FE0274607EB5707286ADB
:1051100000EB57212846FFF756FF00B153E0384611
:105120007F1CC0F3080105F1300010F80180286AE7
:1051300000EB57212846FFF746FF00B143E0C7F3D5
:10514000080105F13000405C48EA002804F0010045
:1051500010B14FEA181001E0C8F30B00814632E0AD
:10516000286A00EB14212846FFF72DFF00B12AE042
:1051700040F2FF1000EA440105F130000E183078CB
:10518000717840EA01291EE0286A00EBD411284614
:10519000FFF719FF00B116E040F2FF1000EA8401AA
:1051A00005F130000E18F0780006B17840EA0140B1
:1051B000717840EA01203178084320F0704902E01C
:1051C0004FF0010900BF00BF4846BDE8F0872DE958
:1051D000F04705460E461746022E02D36869B042D4
:1051E00002D84FF0020890E02878012804D0022865
:1051F00044D003287ED159E0B14609EB5909286A09
:1052000000EB59212846FFF7DEFE8046B8F1000F7B
:1052100000D079E0484609F10109C0F3080105F121
:1052200030000C1806F0010020B1F9B2207861F3CB
:105230001F1000E03846207001202871286A00EB1A
:1052400059212846FFF7BFFE8046B8F1000F00D075
:105250005AE0C9F3080105F130000C1806F001000E
:1052600010B1C7F3071005E0207800F0F000C7F395
:105270000321084320700120287145E0286A00EBD3
:1052800016212846FFF79FFE8046B8F1000F00D098
:105290003AE040F2FF1000EA460105F130000C1838
:1052A0002770380A6070012028712DE0286A00EB11
:1052B000D6112846FFF787FE8046B8F1000F00D0D0
:1052C00022E040F2FF1000EA860105F130000C18E0
:1052D000E0780006A17840EA0140617840EA0120C8
:1052E0002178084300F0704007432770380A607047
:1052F000380C00E005E0A070380EE0700120287145
:1053000002E04FF0020800BF00BF4046BDE8F08752
:105310002DE9F04104460E46022E02D36069B042E8
:1053200001D8022727E0002721E031462046FFF779
:10533000D5FE054605B91DE0012D01D1022719E072
:10534000681C08B9012715E0002231462046FFF706
:105350003EFF074607B10DE02069401C30B12069CF
:10536000401C2061607940F0010060712E46606948
:10537000B042DAD800BF3846BDE8F0812DE9F047E9
:1053800004468946B9F1000F06D1E76817B1606994
:10539000B84215D8012713E049462046FFF79EFE84
:1053A0000646022E02D20120BDE8F087701C08B923
:1053B0003046F9E76069B04201D93046F4E74F461C
:1053C0003D4600BF6D1C6069A84204D80225BD425D
:1053D00001D90020E8E729462046FFF77FFE064670
:1053E00006B909E0701C08B1012E01D13046DBE797
:1053F000BD42E7D10020D7E700BF6FF070422946D9
:105400002046FFF7E4FE8046B8F1000F08D1B9F15D
:10541000000F05D02A4649462046FFF7D8FE8046B1
:10542000B8F1000F0BD1E5602069401C78B120690C
:10543000401E2061607940F00100607107E0B8F122
:10544000010F02D14FF0FF3000E001200546284651
:10545000AAE770B503460D46586A021D680A1E6821
:10546000B678B0FBF6F400BF02CA09B9002070BDDF
:105470008C4200D202E0641A121DF5E700BF1068EA
:105480002044F4E72DE9F04104460E46E680A56885
:10549000012D03D020684069A84202D80220BDE84F
:1054A000F0812DB920680078032801D12068456A71
:1054B00045B920680089B04201D80220EFE7206892
:1054C000476A1EE0206880784FEA001812E02946FB
:1054D0002068FFF703FE0546681C08B90120DEE7D7
:1054E000022D03D320684069A84201D80220D6E7E4
:1054F000A6EB08064645EAD229462068FFF7E1FDFB
:105500000746E5600FB90220C9E707EB16102061D6
:105510002068303006F00F0100EB41106061002080
:10552000BDE72DE9F04104468846E088461CB0B24C
:1055300008B1206910B90420BDE8F08106F00F0021
:1055400000286BD12069401C2061E06828B92068E0
:105550000089B04262D80420EEE720688078401EBF
:1055600000EA1610002859D1E1682068FFF7B6FD5F
:105570000546012D01D80220DEE7681C08B901208C
:10558000DAE720684069A84242D8B8F1000F01D19B
:105590000420D1E7E1682068FFF7F0FE05460DB969
:1055A0000720C9E7012D01D10220C5E7681C08B911
:1055B0000120C1E72068FFF7DDFC08B10120BBE74F
:1055C000216801F130004FF400720021FFF7ABFCBD
:1055D00029462068FFF775FD2168C86200270EE0A4
:1055E0000120216808712068FFF7C4FC08B1012080
:1055F000A2E72068C06A401C2168C8627F1C20683E
:105600008078B842ECD82068C06AC01B2168C862A4
:10561000E56029462068FFF754FD2061E680206898
:10562000303006F00F0100EB41106061002083E78D
:105630002DE9F04104460E4600212046FFF722FFE7
:105640000546EDB9002700BF21692068FFF7BBFCC4
:10565000054605B113E060690078E52802D060696D
:10566000007820B9781C0746B04201D107E0002736
:1056700001212046FFF755FF0546002DE4D000BF6D
:10568000042D00D107252846BDE8F08110B502465B
:105690008C7ECB7E44EA03201378032B05D10C7D4E
:1056A0004B7D44EA032340EA034010BD81760B0A98
:1056B000C3760A0C02750B0E437570472DE9F0474F
:1056C00005460C46207820F04000401E00EB80018B
:1056D00001EBC00600274FF0010800BFFA48C05D8B
:1056E000205CF949C95D2144497840EA0129B8F1B3
:1056F000000F10D0484602F089FE8046FF2E07D2E8
:105700003146761C35F8110002F080FE404508D085
:105710000020BDE8F0874FF6FF70814501D00020E2
:10572000F7E7781C07460D28D8D3207800F0400012
:1057300038B1B8F1000F04D035F8160008B10020D8
:10574000E7E70120E5E7F0B50346087800F03F0001
:10575000401E00EB800707EBC0020025012600BFBA
:10576000D948405D085CD84F7F5D0F447F7840EAA0
:1057700007244EB1FF2A01D30020F0BD2646104673
:10578000521C23F8104005E04FF6FF70844201D010
:105790000020F2E7681C05460D28E1D3087800F0E8
:1057A000400030B1FF2A01D30020E6E7002023F8B3
:1057B00012000120E1E7F0B504461D464D730F27A6
:1057C000CF7200270F738F76BC4681F81BC0571E1F
:1057D00007EB870C0CEBC706002738463B4600BF9B
:1057E0004FF6FF77B84203D03746761C34F81700DF
:1057F000DFF8D4C21CF803C001F80C000712DFF870
:10580000C8C21CF803C08C448CF8017008B94FF66C
:10581000FF705F1C3B460D2FE2D34FF6FF77B84277
:1058200002D034F816700FB942F040020A70F0BD91
:105830002DE9FF4F83B0074691461E460B2238469E
:105840000499FFF763FB052E19D9B04612E039F829
:1058500002BB00250CE0584668F35F0080464FEA23
:105860006B0B08F4803010B1984888EA00086D1C72
:10587000102DF0D3B9F800000028E8D146460725DE
:1058800000BF06F00F0000F1300ABAF1390F03DD56
:105890000AF1070000F0FF0A28466D1E01A901F871
:1058A00000A03609002EECD17E20485500240BE0E4
:1058B000385D812807DB385DFE2804DC681EA042C5
:1058C00000D106E0641C641CAC4202D2385D202882
:1058D000EED100BF00BF082D04D228466D1C01A9DF
:1058E000095C00E020212046641C3954082CF2D3C6
:1058F00007B0BDE8F08F30B5014600200B2200BF95
:10590000431003EBC01411F8015B6319D8B2531EA6
:105910001A00F5D130BD2DE9F0470446002120469C
:10592000FFF7B0FD074617B13846BDE8F0874FF0E6
:10593000FF09CA464FF6FF70208400BF2169206826
:10594000FFF741FB074607B157E065692E780EB9AE
:10595000042752E0E87A00F03F08E52E05D008F071
:10596000080040B1B8F10F0F05D04FF0FF094FF616
:10597000FF7020843AE0B8F10F0F1CD1E06978B3D2
:1059800006F0400030B195F80DA026F04006B14673
:10599000E08820844E450AD1687B504507D12946CE
:1059A000E069FFF78BFE10B1A9F1010000E0FF20D4
:1059B00000F0FF091AE0B9F1000F05D12846FFF702
:1059C0009AFF504500D118E0A069C07A00F00100AC
:1059D00038B90B222846A169FFF7AFFA08B90CE0E5
:1059E00004E04FF0FF094FF6FF70208400212046AD
:1059F000FFF797FD0746002FA0D000BF384694E779
:105A00002DE9F05F04468A464FF0FF09CB46042794
:105A10004FE021692068FFF7D6FA074607B14BE04F
:105A2000666935780DB9042746E0F07A00F03F0842
:105A3000E52D0AD02E2D08D028F02000082801D10D
:105A4000012000E00020504502D04FF0FF0929E07E
:105A5000B8F10F0F1AD105F0400030B196F80DB033
:105A600025F04005A946E08820844D450AD1707B89
:105A7000584507D13146E069FFF765FE10B1A9F13D
:105A8000010000E0FF2000F0FF090BE0B9F1000F7A
:105A900004D13046FFF72FFF584502D04FF6FF7074
:105AA000208409E000212046FFF73BFD074607B1AF
:105AB00002E020690028ACD100BF0FB100202061B6
:105AC0003846BDE8F09F000040A400082110010006
:105AD0002DE9FE4F0446D4F81880D4F81C900C220F
