:020000040800F2
:10000000F0C600202102000811600008911A0008C3
:100010000D6000080D08000819930008000000009A
:100020000000000000000000000000003D85000806
:10003000A91500080000000049620008658E00084C
:100040003B0200083B0200083B0200083B0200089C
:100050003B0200083B0200083B0200083B0200088C
:100060003B0200083B0200083B0200083B0200087C
:100070003B0200083B0200083B0200083B0200086C
:100080003B0200083B0200083B0200083B0200085C
:10009000719200083B0200083B0200083B02000886
:1000A0003B0200083B0200083B0200083B0200083C
:1000B0003B0200083B0200083B0200083B0200082C
:1000C0003B0200083B0200083B0200083B0200081C
:1000D0003B020008018F00083B0200083B020008B9
:1000E0003B0200083B020008239100083B02000885
:1000F0003B0200083B0200083B0200083B020008EC
:100100003B020008E96B00083B0200083B020008C4
:100110003B0200083B0200083B0200083B020008CB
:100120003B0200083B0200083B0200083B020008BB
:1001300000F002F800F065F80AA090E8000C824494
:100140008344AAF10107DA4501D100F05AF8AFF271
:10015000090EBAE80F0013F0010F18BFFB1A43F0A5
:100160000103184778750300987503000A444FF09F
:10017000000C10F8013B13F0070408BF10F8014B06
:100180001D1108BF10F8015B641E05D010F8016B4B
:10019000641E01F8016BF9D113F0080F1EBF10F8AF
:1001A000014BAD1C0C1B09D16D1E58BF01F801CBD2
:1001B000FAD505E014F8016B01F8016B6D1EF9D555
:1001C0009142D6D37047000000230024002500266A
:1001D000103A28BF78C1FBD8520728BF30C148BFAA
:1001E0000B607047642900F04181782900F07A8122
:1001F000732900F05782002070471FB51FBD10B54E
:1002000010BD00F0B3FA1146FFF7F7FF0BF02EFD1B
:1002100000F0D1FA03B4FFF7F2FF03BC09F0DCFAF7
:100220000948804709480047FEE7FEE7FEE7FEE78A
:10023000FEE7FEE7FEE7FEE7FEE7FEE704480549C6
:10024000054A064B70470000698E0008310100081E
:10025000F0C00020F0C60020F0C20020F0C2002054
:10026000704753EA020C00F069802DE9F04B4FF023
:100270000006002B1FBFB3FA83F503FA05F424FA36
:1002800005F65E4012BF1643B2FA82F502FA05F493
:10029000C5F120051EBF22FA05FC44EA0C042035F6
:1002A00056EA044C4FEA144418BF641C4FF000088F
:1002B0004FF00009904271EB030C39D3002919BFAC
:1002C000B1FA81F701FA07F6B0FA80F700FA07F6FB
:1002D000C7F120071EBF20FA07FC46EA0C062037AC
:1002E000B6FBF4FCA7EB0507103F07F01F0BCBF1A3
:1002F00020060CFA0BFB2CFA06F644BFB346002688
:10030000202FA4BF5E464FF0000B5BEA060C08BF2F
:100310004FF0010B19EB0B09ABFB027C48EB060815
:10032000C01B06FB02CC0BFB03CC71EB0C01C1E73D
:100330000B46024641464846BDE8F08B13B54FF0E8
:1003400000004FF00001AFF30080BDE81C40704793
:1003500010B54C1084EA530404D54042C1F10001A9
:1003600038BF491E1B4204D55242C3F1000338BFB7
:100370005B1EFFF776FF14F0804F04D04042C1F1BE
:10038000000138BF491E14F0004F04D05242C3F19F
:10039000000338BF5B1E10BD0FB4044910B503AA9B
:1003A000029800F083F910BC5DF814FB2C000020CB
:1003B0002DE9F0410E460446002020622046E16807
:1003C000884730B3252805D0D4E901219047206A19
:1003D000401CF2E7E168204600278847050018D056
:1003E000A5F14100192802D820354FF400673246A4
:1003F000294620462760FFF7F5FE40B1012804D0CA
:10040000F61D26F007060836D8E7361DD6E728463B
:10041000DAE7206ABDE8F08170B50C460546012A8E
:1004200005D02878800600D5EA69002302E0012380
:1004300005E05B1C934202D2E05C0028F9D1A86978
:10044000E618C01AA861286A184428622846AFF343
:10045000008004E0D5E9012114F8010B9047B44273
:10046000F8D32846AFF3008070BD00002DE9F041BD
:100470000646002410687529314616A510D0AFF342
:100480000080002802DA404213A507E031688A079D
:1004900001D512A502E0490704D511A5012401E008
:1004A000AFF3008000210A2206F1240709E0B0FB27
:1004B000F2FCB0FBF2F302FB1C003030785418461B
:1004C000491C0028F3D123462A463046BDE8F041B6
:1004D00000F07DB8000000002D0000002B0000009F
:1004E0002000000070B504460D4621461068AFF3A9
:1004F00000802188090502D50F4A7A4402E00E4A9D
:100500007A440E32002104F1240305E000F00F06C6
:100510000009965D5E54491C0028F7D1207800231D
:10052000000704D5702D02D009B1022311322046F4
:10053000BDE8704000F04BB85E710300032A40F242
:10054000308010F0030C00F0158011F8013BBCF175
:10055000020F624498BF11F801CB00F8013B38BF8D
:1005600011F8013BA2F1040298BF00F801CB38BF9B
:1005700000F8013B11F0030300F0AA80083AC0F034
:10058000088051F8043B083A51F804CBA0E8081061
:10059000F5E7121D5CBF51F8043B40F8043BAFF394
:1005A0000080D20724BF11F8013B11F801CB48BFEE
:1005B00011F8012B24BF00F8013B00F801CB48BF24
:1005C00000F8012B704770477047704770472DE95E
:1005D000F0470D4699469246044600F1240801680A
:1005E000880604D5E06921F01001216000E00120B7
:1005F000A84201DD471B00E00027A1697A1902EB40
:100600000900081AA0612078C00602D42046AFF382
:100610000080002608E0D4E901211AF8060090477E
:10062000206A401C761C20624E45F4DB2078C00610
:100630000AD52046AFF3008006E0D4E9012130203E
:100640009047206A401C2062381EA7F10107F4DCA5
:1006500007E0D4E9012118F805009047206A401C02
:100660002062281EA5F10105F3DC2046AFF30080CF
:100670002078000602D50220BDE8F0870120FBE7C4
:1006800010B5436913B1AFF3008001E0FFF7C4FE7A
:10069000012010BD127800F124010A7000224A7076
:1006A0000122EDE711684FF0FF32E9E7074B70B523
:1006B0000D467B4400F043F80446284600F052F80B
:1006C00010B14FF0FF3070BD204670BD6FB3000019
:1006D00010B5203AC0F00B80B1E81850203AA0E8DD
:1006E0001850B1E81850A0E81850BFF4F5AF5FEA11
:1006F000027C24BFB1E81850A0E8185044BF18C9C4
:1007000018C0BDE810405FEA827C24BF51F8043B6A
:1007100040F8043B08BF7047D20728BF31F8023BBE
:1007200048BF11F8012B28BF20F8023B48BF00F852
:10073000012B704701694A1C02610878704700B5B7
:100740008FB0CDE901310021059105497944CDE90A
:10075000031011466846FFF72BFE0FB000BD0000E6
:10076000E5FFFFFF007B00F080007047754600F05A
:1007700029F8AE4605006946534620F00700854635
:1007800018B020B5FFF75AFDBDE820404FF0000635
:100790004FF000074FF000084FF0000B21F0070169
:1007A000AC46ACE8C009ACE8C009ACE8C009ACE8AC
:1007B000C0098D4670470446AFF300802046FFF71E
:1007C00029FD0000004870478CC0002010B5044689
:1007D00024B1012C07D0022C15D10AE010210120F0
:1007E00007F06EFF10E04FF48051022007F010FF79
:1007F0000AE01021012007F063FF4FF4805102202E
:1008000007F006FF00E000BF00BF10BD00BFFEE71D
:100810000146CAB20B1243EA0220704710B5002409
:1008200005E0A8480068005DA7490855641CA74872
:1008300000888442F5D3A4484068A5494860A2488E
:1008400080688860A14800881F280FD00220FFF729
:10085000BDFF00209C490860487B1A22052107F053
:10086000F3FF0021012007F0D1FF10BD9648C07BA7
:10087000282803D09448C07B2A2816D19248407C6F
:1008800001069148807C41EA00418F48C07C41EAE2
:1008900000208D49097D08438E4908608A48C17D42
:1008A000807D41EA00208C490860874800688B49B8
:1008B00088426FD18448407B89490968884207D8BB
:1008C0008148807B012803DB7F48807B10280DDD79
:1008D0000220FFF77BFF7C49487B2422052107F09B
:1008E000B3FF0021012007F091FFE8E07648C07BCC
:1008F00025285FD01BDC15286FD00EDC08286DD0B2
:1009000006DC00285BD0032830D0042867D176E0CD
:100910000A286ED01228F9D12DE01A380A285ED2A2
:10092000DFE800F0392EB17D33B1B1B1B1438A288F
:100930006FD00EDC552867D006DC282844D02A2842
:100940004ED02F28E2D155E05A2829D08828DDD171
:1009500076E0A8286DD004DC8F286FD09E28D5D1F2
:1009600073E0AA287BD0AF28D0D182E05649487BDB
:1009700005F0F6FF95E05449487B05F0C9FE90E08C
:100980005149487B06F000F88BE04F49487B05F061
:10099000FBFF86E086E04C49487B05F009FF80E0DC
:1009A0004949487B05F0FAFE7BE04749487B05F062
:1009B00093FF76E04449487B05F040FF71E04249EF
:1009C000487B05F0E9FF6CE03F49487B42490A68F3
:1009D0004049096805F0F6FE63E01BE024E052E0C0
:1009E0003949487B3C490A683A49096806F010F8D9
:1009F00057E02FE03449487B05F0EAFF51E03249E7
:100A0000487B05F06DFE4CE02F49487B05F0A4FEC5
:100A100047E029E02C49487B05F09EFE41E02A4949
:100A2000487B05F099FE3CE02749487B05F094FEA1
:100A300037E02549487B05F08FFE32E01EE00EE0EE
:100A40002149487B05F088FE2BE01F49487B05F0D3
:100A500083FE26E01C49487B05F07EFE21E01A4912
:100A6000487B05F079FE1CE01749487B05F074FED1
:100A700017E01549487B05F06FFE12E01249487BEC
:100A800005F06AFE0DE00220FFF7A0FE0E49487B4C
:100A90002022052107F0D8FE0021012007F0B6FE34
:100AA00000BF0CE00220FFF791FE0749487B20229F
:100AB000052107F0C9FE0021012007F0A7FE00BFB5
:100AC000D3E600004C0100203CC000205001002073
:100AD0005CC00020540100205801002055534243BF
:100AE000B401002008B50020009022E1974800885A
:100AF00000F00F00964908700846007800287CD165
:100B000094480068944908800846008800F0300046
:100B1000924908809048008800F440508E4908802F
:100B20008C4909684BF6BF7201EA020080F400505C
:100B300080F0200040F4004141F08001854A1160BE
:100B40008248008800F0100090BB1046006848F60C
:100B50000F7108401146086000F0A0FF7D49096848
:100B60004BF6BF7201EA02007B49098801F480510B
:100B700009B180F480507849098801F4005109B125
:100B800080F400507549098801F0100109B180F026
:100B900010007249098801F0200109B180F020009D
:100BA00081B241F4004141F080016A4A116008BD00
:100BB000FFE76848006880B20090BDF8000000F4CC
:100BC0000060B0B363480068C0F30E0048F68F7150
:100BD00008406049086007F03DFE5E4909684BF631
:100BE000BF7201EA02005C49098801F4805109B131
:100BF00080F480505849098800E056E001F4005123
:100C000009B180F400505549098801F0100109B17B
:100C100080F010005149098801F0200109B180F0ED
:100C2000200081B241F4004141F08001494A116045
:100C3000BDE7FFE7BDF8000000F40040002878D0D1
:100C400044480068C0F30E0048F68F7108404149DF
:100C5000086005F0BDFA3F4909684BF6BF7201EA2A
:100C600002003D49098801F4805109B180F48050A7
:100C70003949098801F4005109B180F4005037491D
:100C8000098801F0100109B180F01000334909888A
:100C900001F0200109B180F0200081B241F400414F
:100CA00041F080012B4A116081E7294800782C49E6
:100CB00001EB8000D0F8000C80B20090BDF800007D
:100CC00000F40040C0B12248007801EB8000D0F869
:100CD000000CC0F30E0048F68F7108401C490978DB
:100CE0001F4A02EB8101C1F8000C19490978491E1D
:100CF0001C4A52F821008047BDF8000000F0800037
:100D0000B8B113480078164901EB8000D0F8000C08
:100D100048F60F7108400E490978114A02EB81012B
:100D2000C1F8000C0A490978491E0F4A52F82100FF
:100D3000804708484430006880B20449088000F4C5
:100D4000004000287FF4D2AE00BF30E778010020D9
:100D500068000020005C00407C0000207E00002035
:100D600000500040980100207C0100200B4A02EB5B
:100D70008001D1F8001C01F4804171B102EB8001C7
:100D8000D1F8001C48F68F7211404CF280021143DA
:100D9000024B03EB8002C2F8001C70470050004079
:100DA0000B4A02EB8001D1F8001C01F0400171B147
:100DB00002EB8001D1F8001C48F68F72114048F216
:100DC000C0021143024B03EB8002C2F8001C7047C3
:100DD00000500040084A02EB8001D1F8001C48F6A0
:100DE0008F62114048F280021143034B03EB8002F3
:100DF000C2F8001C704700000050004070B500258C
:100E00004FF4803404E0802005F0DAFE00B103E006
:100E10002000A4F10104F6D100BF0CB9032070BD7D
:100E200040F2FF5005F086FE2846F8E770B504460C
:100E300005E01548456B05F0450000B100E0F8E716
:100E400000BF042005F0BCFE20B1042005F072FEB6
:100E5000032070BD012005F0B3FE20B1012005F094
:100E600069FE0120F5E708480069A04201D0102082
:100E7000EFE740F2FF5004498863084640690821C3
:100E80000840C0B2E5E700000080014070B50026D0
:100E90004FF4803505E01148446B04F0450000B183
:100EA00003E02800A5F10105F5D100BF15B104F05C
:100EB000040028B10326042005F03CFE304670BD36
:100EC000012005F07DFE18B10126012005F032FE5B
:100ED00040F2FF5005F02EFE3046F0E70080014062
:100EE00010B505E00B48446B04F0450000B100E08C
:100EF000F8E700BF042005F063FE20B1042005F0F0
:100F000019FE032010BD40F2FF5005F013FE002033
:100F1000F8E70000008001402DE9F04105460E464B
:100F20004FF0000805E01F48476B07F0450000B18F
:100F300000E0F8E700BF042005F042FE28B10420DD
:100F400005F0F8FD0320BDE8F081012005F038FE32
:100F500020B1012005F0EEFD0120F4E71148006901
:100F6000A84201D01020EEE740F2FF5005F0E2FD6C
:100F70000C48446904F4604018B9200C30804046A5
:100F8000E1E704F4005008B11320DCE704F48040EA
:100F900008B11020D7E704F4004008B10F20D2E7D1
:100FA0004046D0E70080014070B500264FF4803500
:100FB00005E00F48446B04F0450000B103E0280051
:100FC000A5F10105F5D100BF15B104F0040028B169
:100FD0000326042005F0AEFD304670BD04F040004D
:100FE00018B10026402005F0A5FD3046F5E70000C9
:100FF0000080014021B1026842F00102026004E079
:1010000002684FF6FE731A400260704701684FF69F
:10101000FE72114001600021016041608160C16089
:101020004B49884208D14A490839496841F00F01C3
:10103000474A083A51608AE045491431884208D14C
:1010400043490839496841F0F001414A083A516082
:101050007DE03F492831884208D13D490839496837
:1010600041F470613A4A083A516070E038493C31C5
:10107000884208D136490839496841F47041344AF8
:10108000083A516063E032495031884208D1304912
:101090000839496841F470212D4A083A516056E0F8
:1010A0002B496431884208D129490839496841F4FB
:1010B0007001274A083A516049E025497831884251
:1010C00008D123490839496841F07061204A083A3B
:1010D00051603CE01F49884206D1011F096841F078
:1010E0000F01021F116032E01A491431884208D101
:1010F0001849091F096841F0F001164A121F1160D2
:1011000025E014492831884208D11249091F09688D
:1011100041F470610F4A121F116018E00D493C3113
:10112000884208D10B49091F096841F47041094AF6
:10113000121F11600BE007495031884207D1054961
:10114000091F096841F47021024A121F116070479B
:10115000080002400804024010B50022026847F669
:10116000F0739A430C6A8B6823430C6923434C69E0
:1011700023438C692343CC6923434C6A23438C6A01
:1011800023431A430260CB6843600B6883604B685B
:10119000C36010BD2DE9F0472848006800F1100534
:1011A0002E8826480068077AD6B9042F18D124481B
:1011B000007801280FD100212248006880B2801CED
:1011C000214A42F8101030202049088000BF00203A
:1011D0001B49087003E0072710201C49088027E0FE
:1011E000AC88A64201D8042000E002200746B442A1
:1011F00000D93446A0B2A96888478046002000F094
:101200000FFC8146A2B24946404608F087F8A1B2D9
:10121000002007F047FA2888001B288068882044AF
:10122000688030200949088000020949088000BF11
:10123000024909680F72BDE8F08700006C000020C9
:1012400066000020505C0040006000407E000020EE
:101250007C0000202DE9F0412848006800F11004CE
:101260002688A068C0B1BEB1A588B54200D9354670
:10127000A8B2A168884707462088401B2080608864
:1012800028446080002000F09DFB8046AAB24146C1
:10129000384604F0C5FF00BF208850B14FF44050DD
:1012A000174908800021084607F0FCF9302015494D
:1012B00008802088A188884204DB03200F49096840
:1012C000087218E02088002804DD05200B49096811
:1012D000087210E0208870B9062008490968087271
:1012E00000210948006880B2801C084A42F81010AA
:1012F000302004490880BDE8F08100006C00002027
:101300007C0000207E000020505C00400060004017
:101310002DE9F84F9B48006845780027BA46062D0E
:101320001BD198480068007800F07F00002813D196
:10133000944909688878012803D193490968CF69DD
:101340000AE0022803D1904909680F6A04E00328E3
:1013500002D18D4909684F6A94E0002D64D1894813
:101360000068408800285FD186480068C08802284D
:101370005AD1844800680079002855D18148006816
:10138000007800F07F0028B97E480068808808B99E
:101390007E4F77E07B480068007800F07F000128EE
:1013A00010D1784909684879774909688A69002124
:1013B0009047002866D173480068807A002861D081
:1013C000724F5FE06F480068007800F07F000228ED
:1013D00058D16C480068407900F00F0669480068F1
:1013E000407900F0700967480068407900F080009B
:1013F00038B1674901EB8600D0F8000C00F03008E6
:1014000006E0634901EB8600D0F8000C00F4405878
:1014100060480078B04235D9B9F1000F32D1B8F147
:10142000000F2FD0594F2DE0082D07D155480068E7
:10143000007800F07F0028BB574F23E00A2D21D110
:1014400050480068007800F07F0001281AD14D480C
:101450000068807AB0B14B480068408890B949482C
:101460000068007970B947480068C088012809D130
:10147000444909684879444909688A6900219047C4
:1014800000B9464F57B13F480068A0F812A03D4848
:10149000006887610020B84700240FE0394A1268CD
:1014A0005078394A1268116988470446032C05D1DF
:1014B0000920344909680872BDE8F88F314800688E
:1014C000008A4FF6FF71884204D109202D4909682E
:1014D0000872F1E7022C03D02A480068008A20B97C
:1014E0000820284909680872E6E72648006800785D
:1014F00000F08000E0B323480068C08800902148D5
:101500000068008A0099884204D91E490098096839
:10151000088223E01B480068008A1A490968C988C4
:1015200088421BDA17480068008A1749096891F851
:101530002C10884203DA0020194908700EE0114887
:101540000068008A1049096891F82C1090FBF1F2AC
:1015500001FB120010B90120114908700A48006807
:1015600090F82C10074800688182FFF713FE07E00F
:10157000FFE703200349096808720003094908804E
:1015800000BF99E76C00002070000020F58A000879
:1015900000500040B5010020798A0008C98A00087F
:1015A000660000207C000020704710B504F066FC47
:1015B00010BD10B504F0B6FC10BD00000149086074
:1015C000704700001404014010B503A0FEF7E4FECC
:1015D00003200849086010BD75736220656E74654C
:1015E00072206C6F7720706F776572206D6F646505
:1015F0000D0A00004402002051B18200A2F1C04255
:10160000126842F001038200A2F1C042136009E0B7
:101610008200A2F1C0421268034B1A408300A3F17A
:10162000C0431A6070470000FEFF0F00D0E90112AE
:101630001143C2681143026911434269114382692F
:101640001143C2691143026A1143426A1143826A1B
:101650001143C26A1143026B114302689200A2F166
:10166000C0421160816808290BD101688900A1F18D
:10167000C041096841F0400201688900A1F1C04100
:101680000A60416B0968426B526841EA0211426B81
:10169000926841EA0221426B928941EA0241426B1F
:1016A000128A41EA0251426B127D41EA0261426BA9
:1016B000926911430268521C9200A2F1C04211606B
:1016C000C16AB1F5804F1BD1816B0968826B52688A
:1016D00041EA0211826B926841EA0221826B128A0E
:1016E00041EA0251826B127D41EA0261826B92698A
:1016F000114302689200A2F1C042C2F8041107E04F
:101700006FF0704201688900A1F1C041C1F8042165
:10171000704700002DE9FC4107460D4600260024D5
:1017200000200090019008205B490860102048606C
:10173000402088600020C8604FF48060086108463F
:1017400005F074FA1020FFF771FB044614B120462F
:10175000BDE8FC815148008800044F4908603720EB
:101760004860402088600020C8604FF480600861B5
:10177000084605F05BFA3720FFF758FB04460CB12A
:101780002046E5E74FF0FF304549086008204860F3
:10179000302088600220C860002008610120486174
:1017A000084605F0E3F900203B4908603320486013
:1017B000402088600020C8604FF4806008610846BF
:1017C00005F034FA3320FFF731FB04460CB1204614
:1017D000BEE70CE04FF4001005F0F2F938B105F067
:1017E0001FFA4DF82600761C022E00D306E02D4885
:1017F000406B40F22A6108400028EBD000BF08206F
:1018000005F0DEF920B1082005F094F904209FE7E7
:10181000022005F0D5F920B1022005F08BF9022055
:1018200096E7202005F0CCF920B1202005F082F9C0
:1018300006208DE74FF4007005F0C2F928B14FF48F
:10184000007005F077F9072082E740F2FF5005F0BD
:1018500071F900980006009901F47F4140EA0120E7
:10186000009901F47F0140EA1120009940EA1160DB
:10187000686001980006019901F47F4140EA012067
:10188000019901F47F0140EA1120019940EA1160B9
:10189000286020465CE70000A81200201C00002001
:1018A000BC120020008001402DE9F04102460025D5
:1018B0000026002000230024002791F803C00CF02C
:1018C0000F0591F803C00CF0100CBCF1000F03D011
:1018D00091F802C04CEA050591F800C0BCF1000F78
:1018E00031D0146800202BE04FF0010C0CFA00F30B
:1018F000B1F800C00CEA03069E4220D183004FF0ED
:101900000F0C0CFA03F7BC4305FA03FC4CEA040481
:1019100091F803C0BCF1280F06D14FF0010C0CFA6E
:1019200000FCC2F814C00AE091F803C0BCF1480FF3
:1019300005D14FF0010C0CFA00FCC2F810C0401C9D
:101940000828D1D31460B1F800C0BCF1FF0F34DD1A
:10195000546800202EE000F1080C4FF0010808FA4E
:101960000CF3B1F800C00CEA03069E4221D18300BB
:101970004FF00F0C0CFA03F7BC4305FA03FC4CEADA
:10198000040491F803C0BCF1280F05D100F1080C44
:1019900008FA0CF8C2F8148091F803C0BCF1480FA3
:1019A00007D100F1080C4FF0010808FA0CF8C2F852
:1019B0001080401C0828CED35460BDE8F08101613E
:1019C0007047000001460548006880B200EBC10086
:1019D000001D034A32F8100080B27047505C00408E
:1019E0000060004001460648006880B200EBC1007C
:1019F000801D044A32F81000C0F30900704700004F
:101A0000505C0040006000400146044A02EB810047
:101A1000D0F8000C00F44050704700000050004027
:101A200001460548006880B200EBC100034A32F865
:101A3000100080B270470000505C00400060004021
:101A4000014629B90120034A12681082002070471C
:101A50000148FCE76C000020B401002070B50A4882
:101A60000468001D0568001D0668344454B108224E
:101A70000649204600F04AF804220449103128465D
:101A800000F044F870BD0000E8F7FF1F5E01002081
:101A900000BFFEE772B6704762B6704710B51848CF
:101AA0000068047A022C01D0042C05D1FFF772FBE8
:101AB00013480068047A1CE0062C19D1104800680D
:101AC000407805280ED10E480068007800F07F00AD
:101AD00040B90B490968C87806F03AFD0949096818
:101AE000086A80470849096888688047082400E038
:101AF0000824034909680C7204F0A8FB10BD00001B
:101B00006C000020780000207000002030B50B46EB
:101B1000002100BF16E00A24B4EB107F05D9302461
:101B200004EB107403F8114005E0412404EB107439
:101B30000A3C03F81140000100254C00641C1D55AF
:101B40004C1CE1B29142E6DB30BD00001CB50446FE
:101B5000002001900090214800880004204908607E
:101B60000D204860402088600020C8604FF48060ED
:101B70000861084605F05AF81A48406B009002E0E8
:101B80001848406B0090009800F045000028F7D0FE
:101B9000012005F015F820B1012004F0CBFF012051
:101BA0001CBD042005F00CF820B1042004F0C2FF95
:101BB0000320F5E70B4800690D2801D01020EFE75E
:101BC00040F2FF5004F0B6FF0648406901900198CA
:101BD000C0F3432020700020E2E700001C0000203A
:101BE000A81200200080014070B504460026174866
:101BF0000588408845431548808846F60401884298
:101C000016D112488079012812D100200F4988711D
:101C10002A2048812B2088810021084603F066FE97
:101C200001200A4988712B2048812A20888103E0FD
:101C30000021084603F05AFE03F038FF002602E0B8
:101C400003480480761CAE42FAD370BD7C020020AB
:101C50000008006C10B50446002C66D16C498871F0
:101C6000F02008804FF4A07048800846808849F230
:101C7000413188420BD06648808846F6040188428C
:101C800005D06348808845F2103188421AD12C2053
:101C90005F4908812A2048812B2088810846808856
:101CA00046F60401884205D05948808845F2103133
:101CB000884206D14FF4A070554908804FF4F07067
:101CC0004880A1E05248808845F21051884210D1E6
:101CD0004FF430504E4908814FF4285048814FF45A
:101CE0002C5088814FF4F07008804FF44870488081
:101CF0008AE04748808841F6631188420DD12C2044
:101D0000434908812B2048812A2088814FF4F070B4
:101D100008804FF44870488076E022203C490881D2
:101D200020204881212088816EE001203849887177
:101D30004FF4A0700880F02048800846808849F25F
:101D40004131884205D03248808845F210318842BE
:101D500007D12C202E4908812A2048812B208881F8
:101D60003FE02B48808846F60401884207D12C20AA
:101D7000274908812B2048812A20888131E0244886
:101D8000808845F21051884210D14FF430502049DC
:101D900008814FF4285048814FF42C5088814FF42B
:101DA000487008804FF4F07048801AE01848808826
:101DB00041F6631188420DD12C20154908812A2053
:101DC00048812B2088814FF4487008804FF4F070D0
:101DD000488006E022200E490881212048812020E9
:101DE00088810B48808846F60401884205D008485F
:101DF000808845F21031884206D14FF4F0700449D2
:101E000008804FF4A0704880002003F0F9FB10BD5B
:101E10007C02002000B59FB00121080204F05AFAAC
:101E200001214FF4B47004F075FA0120ADF8780088
:101E300010208DF87B0003208DF87A001EA9FE4843
:101E4000FFF732FD4CF23370ADF8780018208DF8B2
:101E50007B0003208DF87A001EA9F848FFF724FDC7
:101E60004FF68070ADF8780018208DF87B000320C5
:101E70008DF87A001EA9F248FFF716FD41F2010025
:101E8000ADF8780018208DF87B0003208DF87A00DB
:101E90001EA9EC48FFF708FD0120089000200990DA
:101EA0000F200A9000200B900C900D900E90019046
:101EB0000290032003900020049005900690079064
:101EC00006200F90002010901190102012900020FA
:101ED000139015901490169017904FF4805018900E
:101EE000002019904FF480401A9000201B9008A801
:101EF0001C9001A81D900FA8FFF798FB0121062058
:101F0000FFF77AFB322007F0F7FE002003F042FBD8
:101F1000CD49888008468088FF280ADB08468088EB
:101F20004FF6FF71884204D0C7488088B0F5134F40
:101F30007ED1D32003F0B4FD03F022FBC249888098
:101F400003F01EFBC049888003F01AFBBE4988805D
:101F5000084680884FF6FF7101EA0020BA49888060
:101F600003F00EFBB84989880843B74988800846C2
:101F7000808849F2413188425AD0BF2003F090FD59
:101F800003F0FEFAB049888003F0FAFAAE4988807F
:101F900003F0F6FAAC49888003F0F2FAAA49888087
:101FA000084680884FF6FF7101EA0020A649888024
:101FB00003F0E6FAA44989880843A34988800846C3
:101FC000808846F6040188427AD0D42003F068FD68
:101FD00003F0D6FA9C49888003F0D2FA9A498880A7
:101FE00003F0CEFA98498880084680884FF6FF7142
:101FF00001EA00209449888003F0C2FA9249898856
:102000000843914988800846808845F2103188420B
:1020100056D04FF45A4003F043FD03F0B1FA8A4919
:1020200088804FF45B4003F03BFD03F0A9FA00E029
:1020300046E085498880084680884FF6FF7101EAAE
:102040000020814988804FF45C4003F029FD03F0B3
:1020500097FA7D49898808437B49888008468088AB
:10206000B0F5004F02D145F2105088807648808844
:1020700045F21051884223D0A12003F011FD03F056
:102080007FFA7149888003F07BFA6F49888008469F
:1020900080884FF6FF7101EA00206B49888003F0C9
:1020A0006FFA6949898808436749888008468088AB
:1020B00045F26171884203D141F66310624988801C
:1020C0006148818861A0FEF767F95F48808849F21E
:1020D000413188427ED1CF2003F0E2FC002003F0A2
:1020E000D9FCC12003F0D6FC302003F0D3FCED2056
:1020F00003F0D6FC642003F0CDFC032003F0CAFCFF
:10210000122003F0C7FC812003F0C4FCE82003F098
:10211000C7FC852003F0BEFC102003F0BBFC7A2036
:1021200003F0B8FCCB2003F0BBFC392003F0B2FC79
:102130002C2003F0AFFC002003F0ACFC342003F0B3
:10214000A9FC022003F0A6FCF72003F0A9FC202044
:1021500003F0A0FCEA2003F0A3FC002003F09AFCAB
:10216000002003F097FCC02003F09AFC1B2003F032
:1021700091FCC12003F094FC012003F08BFCC520EE
:1021800003F08EFC302003F085FC302003F082FC4D
:10219000C72003F085FCB72003F07CFC362003F059
:1021A0007FFC482003F076FC3A2003F079FC5520B0
:1021B00003F070FCB12003F073FC002003F06AFC14
:1021C0001A2003F067FCB62003F06AFC0A2003F033
:1021D00061FC00E0AAE0A22003F05CFCF22003F026
:1021E0005FFC002003F056FC262003F059FC012080
:1021F00003F050FCE02003F053FC0F2003F04AFCF6
:102200002A2003F047FC282003F044FC082003F0B8
:1022100041FC0E2003F03EFC082003F03BFC542060
:1022200003F038FCA92003F035FC432003F032FC16
:102230000A2003F02FFC11E0000C014000140140C3
:1022400000180140002001407C020020204C434443
:102250002049443A25780D0A000000000F2003F0C1
:1022600019FC002003F016FC002003F013FC0020F2
:1022700003F010FC002003F00DFCE12003F010FC43
:10228000002003F007FC152003F004FC172003F0E6
:1022900001FC072003F0FEFB112003F0FBFB0620EE
:1022A00003F0F8FB2B2003F0F5FB562003F0F2FBC4
:1022B0003C2003F0EFFB052003F0ECFB102003F0C3
:1022C000E9FB0F2003F0E6FB3F2003F0E3FB3F2098
:1022D00003F0E0FB0F2003F0DDFB2B2003F0E0FB1D
:1022E000002003F0D7FB002003F0D4FB012003F013
:1022F000D1FB3F2003F0CEFB2A2003F0D1FB0020CE
:1023000003F0C8FB002003F0C5FB002003F0C2FB74
:10231000EF2003F0BFFB112003F0C2FB782007F091
:10232000EBFC292003F0BCFB03F01AB9FE488088BF
:1023300046F6040188427CD1112003F0B1FB142041
:1023400007F0DAFCD02003F0ABFB072003F0A2FB80
:10235000422003F09FFB1D2003F09CFBD12003F0E3
:102360009FFB002003F096FB1A2003F093FB09204B
:1023700003F090FBD22003F093FB012003F08AFBD3
:10238000222003F087FBC02003F08AFB102003F01B
:1023900081FB3B2003F07EFB002003F07BFB02204F
:1023A00003F078FB112003F075FBC52003F078FBE8
:1023B000032003F06FFBC82003F072FB002003F042
:1023C00069FB252003F066FB212003F063FB052059
:1023D00003F060FB002003F05DFB0A2003F05AFBD2
:1023E000652003F057FB252003F054FB772003F012
:1023F00051FB502003F04EFB0F2003F04BFB00205D
:1024000003F048FBF82003F04BFB012003F042FBF4
:10241000FE2003F045FB002003F03CFB022003F00C
:1024200039FB202003F03CFB362003F039FB082069
:1024300000E02CE003F02EFB3A2003F031FB5520A6
:1024400003F028FB2B2003F02BFB002003F022FBE2
:10245000002003F01FFB012003F01CFB3F2003F0D2
:1024600019FB2A2003F01CFB002003F013FB0020C3
:1024700003F010FB012003F00DFBDF2003F00AFB4B
:10248000782007F039FC292003F00AFB4CE7A64826
:10249000808845F21031884240F07C87ED2003F0BF
:1024A000FFFA012003F0F6FAFE2003F0F3FAEE2023
:1024B00003F0F6FADE2003F0EDFA212003F0EAFA49
:1024C000F12003F0EDFA012003F0E4FADF2003F03D
:1024D000E7FA102003F0DEFAC42003F0E1FA8F20BF
:1024E00003F0D8FAC62003F0DBFA002003F0D2FA9A
:1024F000E22003F0CFFAE22003F0CCFAE22003F06E
:10250000C9FABF2003F0CCFAAA2003F0C3FAB02026
:1025100003F0C6FA0D2003F0BDFA002003F0BAFA6A
:102520000D2003F0B7FA002003F0B4FA112003F0F5
:10253000B1FA002003F0AEFA192003F0ABFA002044
:1025400003F0A8FA212003F0A5FA002003F0A2FA74
:102550002D2003F09FFA002003F09CFA3D2003F0A9
:1025600099FA002003F096FA5D2003F093FA002018
:1025700003F090FA5D2003F08DFA002003F08AFA50
:10258000B12003F08DFA802003F084FA002003F0DC
:1025900081FA8B2003F07EFA002003F07BFA96206C
:1025A00003F078FA002003F075FAB22003F078FA0D
:1025B000002003F06FFA002003F06CFA022003F011
:1025C00069FA002003F066FA032003F063FA0020A2
:1025D00003F060FAB32003F063FA002003F05AFA24
:1025E000002003F057FA002003F054FA002003F013
:1025F00051FA002003F04EFA002003F04BFA0020BD
:1026000003F048FA002003F045FA002003F042FAF4
:10261000002003F03FFA002003F03CFA002003F012
:1026200039FA002003F036FA002003F033FA0020D4
:1026300003F030FA002003F02DFA002003F02AFA0C
:10264000002003F027FA002003F024FA002003F012
:1026500021FA002003F01EFA002003F01BFA0020EC
:1026600003F018FA002003F015FAB42003F018FA6A
:102670008B2003F00FFA002003F00CFA962003F0F1
:1026800009FA002003F006FAA12003F003FA002063
:1026900003F000FAB52003F003FA022003F0FAF980
:1026A000002003F0F7F9032003F0F4F9002003F011
:1026B000F1F9042003F0EEF9002003F0EBF9B62065
:1026C00003F0EEF9002003F0E5F9002003F0E2F951
:1026D000B72003F0E5F9002003F0DCF9002003F057
:1026E000D9F93F2003F0D6F9002003F0D3F95E209A
:1026F00003F0D0F9002003F0CDF9642003F0CAF90B
:10270000002003F0C7F98C2003F0C4F9002003F087
:10271000C1F9AC2003F0BEF9002003F0BBF9DC20C6
:1027200003F0B8F9002001E07C02002003F0B2F9C8
:10273000702003F0AFF9002003F0ACF9902003F013
:10274000A9F9002003F0A6F9EB2003F0A3F900207B
:1027500003F0A0F9DC2003F09DF9002003F09AF9C2
:10276000B82003F09DF9002003F094F9002003F055
:1027700091F9002003F08EF9002003F08BF900207E
:1027800003F088F9002003F085F9002003F082F9B6
:10279000002003F07FF9BA2003F082F9242003F02F
:1027A00079F9002003F076F9002003F073F9002096
:1027B00003F070F9C12003F073F9202003F06AF9E7
:1027C000002003F067F9542003F064F9002003F0BF
:1027D00061F9FF2003F05EF9002003F05BF9C220ED
:1027E00003F05EF90A2003F055F9002003F052F9D6
:1027F000042003F04FF9002003F04CF9C32003F04C
:102800004FF93C2003F046F9002003F043F93A2049
:1028100003F040F9002003F03DF9392003F03AF9C4
:10282000002003F037F9372003F034F9002003F0DB
:1028300031F93C2003F02EF9002003F02BF936206B
:1028400003F028F9002003F025F9322003F022F9E3
:10285000002003F01FF92F2003F01CF9002003F0E3
:1028600019F92C2003F016F9002003F013F92920A0
:1028700003F010F9002003F00DF9262003F00AF907
:10288000002003F007F9242003F004F9002003F0EE
:1028900001F9242003F0FEF8002003F0FBF82320C8
:1028A00003F0F8F8002003F0F5F83C2003F0F2F80C
:1028B000002003F0EFF8362003F0ECF8002003F0DE
:1028C000E9F8322003F0E6F8002003F0E3F82F20C7
:1028D00003F0E0F8002003F0DDF82C2003F0DAF834
:1028E000002003F0D7F8292003F0D4F8002003F0EB
:1028F000D1F8262003F0CEF8002003F0CBF82420F6
:1029000003F0C8F8002003F0C5F8242003F0C2F853
:10291000002003F0BFF8232003F0BCF8002003F0F0
:10292000B9F8C42003F0BCF8622003F0B3F800202B
:1029300003F0B0F8052003F0ADF8002003F0AAF88A
:10294000842003F0A7F8002003F0A4F8F02003F09F
:10295000A1F8002003F09EF8182003F09BF8002057
:1029600003F098F8A42003F095F8002003F092F803
:10297000182003F08FF8002003F08CF8502003F0AB
:1029800089F8002003F086F80C2003F083F800207B
:1029900003F080F8172003F07DF8002003F07AF8A8
:1029A000952003F077F8002003F074F8F32003F08B
:1029B00071F8002003F06EF8E62003F06BF80020B9
:1029C00003F068F8C52003F06BF8322003F062F8DA
:1029D000002003F05FF8442003F05CF8002003F0CF
:1029E00059F8652003F056F8002003F053F87620DC
:1029F00003F050F8002003F04DF8882003F04AF867
:102A0000002003F047F8C62003F04AF8202003F026
:102A100041F8002003F03EF8172003F03BF80020B7
:102A200003F038F8012003F035F8002003F032F805
:102A3000C72003F035F8002003F02CF8002003F045
:102A400029F8002003F026F8002003F023F8C8201E
:102A500003F026F8002003F01DF8002003F01AF818
:102A6000002003F017F8002003F014F8C92003F049
:102A700017F8002003F00EF8002003F00BF80020F8
:102A800003F008F8002003F005F8002003F002F836
:102A9000002002F0FFFF002002F0FCFF002002F007
:102AA000F9FF002002F0F6FF002002F0F3FF002003
:102AB00002F0F0FF002002F0EDFF002002F0EAFF3C
:102AC000002002F0E7FF002002F0E4FF002002F007
:102AD000E1FFE02002F0E4FF162002F0DBFF00201F
:102AE00002F0D8FF1C2002F0D5FF002002F0D2FF38
:102AF000212002F0CFFF002002F0CCFF362002F0B0
:102B0000C9FF002002F0C6FF462002F0C3FF0020EC
:102B100002F0C0FF522002F0BDFF002002F0BAFF19
:102B2000642002F0B7FF002002F0B4FF7A2002F028
:102B3000B1FF002002F0AEFF8B2002F0ABFF0020BF
:102B400002F0A8FF992002F0A5FF002002F0A2FFEA
:102B5000A82002F09FFF002002F09CFFB92002F0A5
:102B600099FF002002F096FFC42002F093FF00209E
:102B700002F090FFCA2002F08DFF002002F08AFFD1
:102B8000D22002F087FF002002F084FFD92002F05B
:102B900081FF002002F07EFFE02002F07BFF00209A
:102BA00002F078FFF32002F075FF002002F072FFC0
:102BB000E12002F075FF162002F06CFF002002F009
:102BC00069FF1C2002F066FF002002F063FF222054
:102BD00002F060FF002002F05DFF362002F05AFF95
:102BE000002002F057FF452002F054FF002002F0C1
:102BF00051FF522002F04EFF002002F04BFF6420F4
:102C000002F048FF002002F045FF7A2002F042FF68
:102C1000002002F03FFF8B2002F03CFF002002F07A
:102C200039FF992002F036FF002002F033FFA82080
:102C300002F030FF002002F02DFFB92002F02AFF41
:102C4000002002F027FFC42002F024FF002002F041
:102C500021FFCA2002F01EFF002002F01BFFD2203D
:102C600002F018FF002002F015FFD82002F012FF3A
:102C7000002002F00FFFE02002F00CFF002002F025
:102C800009FFF32002F006FF002002F003FFE2201C
:102C900002F006FF052002F0FDFE002002F0FAFE21
:102CA0000B2002F0F7FE002002F0F4FE1B2002F0E1
:102CB000F1FE002002F0EEFE342002F0EBFE0020D8
:102CC00002F0E8FE442002F0E5FE002002F0E2FE01
:102CD0004F2002F0DFFE002002F0DCFE612002F057
:102CE000D9FE002002F0D6FE792002F0D3FE0020AB
:102CF00002F0D0FE882002F0CDFE002002F0CAFED5
:102D0000972002F0C7FE002002F0C4FEA62002F0C9
:102D1000C1FE002002F0BEFEB72002F0BBFE002084
:102D200002F0B8FEC22002F0B5FE002002F0B2FEB2
:102D3000C72002F0AFFE002002F0ACFED12002F06E
:102D4000A9FE002002F0A6FED62002F0A3FE00207D
:102D500002F0A0FEDD2002F09DFE002002F09AFEAF
:102D6000F32002F097FE002002F094FEE32002F030
:102D700097FE052002F08EFE002002F08BFE0A2056
:102D800002F088FE002002F085FE1C2002F082FE88
:102D9000002002F07FFE332002F07CFE002002F0D3
:102DA00079FE442002F076FE002002F073FE5020EF
:102DB00002F070FE002002F06DFE622002F06AFE5A
:102DC000002002F067FE782002F064FE002002F08E
:102DD00061FE882002F05EFE002002F05BFE97207C
:102DE00002F058FE002002F055FEA62002F052FE2E
:102DF000002002F04FFEB72002F04CFE002002F04F
:102E000049FEC22002F046FE002002F043FEC72029
:102E100002F040FE002002F03DFED12002F03AFE1A
:102E2000002002F037FED52002F034FE002002F030
:102E300031FEDD2002F02EFE002002F02BFEF320FA
:102E400002F028FE002002F025FEE42002F028FE19
:102E5000012002F01FFE002002F01CFE012002F003
:102E600019FE002002F016FE022002F013FE0020E0
:102E700002F010FE2A2002F00DFE002002F00AFEF1
:102E80003C2002F007FE002002F004FE4B2002F07E
:102E900001FE002002F0FEFD5D2002F0FBFD00209F
:102EA00002F0F8FD742002F0F5FD002002F0F2FDC2
:102EB000842002F0EFFD002002F0ECFD932002F0F0
:102EC000E9FD002002F0E6FDA22002F0E3FD002073
:102ED00002F0E0FDB32002F0DDFD002002F0DAFD9B
:102EE000BE2002F0D7FD002002F0D4FDC42002F085
:102EF000D1FD002002F0CEFDCD2002F0CBFD002060
:102F000002F0C8FDD32002F0C5FD002002F0C2FD92
:102F1000DD2002F0BFFD002002F0BCFDF32002F036
:102F2000B9FD002002F0B6FDE52002F0B9FD002059
:102F300002F0B0FD002002F0ADFD002002F0AAFD7D
:102F4000002002F0A7FD022002F0A4FD002002F004
:102F5000A1FD292002F09EFD002002F09BFD3C20F7
:102F600002F098FD002002F095FD4B2002F092FD4A
:102F7000002002F08FFD5D2002F08CFD002002F0A9
:102F800089FD742002F086FD002002F083FD84207C
:102F900002F080FD002002F07DFD932002F07AFD1A
:102FA000002002F077FDA22002F074FD002002F064
:102FB00071FDB32002F06EFD002002F06BFDBE201B
:102FC00002F068FD002002F065FDC42002F062FD01
:102FD000002002F05FFDCD2002F05CFD002002F039
:102FE00059FDD32002F056FD002002F053FDDC20F5
:102FF00002F050FD002002F04DFDF32002F04AFDEA
:10300000002002F047FDE62002F04AFD112002F008
:1030100041FD002002F03EFD342002F03BFD002087
:1030200002F038FD562002F035FD002002F032FD9E
:10303000762002F02FFD002002F02CFD772002F018
:1030400029FD002002F026FD662002F023FD00206D
:1030500002F020FD882002F01DFD002002F01AFD84
:10306000992002F017FD002002F014FDBB2002F0B1
:1030700011FD002002F00EFD992002F00BFD002052
:1030800002F008FD662002F005FD002002F002FDBE
:10309000552002F0FFFC002002F0FCFC552002F05D
:1030A000F9FC002002F0F6FC452002F0F3FC0020C1
:1030B00002F0F0FC432002F0EDFC002002F0EAFCFC
:1030C000442002F0E7FC002002F0E4FCE72002F0DC
:1030D000E7FC322002F0DEFC002002F0DBFC552091
:1030E00002F0D8FC002002F0D5FC762002F0D2FCE1
:1030F000002002F0CFFC662002F0CCFC002002F0A1
:10310000C9FC672002F0C6FC002002F0C3FC672067
:1031100002F0C0FC002002F0BDFC872002F0BAFCE7
:10312000002002F0B7FC992002F0B4FC002002F06D
:10313000B1FCBB2002F0AEFC002002F0ABFC9920F9
:1031400002F0A8FC002002F0A5FC772002F0A2FC0F
:10315000002002F09FFC442002F09CFC002002F0C2
:1031600099FC562002F096FC002002F093FC2320EC
:1031700002F090FC002002F08DFC332002F08AFC6B
:10318000002002F087FC452002F084FC002002F0C1
:1031900081FCE82002F084FC002002F07BFC00208F
:1031A00002F078FC992002F075FC002002F072FC1D
:1031B000872002F06FFC002002F06CFC882002F0F7
:1031C00069FC002002F066FC772002F063FC00201E
:1031D00002F060FC662002F05DFC002002F05AFC68
:1031E000882002F057FC002002F054FCAA2002F0D4
:1031F00051FC002002F04EFCBB2002F04BFC0020F2
:1032000002F048FC992002F045FC002002F042FC4C
:10321000662002F03FFC002002F03CFC552002F04A
:1032200039FC002002F036FC552002F033FC00206F
:1032300002F030FC442002F02DFC002002F02AFCB9
:10324000442002F027FC002002F024FC552002F06C
:1032500021FC002002F01EFCE92002F021FCAA2043
:1032600002F018FC002002F015FC002002F012FC15
:10327000002002F00FFC002002F012FCAA2002F055
:1032800009FCCF2002F00CFC002002F003FC00201F
:1032900002F000FC002002F0FDFB002002F0FAFB2F
:1032A000002002F0F7FB002002F0F4FB002002F007
:1032B000F1FB002002F0EEFB002002F0EBFB00200F
:1032C00002F0E8FB002002F0E5FB002002F0E2FB48
:1032D000002002F0DFFB002002F0DCFB002002F007
:1032E000D9FB002002F0D6FB002002F0D3FBF02037
:1032F00002F0D6FB002002F0CDFB502002F0CAFB0A
:10330000002002F0C7FB002002F0C4FB002002F006
:10331000C1FBF32002F0C4FB002002F0BBFBF9204C
:1033200002F0BEFB062002F0B5FB102002F0B2FB5B
:10333000292002F0AFFB002002F0ACFB3A2002F0A3
:10334000AFFB552002F0A6FB112002F0A9FB642080
:1033500006F0D2FC292002F0A3FB352002F0A0FBEE
:10336000002002F097FB512002F09AFBFF2002F0B0
:1033700091FB532002F094FB2C2002F08BFB552094
:1033800002F08EFB822002F085FB2C2002F088FBED
:1033900002F0E6B8FE48808845F2105188427DD19F
:1033A00055214FF4704002F08BFBAA214FF201002F
:1033B00002F086FB52214FF2020002F081FB08214D
:1033C0004FF2030002F07CFB01214FF2040002F0F7
:1033D00077FB0D214FF4304002F072FB0D214BF2D0
:1033E000010002F06DFB0D214BF2020002F068FBC0
:1033F00034214FF4364002F063FB34214BF201607C
:1034000002F05EFB34214BF2026002F059FB0D2109
:103410004FF4314002F054FB0D214BF2011002F049
:103420004FFB0D214BF2021002F04AFB34214FF406
:10343000374002F045FB34214BF2017002F040FBB3
:1034400034214BF2027002F03BFB00214FF432407A
:1034500002F036FB00214BF2012002F031FB00218B
:103460004BF2022002F02CFB24214FF4384002F0F2
:1034700027FB24214BF6010002F022FB24214BF60E
:10348000020002F01DFB01214FF43F4002F018FB47
:103490000F214FF4334002F013FB00E0FDE30F2156
:1034A0004BF2013002F00CFB0F214BF2023002F024
:1034B00007FB34214FF4394002F002FB34214BF674
:1034C000011002F0FDFA34214BF6021002F0F8FA76
:1034D00008214FF4354002F0F3FA08214BF2015075
:1034E00002F0EEFA08214BF2025002F0E9FA032151
:1034F0004FF4424002F0E4FA24214FF43A4002F043
:10350000DFFA24214BF6012002F0DAFA24214BF6EF
:10351000022002F0D5FA00214FF43C4002F0D0FA2C
:1035200078214BF6014002F0CBFA00214BF6024025
:1035300002F0C6FA00214FF43D4002F0C1FA7821B2
:103540004BF6015002F0BCFA00214BF6025002F09B
:10355000B7FA00214FF43E4002F0B2FA64214BF674
:10356000016002F0ADFA00214FF4514002F0A8FAD8
:1035700033214DF2011002F0A3FA00214DF20210A6
:1035800002F09EFA34214DF2031002F099FA002164
:103590004DF2041002F094FA3A214DF2051002F0B7
:1035A0008FFA00214DF2061002F08AFA4A214DF2FC
:1035B000071002F085FA00214DF2081002F080FA9F
:1035C0005C214DF2091002F07BFA00214DF20A1045
:1035D00002F076FA81214DF20B1002F071FA00210F
:1035E0004DF20C1002F06CFAA6214DF20D1002F013
:1035F00067FA00214DF20E1002F062FAE5214DF259
:103600000F1002F05DFA01214DF2101002F058FA8D
:1036100013214DF2111002F053FA01214DF2121054
:1036200002F04EFA54214DF2131002F049FA012132
:103630004DF2141002F044FA82214DF2151002F0FE
:103640003FFA01214DF2161002F03AFACA214DF26A
:10365000171002F035FA02214DF2181002F030FA7C
:1036600000214DF2191002F02BFA02214DF21A102E
:1036700002F026FA01214DF21B1002F021FA02217C
:103680004DF21C1002F01CFA34214DF21D1002F014
:1036900017FA02214DF21E1002F012FA67214DF2C4
:1036A0001F1002F00DFA02214DF2201002F008FA6C
:1036B00084214DF2211002F003FA02214DF2221072
:1036C00002F0FEF9A4214DF2231002F0F9F90221D3
:1036D0004DF2241002F0F4F9B7214DF2251002F05A
:1036E000EFF902214DF2261002F0EAF9CF214DF256
:1036F000271002F0E5F902214DF2281002F0E0F95E
:10370000DE214DF2291002F0DBF902214DF22A10E0
:1037100002F0D6F9F2214DF22B1002F0D1F902217C
:103720004DF22C1002F0CCF9FE214DF22D1002F0DA
:10373000C7F903214DF22E1002F0C2F910214DF20B
:103740002F1002F0BDF903214DF2301002F0B8F94C
:1037500033214DF2311002F0B3F903214DF2321052
:1037600002F0AEF96D214DF2331002F0A9F90021FB
:103770004FF4524002F0A4F933214DF2012002F03F
:103780009FF900214DF2022002F09AF9342101E064
:103790007C0200204DF2032002F092F900214DF24C
:1037A000042002F08DF93A214DF2052002F088F94B
:1037B00000214DF2062002F083F94A214DF2072044
:1037C00002F07EF900214DF2082002F079F95C2127
:1037D0004DF2092002F074F900214DF20A2002F0A6
:1037E0006FF981214DF20B2002F06AF900214DF2B0
:1037F0000C2002F065F9A6214DF20D2002F060F9CF
:1038000000214DF20E2002F05BF9E5214DF20F2070
:1038100002F056F901214DF2102002F051F9132166
:103820004DF2112002F04CF901214DF2122002F06C
:1038300047F954214DF2132002F042F901214DF2D3
:10384000142002F03DF982214DF2152002F038F9E2
:1038500001214DF2162002F033F9CA214DF2172052
:1038600002F02EF902214DF2182002F029F9002170
:103870004DF2192002F024F902214DF21A2002F033
:103880001FF901214DF21B2002F01AF902214DF21D
:103890001C2002F015F934214DF21D2002F010F920
:1038A00002214DF21E2002F00BF967214DF21F207C
:1038B00002F006F902214DF2202002F001F98421E4
:1038C0004DF2212002F0FCF802214DF2222002F0FC
:1038D000F7F8A4214DF2232002F0F2F802214DF274
:1038E000242002F0EDF8B7214DF2252002F0E8F88F
:1038F00002214DF2262002F0E3F8CF214DF22720DD
:1039000002F0DEF802214DF2282002F0D9F8DE2183
:103910004DF2292002F0D4F802214DF22A2002F0C3
:10392000CFF8F2214DF22B2002F0CAF802214DF21D
:103930002C2002F0C5F8FE214DF22D2002F0C0F837
:1039400003214DF22E2002F0BBF810214DF22F2062
:1039500002F0B6F803214DF2302002F0B1F8332125
:103960004DF2312002F0ACF803214DF2322002F08A
:10397000A7F86D214DF2332002F0A2F800214FF498
:10398000534002F09DF833214DF2013002F098F8D7
:1039900000214DF2023002F093F834214DF2033051
:1039A00002F08EF800214DF2043002F089F83A213D
:1039B0004DF2053002F084F800214DF2063002F09D
:1039C0007FF84A214DF2073002F07AF800214DF2DB
:1039D000083002F075F85C214DF2093002F070F801
:1039E00000214DF20A3002F06BF881214DF20B30CC
:1039F00002F066F800214DF20C3002F061F8A621C9
:103A00004DF20D3002F05CF800214DF20E3002F064
:103A100057F8E5214DF20F3002F052F801214DF236
:103A2000103002F04DF813214DF2113002F048F839
:103A300001214DF2123002F043F854214DF21330BF
:103A400002F03EF801214DF2143002F039F88221E3
:103A50004DF2153002F034F801214DF2163002F02B
:103A60002FF8CA214DF2173002F02AF802214DF248
:103A7000183002F025F800214DF2193002F020F83C
:103A800002214DF21A3002F01BF801214DF21B30D9
:103A900002F016F802214DF21C3002F011F8342128
:103AA0004DF21D3002F00CF802214DF21E3002F0F2
:103AB00007F867214DF21F3002F002F802214DF2A3
:103AC000203001F0FDFF84214DF2213001F0F8FF9C
:103AD00002214DF2223001F0F3FFA4214DF22330F8
:103AE00001F0EEFF02214DF2243001F0E9FFB72191
:103AF0004DF2253001F0E4FF02214DF2263001F0B5
:103B0000DFFFCF214DF2273001F0DAFF02214DF225
:103B1000283001F0D5FFDE214DF2293001F0D0FF31
:103B200002214DF22A3001F0CBFFF2214DF22B3071
:103B300001F0C6FF02214DF22C3001F0C1FFFE2141
:103B40004DF22D3001F0BCFF03214DF22E3001F07B
:103B5000B7FF10214DF22F3001F0B2FF03214DF2DB
:103B6000303001F0ADFF33214DF2313001F0A8FFCC
:103B700003214DF2323001F0A3FF6D214DF23330BD
:103B800001F09EFF00214FF4544001F099FF3321D2
:103B90004DF2014001F094FF00214DF2024001F08E
:103BA0008FFF34214DF2034001F08AFF00214DF2D6
:103BB000044001F085FF3A214DF2054001F080FFFD
:103BC00000214DF2064001F07BFF4A214DF20740F3
:103BD00001F076FF00214DF2084001F071FF5C21F9
:103BE0004DF2094001F06CFF00214DF20A4001F056
:103BF00067FF81214DF20B4001F062FF00214DF281
:103C00000C4001F05DFFA6214DF20D4001F058FF80
:103C100000214DF20E4001F053FFE5214DF20F401F
:103C200001F04EFF01214DF2104001F049FF132138
:103C30004DF2114001F044FF01214DF2124001F01C
:103C40003FFF54214DF2134001F03AFF01214DF2A4
:103C5000144001F035FF82214DF2154001F030FF94
:103C600001214DF2164001F02BFFCA214DF2174001
:103C700001F026FF02214DF2184001F021FF002142
:103C80004DF2194001F01CFF02214DF21A4001F0E3
:103C900017FF01214DF21B4000E006E301F010FF89
:103CA00002214DF21C4001F00BFF34214DF21D406A
:103CB00001F006FF02214DF21E4001F001FF6721D5
:103CC0004DF21F4001F0FCFE02214DF2204001F0B8
:103CD000F7FE84214DF2214001F0F2FE02214DF267
:103CE000224001F0EDFEA4214DF2234001F0E8FE58
:103CF00002214DF2244001F0E3FEB7214DF22540B0
:103D000001F0DEFE02214DF2264001F0D9FECF2166
:103D10004DF2274001F0D4FE02214DF2284001F07F
:103D2000CFFEDE214DF2294001F0CAFE02214DF204
:103D30002A4001F0C5FEF2214DF22B4001F0C0FEF9
:103D400002214DF22C4001F0BBFEFE214DF22D4030
:103D500001F0B6FE03214DF22E4001F0B1FE10211C
:103D60004DF22F4001F0ACFE03214DF2304001F046
:103D7000A7FE33214DF2314001F0A2FE03214DF2A6
:103D8000324001F09DFE6D214DF2334001F098FE6E
:103D900000214FF4554001F093FE33214DF20150C4
:103DA00001F08EFE00214DF2025001F089FE342117
:103DB0004DF2035001F084FE00214DF2045001F059
:103DC0007FFE3A214DF2055001F07AFE00214DF2BE
:103DD000065001F075FE4A214DF2075001F070FEC9
:103DE00000214DF2085001F06BFE5C214DF20950AC
:103DF00001F066FE00214DF20A5001F061FE8121C2
:103E00004DF20B5001F05CFE00214DF20C5001F020
:103E100057FEA6214DF20D5001F052FE00214DF249
:103E20000E5001F04DFEE5214DF20F5001F048FE1D
:103E300001214DF2105001F043FE13214DF21150BB
:103E400001F03EFE01214DF2125001F039FE5421E5
:103E50004DF2135001F034FE01214DF2145001F0E7
:103E60002FFE82214DF2155001F02AFE01214DF264
:103E7000165001F025FECA214DF2175001F020FE28
:103E800002214DF2185001F01BFE00214DF2195095
:103E900001F016FE02214DF21A5001F011FE01212F
:103EA0004DF21B5001F00CFE02214DF21C5001F0AE
:103EB00007FE34214DF21D5001F002FE02214DF2A9
:103EC0001E5001F0FDFD67214DF21F5001F0F8FD7D
:103ED00002214DF2205001F0F3FD84214DF22150DA
:103EE00001F0EEFD02214DF2225001F0E9FDA42186
:103EF0004DF2235001F0E4FD02214DF2245001F077
:103F0000DFFDB7214DF2255001F0DAFD02214DF21F
:103F1000265001F0D5FDCF214DF2275001F0D0FD04
:103F200002214DF2285001F0CBFDDE214DF2295047
:103F300001F0C6FD02214DF22A5001F0C1FDF2212F
:103F40004DF22B5001F0BCFD02214DF22C5001F03E
:103F5000B7FDFE214DF22D5001F0B2FD03214DF2CF
:103F60002E5001F0ADFD10214DF22F5001F0A8FDB3
:103F700003214DF2305001F0A3FD33214DF23150B9
:103F800001F09EFD03214DF2325001F099FD6D21AB
:103F90004DF2335001F094FD00214FF4564001F0F2
:103FA0008FFD33214DF2016001F08AFD00214DF2B9
:103FB000026001F085FD34214DF2036001F080FDC7
:103FC00000214DF2046001F07BFD3A214DF20560C5
:103FD00001F076FD00214DF2066001F071FD4A21ED
:103FE0004DF2076001F06CFD00214DF2086001F018
:103FF00067FD5C214DF2096001F062FD00214DF288
:104000000A6001F05DFD81214DF20B6001F058FD69
:1040100000214DF20C6001F053FDA6214DF20D6020
:1040200001F04EFD00214DF20E6001F049FDE52149
:104030004DF20F6001F044FD01214DF2106001F0DE
:104040003FFD13214DF2116001F03AFD01214DF2C7
:10405000126001F035FD54214DF2136001F030FD86
:1040600001214DF2146001F02BFD82214DF215600B
:1040700001F026FD01214DF2166001F021FDCA215B
:104080004DF2176001F01CFD02214DF2186001F0A5
:1040900017FD00214DF2196001F012FD02214DF2D1
:1040A0001A6001F00DFD01214DF21B6001F008FDC9
:1040B00002214DF21C6001F003FD34214DF21D6020
:1040C00001F0FEFC02214DF21E6001F0F9FC6721B7
:1040D0004DF21F6001F0F4FC02214DF2206001F06E
:1040E000EFFC84214DF2216001F0EAFC02214DF247
:1040F000226001F0E5FCA4214DF2236001F0E0FC18
:1041000002214DF2246001F0DBFCB7214DF2256065
:1041100001F0D6FC02214DF2266001F0D1FCCF2146
:104120004DF2276001F0CCFC02214DF2286001F035
:10413000C7FCDE214DF2296001F0C2FC02214DF2E4
:104140002A6001F0BDFCF2214DF22B6001F0B8FCB9
:1041500002214DF22C6001F0B3FCFE214DF22D60E6
:1041600001F0AEFC03214DF22E6001F0A9FC1021FC
:104170004DF22F6001F0A4FC03214DF2306001F0FC
:104180009FFC33214DF2316001F09AFC03214DF286
:10419000326001F095FC6D214DF2336001F090FC2E
:1041A00055214FF4704001F08BFCAA214FF2010021
:1041B00001F086FC52214FF2020001F081FC08213F
:1041C0004FF2030001F07CFC00214FF2040001F0EB
:1041D00077FCCC214FF4314001F072FC00214BF20E
:1041E000011001F06DFC05214FF4364001F068FC30
:1041F00070214FF4374001F063FC70214BF20170E5
:1042000001F05EFC01214FF4384001F059FC03211C
:104210004BF6010001F054FC03214BF6020001F0C3
:104220004FFC03214BF6030001F04AFC02214FF43E
:104230003C4001F045FC00214BF6014001F040FC00
:1042400000214BF6024001F03BFCD0214FF44940E5
:1042500001F036FC02214CF6011001F031FC502136
:104260004CF6021001F02CFC50214CF6031001F02A
:1042700027FC50214CF6041001F022FC00214FF4E1
:10428000545001F01DFC55214FF4685001F018FC0A
:104290004FF4885001F004FC782005F053FD4FF4F2
:1042A000245001F0FDFB01F05BB9FE48808849F223
:1042B000253188427ED147F6F001E52001F000FC6F
:1042C0004FF48071012001F0FBFB4FF4E06102200C
:1042D00001F0F6FB41F23001032001F0F1FB002177
:1042E000042001F0EDFB40F20221082001F0E8FB80
:1042F0000021092001F0E4FB00210A2001F0E0FB8D
:1043000000210C2001F0DCFB00210D2001F0D8FB86
:1043100000210F2001F0D4FB0021102001F0D0FB80
:104320000721112001F0CCFB0021122001F0C8FB75
:104330000021132001F0C4FB0021072001F0C0FB85
:1043400041F29061102001F0BBFB40F227211120C7
:1043500001F0B6FB9D21122001F0B2FB4FF4C851D1
:10436000132001F0ADFB2521292001F0A9FB0D212F
:104370002B2001F0A5FB0721302001F0A1FB40F22A
:104380000331312001F09CFB0321322001F098FB26
:1043900040F20621352001F093FB0821362001F080
:1043A0008FFB40F20641372001F08AFB4FF4417148
:1043B000382000E057E001F083FB0721392001F0AD
:1043C0007FFB40F202613C2001F07AFB08213D2096
:1043D00001F076FB0021502001F072FBEF2151200B
:1043E00001F06EFB0021522001F06AFB40F23F1108
:1043F000532001F065FB4FF42741602001F060FB82
:104400000121612001F05CFB00216A2001F058FBD2
:104410000021802001F054FB0021812001F050FB9D
:104420000021822001F04CFB0021832001F048FB99
:104430000021842001F044FB0021852001F040FB95
:104440001021902001F03CFB4FF4C061922001F05C
:1044500037FB40F23311072001F032FB222100200C
:1044600001F02EFB1FE78F48808849F228318842EF
:104470007ED141F28F01EC2001F022FB41F2342188
:10448000EF2001F01DFB4FF48071012001F018FBBB
:104490004FF4E061022001F013FB41F230010320F0
:1044A00001F00EFB0021042001F00AFB40F2022182
:1044B000082001F005FB0021092001F001FB00218B
:1044C0000A2001F0FDFA01210C2001F0F9FA002187
:1044D0000D2001F0F5FA00210F2001F0F1FA002182
:1044E000102001F0EDFA0721112001F0E9FA002176
:1044F000122001F0E5FA0021132001F0E1FA012178
:10450000072001F0DDFA322005F0F6FB41F2904180
:10451000102001F0D5FA40F22721112001F0D0FA45
:10452000322005F0E9FB8A21122001F0C9FA32207D
:1045300005F0E2FB4FF4D051132001F0C1FA06213F
:10454000292001F0BDFA0D212B2001F0B9FA32200B
:1045500005F0D2FB0021202001F0B2FA0021212039
:1045600001F0AEFA322005F0C7FB0021302000E058
:1045700074E001F0A5FA40F20461312001F0A0FAE4
:1045800040F20531322001F09BFA0021352001F084
:1045900097FA40F60941362001F092FA4FF4017182
:1045A000372001F08DFA40F20131382001F088FA0D
:1045B00040F20771392001F083FA00213C2001F01C
:1045C0007FFA40F60A213D2001F07AFA322005F008
:1045D00093FB0021502001F073FAEF21512001F0EC
:1045E0006FFA0021522001F06BFA40F23F11532084
:1045F00001F066FA4FF42741602001F061FA0121D1
:10460000612001F05DFA00216A2001F059FA0021D1
:10461000802001F055FA0021812001F051FA00219B
:10462000822001F04DFA0021832001F049FA002197
:10463000842001F045FA0021852001F041FA102183
:10464000902001F03DFA4FF4C061922001F038FA59
:1046500040F23311072001F033FA24E61148808834
:1046600049F2203188427DD10021084601F028FA24
:104670004FF48071012001F023FA4FF4E061022031
:1046800001F01EFA41F23001032001F019FA002175
:10469000042001F015FA40F20221082001F010FA7E
:1046A000002101E07C020020092001F009FA00212C
:1046B0000A2001F005FA01210C2001F001FA002185
:1046C0000D2001F0FDF900210F2001F0F9F9322051
:1046D00005F012FB40F20111072001F0F1F9322040
:1046E00005F00AFB4FF48651102001F0E9F907218B
:1046F000112001F0E5F94FF48871122001F0E0F982
:104700004FF43061132001F0DBF90021292001F082
:10471000D7F944F210012B2001F0D2F900215020EA
:1047200001F0CEF9EF21512001F0CAF90021522009
:1047300001F0C6F940F23F11532001F0C1F94FF4E6
:104740001C51602001F0BCF90121612001F0B8F991
:1047500000216A2001F0B4F90021802001F0B0F9B5
:10476000002100E031E0812001F0AAF9002182203F
:1047700001F0A6F90021832001F0A2F90021842094
:1047800001F09EF90021852001F09AF91021902076
:1047900001F096F90021922001F092F90121932075
:1047A00001F08EF94FF48871952001F089F900210C
:1047B000972001F085F90021982001F081F940F25D
:1047C0007311072001F07CF96DE5FE48808849F2FD
:1047D000313188427DD141F21401E72001F070F9B6
:1047E0004FF48071012001F06BF94FF40071022049
:1047F00001F066F941F23801032001F061F940F25D
:104800000221082001F05CF90021092001F058F98B
:1048100000210A2001F054F900210C2001F050F988
:1048200000210D2001F04CF900210F2001F048F982
:104830000021102001F044F90721112001F040F976
:104840000021122001F03CF90021132001F038F979
:10485000C82005F051FA41F29061102001F030F9C2
:1048600040F22721112001F02BF9322005F044FA03
:104870000C21122001F024F9322005F03DFA4FF40A
:104880000061132001F01CF91121292001F018F911
:104890000B212B2001F014F9322005F02DFA002114
:1048A000202001F00DF940F23F11212001F008F91C
:1048B0000021302001F004F94FF48371312001F020
:1048C000FFF80021322001F0FBF84FF40171352090
:1048D00000E064E001F0F4F841F20A61362001F0F2
:1048E000EFF840F20771372001F0EAF84FF48371D6
:1048F000382001F0E5F840F20771392001F0E0F8C6
:1049000040F202413C2001F0DBF840F60F413D202F
:1049100001F0D6F80021502001F0D2F8EF2151200B
:1049200001F0CEF80021522001F0CAF840F23F1108
:10493000532001F0C5F84FF41C51602001F0C0F87D
:104940000121612001F0BCF800216A2001F0B8F8D3
:104950000021802001F0B4F80021812001F0B0F89E
:104960000021822001F0ACF80021832001F0A8F89A
:104970000021842001F0A4F80021852001F0A0F896
:104980001021902001F09CF84FF4C061922001F0BA
:1049900097F840F23311072001F092F883E4894838
:1049A000808845F2084188427ED14FF48071012011
:1049B00001F086F84FF4E061022001F081F841F245
:1049C0003001032001F07CF80021042001F078F888
:1049D00040F20721082001F073F80021092001F0BE
:1049E0006FF800210A2001F06BF800210C2001F083
:1049F00067F800210D2001F063F800210F2001F07D
:104A00005FF8142005F078F941F2B061102001F050
:104A100057F80121112001F053F80121172001F06E
:104A20004FF84FF49C71122001F04AF84FF40061E6
:104A3000132001F045F80921292001F041F809214E
:104A40002A2001F03DF80021A42001F039F80021CE
:104A5000502001F035F8EF21512001F031F800210C
:104A6000522001F02DF840F23F11532001F028F8B8
:104A70004FF41C51602001F023F80121612001F066
:104A80001FF800216A2001F01BF80021802001F0AE
:104A900017F80021812001F013F80021822001F095
:104AA0000FF80021832000E023E001F009F8002145
:104AB000842001F005F80021852001F001F8132180
:104AC000902000F0FDFF0021922000F0F9FF03216B
:104AD000932000F0F5FF4FF48871952000F0F0FF6F
:104AE00040F27311072000F0EBFF322005F004F9CB
:104AF000B8E43448808841F2055188427ED10021D3
:104B0000072000F0DDFF322005F0F6F84FF48E713B
:104B1000122000F0D5FF0121A42000F0D1FF0F21C9
:104B2000082000F0CDFF08210A2000F0C9FF08216D
:104B30000D2000F0C5FF40F20771302000F0C0FFEB
:104B40000721312000F0BCFF40F20361322000F069
:104B5000B7FF4FF4E061332000F0B2FF40F20221D2
:104B6000342000F0ADFF0221352000F0A9FF41F60E
:104B70000F71362000F0A4FF40F20771372000F0DB
:104B80009FFF0021382000F09BFF0021392000F01A
:104B900097FF40F207713A2000F092FF00213B207E
:104BA00000F08EFF07213C2000F08AFF00213D200D
:104BB00000F086FF322005F09FF80121072000F069
:104BC0007FFF01E07C0200200121172000F078FF28
:104BD000322005F091F84FF4BD51102000F070FF25
:104BE00040F21721112000F06BFF4FF48F7112205B
:104BF00000F066FF4FF47061132000E097E000F0D2
:104C00005FFF00212A2000F05BFF0A21292000F02D
:104C100057FF4FF49F71122000F052FF00215020E7
:104C200000F04EFFEF21512000F04AFF00215220FA
:104C300000F046FF40F23F11532000F041FF4FF4D7
:104C40001C51602000F03CFF0121612000F038FF82
:104C500000216A2000F034FF0021802000F030FFA6
:104C60000021812000F02CFF0021822000F028FF8D
:104C70000021832000F024FF0021842000F020FF89
:104C80000021852000F01CFF1321902000F018FF68
:104C90004FF44071922000F013FF0521932000F0A3
:104CA0000FFF0021952000F00BFF0021972000F05E
:104CB00007FF0021982000F003FF4FF480710120CE
:104CC00000F0FEFE4FF4E061022000F0F9FE41F238
:104CD0003801032000F0F4FE0021042000F0F0FE73
:104CE00000210C2000F0ECFE00210F2000F0E8FE77
:104CF0000021202000F0E4FE0021212000F0E0FE51
:104D00002121072000F0DCFE142004F0F5FF6121D2
:104D1000072000F0D5FE142004F0EEFF40F27311DE
:104D2000072000F0CDFE142004F0E6FF95E4FE48D5
:104D300080884BF2055188427ED10021084600F060
:104D4000BFFE0021084600F0BBFE0021084600F02F
:104D5000B7FE0021084600F0B3FE0121A42000F0B8
:104D6000AFFE142004F0C8FF4FF41C51602000F087
:104D7000A7FE40F20221082000F0A2FE4FF40571C8
:104D8000302000F09DFE43F21571312000F098FEB6
:104D900040F20461322000F093FE40F616613320A9
:104DA00000F08EFE42F21121342000F089FE4FF413
:104DB000A851352000F084FE48F20751362000F05B
:104DC0007FFE41F20741372000F07AFE41F20341B5
:104DD000382000F075FE2021392000F071FE1A21E4
:104DE000902000F06DFE0021102000F069FE0721E8
:104DF000112000F065FE0021122000F061FE00216C
:104E0000132000F05DFE142004F076FF4FF4E661FD
:104E1000102000F055FE40F23711112000F050FE36
:104E2000142004F069FF4FF4DC71122000F048FEFA
:104E3000142004F061FF00E083E04FF47061132060
:104E400000F03EFE80212A2000F03AFE4821292071
:104E500000F036FE142004F04FFF4FF48071012063
:104E600000F02EFE4FF4E061022000F029FE41F236
:104E70003801032000F024FE40F20221082000F057
:104E80001FFE00210A2000F01BFE00210C2000F074
:104E900017FE00210D2000F013FE30210E2000F03F
:104EA0000FFE0021502000F00BFEEF21512000F0FA
:104EB00007FE0021522000F003FE40F23F11532074
:104EC00000F0FEFD4FF41C51602000F0F9FD0121BF
:104ED000612000F0F5FD00216A2000F0F1FD1121B4
:104EE000902000F0EDFD4FF4C061922000F0E8FD4D
:104EF00040F20241932000F0E3FD0221942000F0F3
:104F0000DFFD142004F0F8FE0121072000F0D8FD99
:104F1000142004F0F1FE6121072000F0D1FD40F2E1
:104F20007311072000F0CCFD0021202000F0C8FD07
:104F30000021212000F0C4FD2221002000F0C0FD4E
:104F40000EE3794880884CF2055188427ED10021D9
:104F5000084600F0B5FD0021084600F0B1FD142020
:104F600004F0CAFE0021084600F0AAFD0021084610
:104F700000F0A6FD0021084600F0A2FD0021084631
:104F800000F09EFD0121A42000F09AFD142004F001
:104F9000B3FE4FF41C51602000F092FD40F6060174
:104FA000082000F08DFD40F20371302000F088FDF4
:104FB0000121312000F084FD0421322000F080FD29
:104FC0004FF48171332000F07BFD4FF440713420A9
:104FD00000F076FD40F20311352000F071FD1F2135
:104FE000362000F06DFD40F20371372000F068FDBF
:104FF0000121382000F064FD0421392000F060FD1B
:105000001521902000F05CFD4FF48261102000F02B
:1050100057FD40F24721112000F052FD4FF4DE71A0
:10502000122000F04DFD4FF46061132000F048FDA8
:10503000782004F061FE4FF48071012000F040FD03
:105040004FF40071022000F03BFD00E050E041F21F
:105050003001032000F034FD08210A2000F030FD6B
:1050600000210C2000F02CFD20210E2000F028FD56
:1050700000210F2000F024FD0021202000F020FD61
:105080000021212000F01CFD3D212A2000F018FD08
:10509000142004F031FE2D21292000F011FD002103
:1050A000502000F00DFD4DF2EF01512000F008FD01
:1050B0000021522000F004FD40F23F11532000F087
:1050C000FFFC0021612000F0FBFC00216A2000F0C1
:1050D000F7FC4FF44071922000F0F2FC0521932080
:1050E00000F0EEFC4FF48071072000F0E9FC37E29D
:1050F0000D48808844F2315188427CD10121002042
:1051000000F0DEFC0A2004F0F7FD41F228611020D7
:1051100000F0D6FC0E21122000F0D2FC40F639211E
:10512000132000F0CDFC01E07C0200200A2004F0F6
:10513000E3FD4021112000F0C3FC5021152000F0B8
:10514000BFFC0A2004F0D8FD1E21122000F0B8FC9C
:105150000A2004F0D1FD4FF4B151102000F0B0FC52
:1051600042F63921132000F0ABFC0A2004F0C4FD04
:105170004FF48071012000F0A3FC4FF44071022035
:1051800000F09EFC41F23801032000F099FC40F24F
:105190000221082000F094FC08210A2000F090FC75
:1051A0000021302000F08CFC40F20241312000F060
:1051B00087FC4FF48371322000F082FC40F20351EF
:1051C000332000F07DFC4FF48271342000F078FC35
:1051D00040F20131352000F073FC40F207713620B7
:1051E00000F06EFC40F20531372000F069FC4FF40E
:1051F0000271382000E040E000F062FC40F60B71E4
:10520000392000F05DFC0221412000F059FC4FF4F0
:105210001C51602000F054FC0121612000F050FC82
:105220004FF40471902000F04BFC4FF485719220F4
:1052300000F046FC0421932000F042FC4FF4807102
:10524000A02000F03DFC0121072000F039FC2121C5
:10525000072000F035FC2321072000F031FC33212A
:10526000072000F02DFC40F23311072000F028FC4D
:105270000021A02000F024FC72E1BF48808844F2A5
:10528000355188427ED13021152000F019FC1021C3
:105290009A2000F015FC2021112000F011FC43F2AF
:1052A0002841102000F00CFC0221122000F008FC24
:1052B00041F23801132000F003FC282004F01CFD0B
:1052C0001221084600F0FCFB282004F015FD43F2F3
:1052D0002041102000F0F4FB43F23801132000F0CD
:1052E000EFFB462004F008FD0021302000F0E8FB31
:1052F00040F20241312000F0E3FB40F2073132205E
:1053000000F0DEFB4FF44171332000F0D9FB0421A3
:10531000342000F0D5FB40F20141352000F0D0FBF5
:1053200040F20771362000F0CBFB40F20531372008
:1053300000F0C6FB4FF4C261382000F0C1FB4FF40F
:10534000C261392000F0BCFB4FF48071012000F0F5
:10535000B7FB4FF44071022000F0B2FB41F2300184
:10536000032000F0ADFB40F60801082000F0A8FB88
:1053700008210A2000F0A4FB4FF41C51602000F02B
:105380009FFB00E031E00121612000F099FB4FF428
:105390009F71902000F094FB4FF48071922000F0F8
:1053A0008FFB4FF48071932000F08AFB4FF4405143
:1053B000A02000F085FB1021A32000F081FB01213B
:1053C000072000F07DFB2121072000F079FB23213D
:1053D000072000F075FB3321072000F071FB40F23D
:1053E0003311072000F06CFBBAE06348808841F677
:1053F00063118842F8D1E22000F052FB232000F034
:1054000049FB022000F046FB042000F043FB64202F
:1054100004F098FCE02000F043FB012000F03AFB90
:105420000A2004F069FCE02000F03AFB032000F0C1
:1054300031FB0C2004F060FC012000F031FB0A205D
:1054400004F05AFCE62000F02BFB032000F022FBC6
:10545000FF2000F01FFBFF2000F01CFBB02000F03D
:105460001FFB202000F016FB002000F013FB0320A0
:1054700000F010FB40F21F3000F00CFB012000F0A8
:1054800009FB40F2DF1000F005FB002000F002FBFA
:10549000B42000F005FB042000F0FCFA40F21F40AD
:1054A00000F0F8FA002000F0F5FAD22000F0F2FA4D
:1054B000002000F0EFFA002000F0ECFA002000F0ED
:1054C000E9FA002000F0E6FAB62000F0E9FA02203E
:1054D00000F0E0FA4FF4037000F0DCFA002000F076
:1054E000D9FA222000F0D6FA092000F0D3FA0020E1
:1054F00000F0D0FA002000F0CDFAF02000F0D0FA51
:10550000032000F0C7FA292000F0CAFAD02000F0EA
:10551000C7FA002000F0BEFABE2000F0C1FA052054
:1055200000F0B8FAFE2000F0B5FA012000F0B2FA5F
:10553000FF2000F0AFFA002000F0ACFAB82000F035
:10554000AFFA0F2000F0A6FA012000F0A3FABA206B
:1055500000F0A6FA012000F09DFA642000F026F881
:105560000020FCF777FB0120044908604FF6FF702C
:10557000FCF73AFB1FB000BD7C0200208081214275
:1055800008B5034800880090BDF8000008BD000081
:105590000008006C10B50446204600F081FA052092
:1055A00004F0D0FBFFF7ECFF10BD00002DE9F04741
:1055B0000446BE2000F074FA052000F06BFA204685
:1055C00007F065F807464FF066320C4B07F072F8AB
:1055D000054607F02FF81FFA80F9484600F05AFAFE
:1055E000012000F057FAFF2000F054FA002000F0EC
:1055F00051FA002000F04EFABDE8F08766660440DC
:1056000070B5044600230026B748807901280BD1E5
:10561000B548808846F60401884205D0B2488088A3
:1056200041F66311884208D1AF488079F0B9AE489D
:10563000808841F66311884218D1082C15D2DFE822
:1056400004F00406080A0C0E101206240DE00724CC
:105650000BE0042409E0052407E0012405E0002410
:1056600003E0032401E0022400BF00BF9E488088BD
:1056700049F24131884217D09B48808846F60401A0
:10568000884211D09848808845F2103188420BD06A
:105690009548808845F21051884205D0924880880C
:1056A00041F6631188427DD1082C1CD2DFE804F05A
:1056B0000406090C0F12151800BF14E043F0800314
:1056C00011E043F040030EE043F0C0030BE043F071
:1056D000200308E043F0600305E043F0A00302E08C
:1056E00043F0E00300BF00BF7F48808845F21051BF
:1056F000884202D14FF4585600E036267A48808816
:1057000045F2103188420DD07748808845F210511B
:10571000884207D07448808841F66311884201D0DE
:1057200043F008037048808846F60401884201D19E
:1057300043F002031946304600F0C2F96A488088F7
:1057400041F6631188421DD003F0200068B166481D
:10575000008865494988884214DA6348058840888A
:1057600061490880084645800CE05F4800885E4932
:105770004988884206DD5C48058840885A49088087
:10578000084645805848808845F21051884254D1D7
:105790005549488900F084F9002000F07BF952490E
:1057A000498900E078E0491C88B200F079F90020CE
:1057B00000F070F94C494989891C88B200F070F9F1
:1057C00049490988491EC1F30F2000F063F9464991
:1057D0004989C91C88B200F063F943490978491E18
:1057E000C8B200F057F94049888900F059F9002003
:1057F00000F050F93C498989491C88B200F050F901
:10580000002000F047F938498989891C88B200F0E6
:1058100047F935494988491EC1F30F2000F03AF98C
:1058200031498989C91C88B200F03AF92E49897832
:10583000491EC8B200F02EF955E02B49488900F006
:105840002FF9002000F026F9002000F023F9264966
:105850000988491EC1F30F2000F01CF9224909787C
:10586000491EC8B200F016F91F49888900F018F9DE
:10587000002000F00FF9002000F00CF91A494988C7
:10588000491EC1F30F2000F005F917498978491E18
:10589000C8B200F0FFF826E0082C1CD2DFE804F0C4
:1058A00004070A0D0F12151843F0300313E043F0FC
:1058B000100310E043F020030DE000BF0BE043F0C5
:1058C000380308E043F0280305E043F0180302E042
:1058D00043F0080300BF00BF032643F4805319467A
:1058E000304600F0EDF870BD7C02002010B5034694
:1058F0000C466748808849F24131884205D06448A7
:10590000808845F21031884214D16149488900F0FD
:10591000C7F8181200F0BEF8D8B200F0BBF85C4926
:10592000888900F0BDF8201200F0B4F8E0B200F071
:10593000B1F8ABE05648808846F6040188421DD194
:1059400053488079012804D151480088401EC01A6C
:1059500083B24F49488900F0A3F8181200F09AF872
:10596000D8B200F097F84A49888900F099F82012D7
:1059700000F090F8E0B200F08DF887E044488088AD
:1059800041F66311884247D141488079A8B940481F
:105990000088401EC01A83B23D49488900F080F853
:1059A000002000F077F8002000F074F8181200F0E2
:1059B00071F8D8B200F06EF816E03549488900F069
:1059C0006FF8181200F066F8D8B200F063F83049AA
:1059D0000988491EC1F30F2000F05CF82C490978B2
:1059E000491EC8B200F056F82949888900F058F8D5
:1059F000201200F04FF8E0B200F04CF8244949883A
:105A0000491EC1F30F2000F045F821498978491E4D
:105A1000C8B200F03FF839E01D48808845F21051C7
:105A2000884220D11A49488900F03AF8181200F04B
:105A300031F817494989491C88B200F031F8D8B2C9
:105A400000F028F81249888900F02AF8201200F0A6
:105A500021F80F498989491C88B200F021F8E0B289
:105A600000F018F812E00A488079012804D10848AB
:105A70000088401EC01A83B205494889194600F0C3
:105A80001FF803498889214600F01AF810BD00006C
:105A90007C02002001490880704700000008006C6B
:105AA0000149088070470000FE07006C0248008929
:105AB00002490880704700007C020020FE07006C4D
:105AC000024A1080921C118070470000FE07006C93
:105AD00008B50121482000F01DFC2020ADF8000091
