:020000040800F2
:10000000E0C6002015020008F1620008211A00086D
:10001000ED620008090700080197000800000000D1
:100020000000000000000000000000002988000817
:10003000A51400080000000029650008659100086B
:100040002F0200082F0200082F0200082F020008CC
:100050002F0200082F0200082F0200082F020008BC
:100060002F0200082F0200082F0200082F020008AC
:100070002F0200082F0200082F0200082F0200089C
:100080002F0200082F0200082F0200082F0200088C
:10009000019600082F0200082F0200082F02000816
:1000A0002F0200082F0200082F0200082F0200086C
:1000B0002F0200082F0200082F0200082F0200085C
:1000C0002F0200082F0200082F0200082F0200084C
:1000D0002F020008019200082F0200082F020008DA
:1000E0002F0200082F020008239400082F020008A6
:1000F0002F0200082F0200082F0200082F0200081C
:100100002F020008D56E00082F0200082F020008F9
:100110002F0200082F0200082F0200082F020008FB
:100120002F0200082F0200082F0200082F020008EB
:1001300000F002F800F05FF80AA090E8000C82449A
:100140008344AAF10107DA4501D100F054F8AFF277
:10015000090EBAE80F0013F0010F18BFFB1A43F0A5
:100160000103184784BB0000A4BB00000A444FF001
:10017000000C10F8013B13F0070408BF10F8014B06
:100180001D1108BF10F8015B641E05D010F8016B4B
:10019000641E01F8016BF9D113F0080F1EBF10F8AF
:1001A000014BAD1C0C1B09D16D1E58BF01F801CBD2
:1001B000FAD505E014F8016B01F8016B6D1EF9D555
:1001C0009142D6D37047000000230024002500266A
:1001D000103A28BF78C1FBD8520728BF30C148BFAA
:1001E0000B607047782900F01181002070471FB51F
:1001F0001FBD10B510BD00F037FA1146FFF7F7FF2D
:1002000009F066FD00F055FA03B4FFF7F2FF03BCF6
:1002100009F0D6FC0948804709480047FEE7FEE799
:10022000FEE7FEE7FEE7FEE7FEE7FEE7FEE7FEE7A6
:1002300004480549054A064B7047000069910008CB
:1002400031010008E0C00020E0C60020E0C200202C
:10025000E0C20020704753EA020C00F069802DE9EB
:10026000F04B4FF00006002B1FBFB3FA83F503FAE3
:1002700005F424FA05F65E4012BF1643B2FA82F581
:1002800002FA05F4C5F120051EBF22FA05FC44EA76
:100290000C04203556EA044C4FEA144418BF641C81
:1002A0004FF000084FF00009904271EB030C39D376
:1002B000002919BFB1FA81F701FA07F6B0FA80F701
:1002C00000FA07F6C7F120071EBF20FA07FC46EA2E
:1002D0000C062037B6FBF4FCA7EB0507103F07F030
:1002E0001F0BCBF120060CFA0BFB2CFA06F644BFD1
:1002F000B3460026202FA4BF5E464FF0000B5BEAFA
:10030000060C08BF4FF0010B19EB0B09ABFB027C8D
:1003100048EB0608C01B06FB02CC0BFB03CC71EBC1
:100320000C01C1E70B46024641464846BDE8F08B4A
:1003300013B54FF000004FF00001AFF30080BDE8AF
:100340001C40704710B54C1084EA530404D5404259
:10035000C1F1000138BF491E1B4204D55242C3F10E
:10036000000338BF5B1EFFF776FF14F0804F04D008
:100370004042C1F1000138BF491E14F0004F04D0C3
:100380005242C3F1000338BF5B1E10BD0FB40449D5
:1003900010B503AA029800F007F910BC5DF814FB31
:1003A000300000202DE9F0410E4604460020206276
:1003B0002046E168884730B3252805D0D4E90121DB
:1003C0009047206A401CF2E7E168204600278847F2
:1003D000050018D0A5F14100192802D820354FF4A6
:1003E00000673246294620462760FFF7FBFE40B1F2
:1003F000012804D0F61D26F007060836D8E7361D7A
:10040000D6E72846DAE7206ABDE8F08170B50446F1
:100410000D4621461068AFF300802188090502D5FA
:100420000F4A7A4402E00E4A7A440E32002104F167
:10043000240305E000F00F060009965D5E54491C98
:100440000028F7D120780023000704D5702D02D0B2
:1004500009B1022311322046BDE8704000F04BB8CC
:1004600098B80000032A40F2308010F0030C00F02E
:10047000158011F8013BBCF1020F624498BF11F8DE
:1004800001CB00F8013B38BF11F8013BA2F1040297
:1004900098BF00F801CB38BF00F8013B11F003030F
:1004A00000F09480083AC0F0088051F8043B083A04
:1004B00051F804CBA0E80810F5E7121D5CBF51F815
:1004C000043B40F8043BAFF30080D20724BF11F88F
:1004D000013B11F801CB48BF11F8012B24BF00F8F4
:1004E000013B00F801CB48BF00F8012B7047704773
:1004F0007047704770472DE9F0470D469946924680
:10050000044600F124080168880604D5E06921F05A
:100510001001216000E00120A84201DD471B00E03E
:100520000027A1697A1902EB0900081AA061207856
:10053000C00602D42046AFF30080002608E0D4E9CC
:1005400001211AF806009047206A401C761C2062A0
:100550004E45F4DB2078C0060AD52046AFF3008074
:1005600006E0D4E9012130209047206A401C206237
:10057000381EA7F10107F4DC07E0D4E9012118F8DF
:1005800005009047206A401C2062281EA5F1010545
:10059000F3DC2046AFF300802078000602D502206D
:1005A000BDE8F0870120FBE7074B70B50D467B44A3
:1005B00000F043F80446284600F052F810B14FF01E
:1005C000FF3070BD204670BD0397000010B5203A83
:1005D000C0F00B80B1E81850203AA0E81850B1E8FC
:1005E0001850A0E81850BFF4F5AF5FEA027C24BFB2
:1005F000B1E81850A0E8185044BF18C918C0BDE8A9
:1006000010405FEA827C24BF51F8043B40F8043B71
:1006100008BF7047D20728BF31F8023B48BF11F826
:10062000012B28BF20F8023B48BF00F8012B704780
:1006300001694A1C02610878704700B58FB0CDE9A6
:1006400001310021059105497944CDE90310114696
:100650006846FFF7A7FE0FB000BD0000E5FFFFFFF3
:10066000007B00F080007047754600F029F8AE4628
:1006700005006946534620F00700854618B020B5AE
:10068000FFF7D6FDBDE820404FF000064FF0000711
:100690004FF000084FF0000B21F00701AC46ACE82A
:1006A000C009ACE8C009ACE8C009ACE8C0098D4697
:1006B00070470446AFF300802046FFF7A5FD000019
:1006C0000048704780C0002010B5044624B1012CBA
:1006D00007D0022C15D10AE01021012008F066F99C
:1006E00010E04FF48051022008F008F90AE01021D0
:1006F000012008F05BF94FF48051022008F0FEF869
:1007000000E000BF00BF10BD00BFFEE70146CAB257
:100710000B1243EA0220704710B5002405E0A848F8
:100720000068005DA7490855641CA74800888442FA
:10073000F5D3A4484068A5494860A248806888600D
:10074000A14800881F280FD00220FFF7BDFF00201E
:100750009C490860487B1A22052108F0EBF900212A
:10076000012008F0C9F910BD9648C07B282803D0A5
:100770009448C07B2A2816D19248407C01069148B3
:10078000807C41EA00418F48C07C41EA00208D49CD
:10079000097D08438E4908608A48C17D807D41EA11
:1007A00000208C490860874800688B4988426FD1D7
:1007B0008448407B89490968884207D88148807B02
:1007C000012803DB7F48807B10280DDD0220FFF726
:1007D0007BFF7C49487B2422052108F0ABF90021EE
:1007E000012008F089F9E8E07648C07B25285FD031
:1007F0001BDC15286FD00EDC08286DD006DC002825
:100800005BD0032830D0042867D176E00A286ED068
:100810001228F9D12DE01A380A285ED2DFE800F05C
:10082000392EB17D33B1B1B1B1438A286FD00EDC1E
:10083000552867D006DC282844D02A284ED02F28F7
:10084000E2D155E05A2829D08828DDD176E0A828C1
:100850006DD004DC8F286FD09E28D5D173E0AA28F4
:100860007BD0AF28D0D182E05649487B06F0EEF924
:1008700095E05449487B06F0C1F890E05149487B27
:1008800006F0F8F98BE04F49487B06F0F3F986E073
:1008900086E04C49487B06F001F980E04949487BF5
:1008A00006F0F2F87BE04749487B06F08BF976E0EA
:1008B0004449487B06F038F971E04249487B06F02C
:1008C000E1F96CE03F49487B42490A6840490968C0
:1008D00006F0EEF863E01BE024E052E03949487B83
:1008E0003C490A683A49096806F008FA57E02FE0DF
:1008F0003449487B06F0E2F951E03249487B06F082
:1009000065F84CE02F49487B06F09CF847E029E069
:100910002C49487B06F096F841E02A49487B06F0CE
:1009200091F83CE02749487B06F08CF837E02549F0
:10093000487B06F087F832E01EE00EE02149487B54
:1009400006F080F82BE01F49487B06F07BF826E094
:100950001C49487B06F076F821E01A49487B06F0EE
:1009600071F81CE01749487B06F06CF817E0154950
:10097000487B06F067F812E01249487B06F062F8FF
:100980000DE00220FFF7A0FE0E49487B2022052142
:1009900008F0D0F80021012008F0AEF800BF0CE00C
:1009A0000220FFF791FE0749487B2022052108F02D
:1009B000C1F80021012008F09FF800BFD3E6000035
:1009C0005401002030C000205801002050C00020F9
:1009D0005C0100206001002055534243BC0100200F
:1009E00008B50020009022E19748008800F00F0031
:1009F000964908700846007800287CD19448006821
:100A0000944908800846008800F030009249088028
:100A10009048008800F440508E4908808C4909684D
:100A20004BF6BF7201EA020080F4005080F0200013
:100A300040F4004141F08001854A116082480088FD
:100A400000F0100090BB1046006848F60F71084097
:100A50001146086000F0EAFF7D4909684BF6BF7255
:100A600001EA02007B49098801F4805109B180F450
:100A700080507849098801F4005109B180F4005090
:100A80007549098801F0100109B180F01000724920
:100A9000098801F0200109B180F0200081B241F401
:100AA000004141F080016A4A116008BDFFE76848D3
:100AB000006880B20090BDF8000000F40060B0B3A0
:100AC00063480068C0F30E0048F68F710840604923
:100AD000086008F03FF85E4909684BF6BF7201EA0A
:100AE00002005C49098801F4805109B180F480500A
:100AF0005849098800E056E001F4005109B180F43A
:100B000000505549098801F0100109B180F010002A
:100B10005149098801F0200109B180F0200081B21B
:100B200041F4004141F08001494A1160BDE7FFE70F
:100B3000BDF8000000F40040002878D04448006868
:100B4000C0F30E0048F68F7108404149086005F077
:100B5000AFFC3F4909684BF6BF7201EA02003D490C
:100B6000098801F4805109B180F48050394909881D
:100B700001F4005109B180F400503749098801F0AF
:100B8000100109B180F010003349098801F02001FB
:100B900009B180F0200081B241F4004141F08001B0
:100BA0002B4A116081E7294800782C4901EB80002D
:100BB000D0F8000C80B20090BDF8000000F40040B6
:100BC000C0B12248007801EB8000D0F8000CC0F3DF
:100BD0000E0048F68F7108401C4909781F4A02EB45
:100BE0008101C1F8000C19490978491E1C4A52F8C4
:100BF00021008047BDF8000000F08000B8B1134824
:100C00000078164901EB8000D0F8000C48F60F710F
:100C100008400E490978114A02EB8101C1F8000C25
:100C20000A490978491E0F4A52F8210080470848AE
:100C30004430006880B20449088000F40040002875
:100C40007FF4D2AE00BF30E7800100206C000020AE
:100C5000005C004080000020820000200050004026
:100C6000A0010020840100200B4A02EB8001D1F892
:100C7000001C01F4804171B102EB8001D1F8001C2D
:100C800048F68F7211404CF280021143024B03EB85
:100C90008002C2F8001C7047005000400B4A02EB73
:100CA0008001D1F8001C01F0400171B102EB80011C
:100CB000D1F8001C48F68F72114048F2C00211436F
:100CC000024B03EB8002C2F8001C7047005000404A
:100CD000084A02EB8001D1F8001C48F68F621140EF
:100CE00048F280021143034B03EB8002C2F8001C60
:100CF000704700000050004070B500254FF480346C
:100D000004E0802006F0D2F800B103E02000A4F156
:100D10000104F6D100BF0CB9032070BD40F2FF50B2
:100D200006F07EF82846F8E770B5044605E0154859
:100D3000456B05F0450000B100E0F8E700BF042076
:100D400006F0B4F820B1042006F06AF8032070BD64
:100D5000012006F0ABF820B1012006F061F8012077
:100D6000F5E708480069A04201D01020EFE740F203
:100D7000FF50044988630846406908210840C0B212
:100D8000E5E700000080014070B500264FF4803593
:100D900005E01148446B04F0450000B103E0280071
:100DA000A5F10105F5D100BF15B104F0040028B18B
:100DB0000326042006F034F8304670BD012006F00A
:100DC00075F818B10126012006F02AF840F2FF500C
:100DD00006F026F83046F0E70080014010B505E047
:100DE0000B48446B04F0450000B100E0F8E700BF99
:100DF000042006F05BF820B1042006F011F803206F
:100E000010BD40F2FF5006F00BF80020F8E700009C
:100E1000008001402DE9F04105460E464FF00008E4
:100E200005E01F48476B07F0450000B100E0F8E718
:100E300000BF042006F03AF828B1042005F0F0FFC6
:100E40000320BDE8F081012006F030F820B1012038
:100E500005F0E6FF0120F4E711480069A84201D03F
:100E60001020EEE740F2FF5005F0DAFF0C4844692D
:100E700004F4604018B9200C30804046E1E704F4E7
:100E8000005008B11320DCE704F4804008B11020C2
:100E9000D7E704F4004008B10F20D2E74046D0E77E
:100EA0000080014070B500264FF4803505E00F4802
:100EB000446B04F0450000B103E02800A5F10105F2
:100EC000F5D100BF15B104F0040028B103260420B9
:100ED00005F0A6FF304670BD04F0400018B10026B2
:100EE000402005F09DFF3046F5E7000000800140FE
:100EF00021B1026842F00102026004E002684FF68C
:100F0000FE731A400260704701684FF6FE7211408E
:100F100001600021016041608160C1604B498842ED
:100F200008D14A490839496841F00F01474A083A4F
:100F300051608AE045491431884208D14349083953
:100F4000496841F0F001414A083A51607DE03F496B
:100F50002831884208D13D490839496841F4706117
:100F60003A4A083A516070E038493C31884208D129
:100F700036490839496841F47041344A083A5160A9
:100F800063E032495031884208D130490839496814
:100F900041F470212D4A083A516056E02B496431E2
:100FA000884208D129490839496841F47001274A23
:100FB000083A516049E025497831884208D12349EF
:100FC0000839496841F07061204A083A51603CE0B4
:100FD0001F49884206D1011F096841F00F01021F15
:100FE000116032E01A491431884208D11849091FAA
:100FF000096841F0F001164A121F116025E01449FA
:101000002831884208D11249091F096841F47061EA
:101010000F4A121F116018E00D493C31884208D177
:101020000B49091F096841F47041094A121F1160F8
:101030000BE007495031884207D10549091F09686B
:1010400041F47021024A121F1160704708000240EB
:101050000804024010B50022026847F6F0739A4374
:101060000C6A8B6823430C6923434C6923438C69C6
:101070002343CC6923434C6A23438C6A23431A439A
:101080000260CB6843600B6883604B68C36010BD2F
:101090002DE9F0472848006800F110052E88264801
:1010A0000068077AD6B9042F18D12448007801289F
:1010B0000FD100212248006880B2801C214A42F8EA
:1010C000101030202049088000BF00201B49087004
:1010D00003E0072710201C49088027E0AC88A642BF
:1010E00001D8042000E002200746B44200D934466B
:1010F000A0B2A96888478046002000F059FC8146CC
:10110000A2B24946404608F0FDFAA1B2002007F01D
:101110003FFC2888001B2880688820446880302095
:101120000949088000020949088000BF024909688E
:101130000F72BDE8F0870000700000206A000020F8
:10114000505C0040006000408200002080000020D1
:101150002DE9F0412848006800F110042688A068B5
:10116000C0B1BEB1A588B54200D93546A8B2A168C4
:10117000884707462088401B20806088284460807C
:10118000002000F0E7FB8046AAB24146384605F051
:10119000B7F900BF208850B14FF44050174908807C
:1011A0000021084607F0F4FB30201549088020880C
:1011B000A188884204DB03200F490968087218E0FF
:1011C0002088002804DD05200B490968087210E01A
:1011D000208870B90620084909680872002109486A
:1011E000006880B2801C084A42F810103020044980
:1011F0000880BDE8F0810000700000208000002021
:1012000082000020505C0040006000402DE9F84F53
:101210009B48006845780027BA46062D1BD19848A0
:101220000068007800F07F00002813D19449096815
:101230008878012803D193490968CF690AE0022818
:1012400003D1904909680F6A04E0032802D18D494F
:1012500009684F6A94E0002D64D18948006840888D
:1012600000285FD186480068C08802285AD1844887
:1012700000680079002855D181480068007800F0A6
:101280007F0028B97E480068808808B97E4F77E0E3
:101290007B480068007800F07F00012810D1784971
:1012A00009684879774909688A69002190470028C8
:1012B00066D173480068807A002861D0724F5FE081
:1012C0006F480068007800F07F00022858D16C4811
:1012D0000068407900F00F0669480068407900F026
:1012E000700967480068407900F0800038B16749AC
:1012F00001EB8600D0F8000C00F0300806E06349EE
:1013000001EB8600D0F8000C00F4405860480078EB
:10131000B04235D9B9F1000F32D1B8F1000F2FD05A
:10132000594F2DE0082D07D155480068007800F08E
:101330007F0028BB574F23E00A2D21D15048006879
:10134000007800F07F0001281AD14D480068807AAB
:10135000B0B14B480068408890B9494800680079AE
:1013600070B947480068C088012809D14449096814
:101370004879444909688A690021904700B9464F75
:1013800057B13F480068A0F812A03D480068876147
:101390000020B84700240FE0394A12685078394AD3
:1013A0001268116988470446032C05D10920344985
:1013B00009680872BDE8F88F31480068008A4FF666
:1013C000FF71884204D109202D4909680872F1E7AC
:1013D000022C03D02A480068008A20B90820284936
:1013E00009680872E6E726480068007800F0800087
:1013F000E0B323480068C088009021480068008A54
:101400000099884204D91E4900980968088223E09F
:101410001B480068008A1A490968C98888421BDA93
:1014200017480068008A1749096891F82C1088420B
:1014300003DA0020194908700EE011480068008A9C
:101440001049096891F82C1090FBF1F201FB120091
:1014500010B90120114908700A48006890F82C1052
:10146000074800688182FFF713FE07E0FFE70320CB
:1014700003490968087200030949088000BF99E719
:101480007000002074000020F58D0008005000401E
:10149000BD010020798D0008C98D00086A00002078
:1014A00080000020704710B504F058FE10BD10B544
:1014B00004F0A8FE10BD000001490860704700005C
:1014C00014040140002123498279002A3AD00A46B7
:1014D000126803689A430B461A600A1D1268036873
:1014E0009A430B1D1A60027911440A6803681A4373
:1014F0000A60184A0832126803689A43154B083389
:101500001A601A1D126803689A43124B0C331A6052
:101510004279102A0ED11A1F126803681A430D4B24
:1015200008331A601A1D126803681A43094B0C33FA
:101530001A600DE00749427911440A6803681A43AA
:101540000A6005E0027911440A6803689A430A6058
:10155000704700000004014010B503A0FEF716FF1D
:1015600003200849086010BD75736220656E7465BC
:1015700072206C6F7720706F776572206D6F646575
:101580000D0A00004C02002051B18200A2F1C042BD
:10159000126842F001038200A2F1C042136009E028
:1015A0008200A2F1C0421268034B1A408300A3F1EB
:1015B000C0431A6070470000FEFF0F00D0E901121F
:1015C0001143C268114302691143426911438269A0
:1015D0001143C2691143026A1143426A1143826A8C
:1015E0001143C26A1143026B114302689200A2F1D7
:1015F000C0421160816808290BD101688900A1F1FE
:10160000C041096841F0400201688900A1F1C04170
:101610000A60416B0968426B526841EA0211426BF1
:10162000926841EA0221426B928941EA0241426B8F
:10163000128A41EA0251426B127D41EA0261426B19
:10164000926911430268521C9200A2F1C0421160DB
:10165000C16AB1F5804F1BD1816B0968826B5268FA
:1016600041EA0211826B926841EA0221826B128A7E
:1016700041EA0251826B127D41EA0261826B9269FA
:10168000114302689200A2F1C042C2F8041107E0BF
:101690006FF0704201688900A1F1C041C1F80421D6
:1016A000704700002DE9FC4107460D460026002446
:1016B00000200090019008205B49086010204860DD
:1016C000402088600020C8604FF4806008610846B0
:1016D00005F022FC1020FFF727FB044614B120463A
:1016E000BDE8FC815148008800044F49086037205C
:1016F0004860402088600020C8604FF48060086126
:10170000084605F009FC3720FFF70EFB04460CB134
:101710002046E5E74FF0FF30454908600820486063
:10172000302088600220C8600020086101204861E4
:10173000084605F091FB00203B49086033204860D3
:10174000402088600020C8604FF48060086108462F
:1017500005F0E2FB3320FFF7E7FA04460CB1204620
:10176000BEE70CE04FF4001005F0A0FB38B105F027
:10177000CDFB4DF82600761C022E00D306E02D4846
:10178000406B40F22A6108400028EBD000BF0820DF
:1017900005F08CFB20B1082005F042FB04209FE7F8
:1017A000022005F083FB20B1022005F039FB022066
:1017B00096E7202005F07AFB20B1202005F030FBD1
:1017C00006208DE74FF4007005F070FB28B14FF450
:1017D000007005F025FB072082E740F2FF5005F07E
:1017E0001FFB00980006009901F47F4140EA0120A8
:1017F000009901F47F0140EA1120009940EA11604C
:10180000686001980006019901F47F4140EA0120D7
:10181000019901F47F0140EA1120019940EA116029
:10182000286020465CE70000801200202000002095
:1018300094120020008001402DE9F041024600256D
:101840000026002000230024002791F803C00CF09C
:101850000F0591F803C00CF0100CBCF1000F03D081
:1018600091F802C04CEA050591F800C0BCF1000FE8
:1018700031D0146800202BE04FF0010C0CFA00F37B
:10188000B1F800C00CEA03069E4220D183004FF05D
:101890000F0C0CFA03F7BC4305FA03FC4CEA0404F2
:1018A00091F803C0BCF1280F06D14FF0010C0CFADF
:1018B00000FCC2F814C00AE091F803C0BCF1480F64
:1018C00005D14FF0010C0CFA00FCC2F810C0401C0E
:1018D0000828D1D31460B1F800C0BCF1FF0F34DD8B
:1018E000546800202EE000F1080C4FF0010808FABF
:1018F0000CF3B1F800C00CEA03069E4221D183002C
:101900004FF00F0C0CFA03F7BC4305FA03FC4CEA4A
:10191000040491F803C0BCF1280F05D100F1080CB4
:1019200008FA0CF8C2F8148091F803C0BCF1480F13
:1019300007D100F1080C4FF0010808FA0CF8C2F8C2
:101940001080401C0828CED35460BDE8F0810161AE
:101950007047000001460548006880B200EBC100F6
:10196000001D034A32F8100080B27047505C0040FE
:101970000060004001460648006880B200EBC100EC
:10198000801D044A32F81000C0F3090070470000BF
:10199000505C0040006000400146044A02EB8100B8
:1019A000D0F8000C00F44050704700000050004098
:1019B00001460548006880B200EBC100034A32F8D6
:1019C000100080B270470000505C00400060004092
:1019D000014629B90120034A12681082002070478D
:1019E0000148FCE770000020BC01002070B50A48E7
:1019F0000468001D0568001D0668344454B10822BF
:101A00000649204600F04AF80422044910312846CD
:101A100000F044F870BD0000E8F7FF1F66010020E9
:101A200000BFFEE772B6704762B6704710B518483F
:101A30000068047A022C01D0042C05D1FFF728FBA2
:101A400013480068047A1CE0062C19D1104800687D
:101A5000407805280ED10E480068007800F07F001D
:101A600040B90B490968C87806F0E8FE09490968D9
:101A7000086A80470849096888688047082400E0A8
:101A80000824034909680C7204F050FD10BD0000E1
:101A9000700000207C0000207400002030B50B4650
:101AA000002100BF16E00A24B4EB107F05D93024D2
:101AB00004EB107403F8114005E0412404EB1074AA
:101AC0000A3C03F81140000100254C00641C1D5520
:101AD0004C1CE1B29142E6DB30BD00001CB504466F
:101AE00000200190009021480088000420490860EF
:101AF0000D204860402088600020C8604FF480605E
:101B00000861084605F008FA1A48406B009002E0A8
:101B10001848406B0090009800F045000028F7D06E
:101B2000012005F0C3F920B1012005F079F9012069
:101B30001CBD042005F0BAF920B1042005F070F9AD
:101B40000320F5E70B4800690D2801D01020EFE7CE
:101B500040F2FF5005F064F9064840690190019891
:101B6000C0F3432020700020E2E7000020000020A6
:101B7000801200200080014070B5044600261748FE
:101B80000588408845431548808846F60401884208
:101B900016D112488079012812D100200F4988718E
:101BA0002A2048812B2088810021084603F030FF3D
:101BB00001200A4988712B2048812A20888103E06E
:101BC0000021084603F024FF04F0E0F8002602E0BC
:101BD00003480480761CAE42FAD370BD5802002040
:101BE0000008006C10B50446002C66D16C49887161
:101BF000F02008804FF4A07048800846808849F2A1
:101C0000413188420BD06648808846F604018842FC
:101C100005D06348808845F2103188421AD12C20C3
:101C20005F4908812A2048812B20888108468088C6
:101C300046F60401884205D05948808845F21031A3
:101C4000884206D14FF4A070554908804FF4F070D7
:101C50004880A1E05248808845F21051884210D156
:101C60004FF430504E4908814FF4285048814FF4CA
:101C70002C5088814FF4F07008804FF448704880F1
:101C80008AE04748808841F6631188420DD12C20B4
:101C9000434908812B2048812A2088814FF4F07025
:101CA00008804FF44870488076E022203C49088143
:101CB00020204881212088816EE0012038498871E8
:101CC0004FF4A0700880F02048800846808849F2D0
:101CD0004131884205D03248808845F2103188422F
:101CE00007D12C202E4908812A2048812B20888169
:101CF0003FE02B48808846F60401884207D12C201B
:101D0000274908812B2048812A20888131E02448F6
:101D1000808845F21051884210D14FF4305020494C
:101D200008814FF4285048814FF42C5088814FF49B
:101D3000487008804FF4F07048801AE01848808896
:101D400041F6631188420DD12C20154908812A20C3
:101D500048812B2088814FF4487008804FF4F07040
:101D6000488006E022200E49088121204881202059
:101D700088810B48808846F60401884205D00848CF
:101D8000808845F21031884206D14FF4F070044942
:101D900008804FF4A0704880002003F0C3FC10BD01
:101DA0005802002030B503460C4615465A48808834
:101DB00049F24131884205D05748808845F21031B8
:101DC000884214D15449488903F0DAFF181203F00D
:101DD000D1FFD8B203F0CEFF4F49888903F0D0FF7E
:101DE000201203F0C7FFE0B203F0C4FF8CE04A48C2
:101DF000808845F21051884220D14749488903F034
:101E0000BFFF181203F0B6FF43494989491C88B245
:101E100003F0B6FFD8B203F0ADFF3F49888903F065
:101E2000AFFF201203F0A6FF3B498989491C88B205
:101E300003F0A6FFE0B203F09DFF65E0364880881E
:101E400041F66311884228D13348807920B932485D
:101E50000088401EC01A83B22F49488903F090FFC2
:101E6000181203F087FFD8B203F084FF181203F0B2
:101E700081FFD8B203F07EFF2749888903F080FFF5
:101E8000201203F077FFE0B203F074FF201203F09A
:101E900071FFE0B203F06EFF36E01F48808846F61F
:101EA000040188421DD11C488079012804D11A48B8
:101EB0000088401EC01A83B21749488903F060FFAA
:101EC000181203F057FFD8B203F054FF1249888963
:101ED00003F056FF201203F04DFFE0B203F04AFF7B
:101EE00012E00D488079012804D10B480088401E7B
:101EF000C01A83B208494889194603F051FF0649C0
:101F00008889214603F04CFF034800890349088073
:101F1000881C058030BD000058020020FE07006CC0
:101F200000B59FB00121080204F044FB01214FF4E9
:101F3000B47004F05FFB0120ADF8780010208DF83C
:101F40007B0003208DF87A001EA9FE48FFF774FC81
:101F50004CF23370ADF8780018208DF87B00032028
:101F60008DF87A001EA9F848FFF766FC4FF68070DE
:101F7000ADF8780018208DF87B0003208DF87A00EA
:101F80001EA9F248FFF758FC41F20100ADF87800B5
:101F900018208DF87B0003208DF87A001EA9EC48EC
:101FA000FFF74AFC01200890002009900F200A90BA
:101FB00000200B900C900D900E9001900290032049
:101FC00003900020049005900690079006200F9043
:101FD0000020109011901020129000201390159066
:101FE0001490169017904FF480501890002019907C
:101FF0004FF480401A9000201B9008A81C9001A864
:102000001D900FA8FFF7DAFA01210620FFF7BCFAAE
:10201000322007F003FE002003F04EFBCD498880FC
:1020200008468088FF280ADB084680884FF6FF7143
:10203000884204D0C7488088B0F5134F7ED1D320A2
:1020400003F09EFE03F02EFBC249888003F02AFBBA
:10205000C049888003F026FBBE49888008468088F6
:102060004FF6FF7101EA0020BA49888003F01AFB9D
:10207000B84989880843B74988800846808849F26A
:10208000413188425AD0BF2003F07AFE03F00AFBA8
:10209000B049888003F006FBAE49888003F002FB5C
:1020A000AC49888003F0FEFAAA49888008468088F7
:1020B0004FF6FF7101EA0020A649888003F0F2FA8A
:1020C000A44989880843A34988800846808846F641
:1020D000040188427AD0D42003F052FE03F0E2FAE1
:1020E0009C49888003F0DEFA9A49888003F0DAFA86
:1020F00098498880084680884FF6FF7101EA0020E1
:102100009449888003F0CEFA92498988084391491E
:1021100088800846808845F21031884256D04FF4B6
:102120005A4003F02DFE03F0BDFA8A4988804FF42F
:102130005B4003F025FE03F0B5FA00E046E0854978
:102140008880084680884FF6FF7101EA00208149A7
:1021500088804FF45C4003F013FE03F0A3FA7D493E
:10216000898808437B49888008468088B0F5004FFD
:1021700002D145F2105088807648808845F210518F
:10218000884223D0A12003F0FBFD03F08BFA7149B4
:10219000888003F087FA6F498880084680884FF668
:1021A000FF7101EA00206B49888003F07BFA6949DE
:1021B00089880843674988800846808845F26171AC
:1021C000884203D141F66310624988806148818862
:1021D00061A0FEF7DBF85F48808849F24131884210
:1021E0007ED1CF2003F0CCFD002003F0C3FDC12041
:1021F00003F0C0FD302003F0BDFDED2003F0C0FD75
:10220000642003F0B7FD032003F0B4FD122003F0B7
:10221000B1FD812003F0AEFDE82003F0B1FD852083
:1022200003F0A8FD102003F0A5FD7A2003F0A2FD25
:10223000CB2003F0A5FD392003F09CFD2C2003F0FA
:1022400099FD002003F096FD342003F093FD022059
:1022500003F090FDF72003F093FD202003F08AFDAA
:10226000EA2003F08DFD002003F084FD002003F040
:1022700081FDC02003F084FD1B2003F07BFDC12005
:1022800003F07EFD012003F075FDC52003F078FD0D
:10229000302003F06FFD302003F06CFDC72003F009
:1022A0006FFDB72003F066FD362003F069FD48207E
:1022B00003F060FD3A2003F063FD552003F05AFD62
:1022C000B12003F05DFD002003F054FD1A2003F05F
:1022D00051FDB62003F054FD0A2003F04BFD00E051
:1022E000AAE0A22003F046FDF22003F049FD002001
:1022F00003F040FD262003F043FD012003F03AFDEA
:10230000E02003F03DFD0F2003F034FD2A2003F010
:1023100031FD282003F02EFD082003F02BFD0E20B8
:1023200003F028FD082003F025FD542003F022FDD2
:10233000A92003F01FFD432003F01CFD0A2003F039
:1023400019FD11E0000C014000140140001801408B
:102350000020014058020020204C43442049443AC8
:1023600025780D0A000000000F2003F003FD002077
:1023700003F000FD002003F0FDFC002003F0FAFC58
:10238000002003F0F7FCE12003F0FAFC002003F04A
:10239000F1FC152003F0EEFC172003F0EBFC072006
:1023A00003F0E8FC112003F0E5FC062003F0E2FC5A
:1023B0002B2003F0DFFC562003F0DCFC3C2003F074
:1023C000D9FC052003F0D6FC102003F0D3FC0F202D
:1023D00003F0D0FC3F2003F0CDFC3F2003F0CAFC0B
:1023E0000F2003F0C7FC2B2003F0CAFC002003F0F1
:1023F000C1FC002003F0BEFC012003F0BBFC3F2029
:1024000003F0B8FC2A2003F0BBFC002003F0B2FC70
:10241000002003F0AFFC002003F0ACFCEF2003F041
:10242000A9FC112003F0ACFC782007F0F7FB292071
:1024300003F0A6FC03F01AB9FE48808846F60401B2
:1024400088427CD1112003F09BFC142007F0E6FBAE
:10245000D02003F095FC072003F08CFC422003F011
:1024600089FC1D2003F086FCD12003F089FC0020AC
:1024700003F080FC1A2003F07DFC092003F07AFCB5
:10248000D22003F07DFC012003F074FC222003F035
:1024900071FCC02003F074FC102003F06BFC3B20A7
:1024A00003F068FC002003F065FC022003F062FCEE
:1024B000112003F05FFCC52003F062FC032003F051
:1024C00059FCC82003F05CFC002003F053FC2520DD
:1024D00003F050FC212003F04DFC052003F04AFCE2
:1024E000002003F047FC0A2003F044FC652003F0C1
:1024F00041FC252003F03EFC772003F03BFC5020FC
:1025000003F038FC0F2003F035FC002003F032FC10
:10251000F82003F035FC012003F02CFCFE2003F032
:102520002FFC002003F026FC022003F023FC2020D7
:1025300003F026FC362003F023FC082000E02CE00A
:1025400003F018FC3A2003F01BFC552003F012FCAA
:102550002B2003F015FC002003F00CFC002003F0FE
:1025600009FC012003F006FC3F2003F003FC2A20B5
:1025700003F006FC002003F0FDFB002003F0FAFB53
:10258000012003F0F7FBDF2003F0F4FB782007F0D5
:1025900045FB292003F0F4FB4CE7A648808845F270
:1025A0001031884240F07C87ED2003F0E9FB0120E8
:1025B00003F0E0FBFE2003F0DDFBEE2003F0E0FB88
:1025C000DE2003F0D7FB212003F0D4FBF12003F041
:1025D000D7FB012003F0CEFBDF2003F0D1FB10205E
:1025E00003F0C8FBC42003F0CBFB8F2003F0C2FB39
:1025F000C62003F0C5FB002003F0BCFBE22003F083
:10260000B9FBE22003F0B6FBE22003F0B3FBBF20EE
:1026100003F0B6FBAA2003F0ADFBB02003F0B0FB43
:102620000D2003F0A7FB002003F0A4FB0D2003F016
:10263000A1FB002003F09EFB112003F09BFB002078
:1026400003F098FB192003F095FB002003F092FBA8
:10265000212003F08FFB002003F08CFB2D2003F0E2
:1026600089FB002003F086FB3D2003F083FB002064
:1026700003F080FB5D2003F07DFB002003F07AFB7C
:102680005D2003F077FB002003F074FBB12003F022
:1026900077FB802003F06EFB002003F06BFB8B20A8
:1026A00003F068FB002003F065FB962003F062FB5B
:1026B000002003F05FFBB22003F062FB002003F078
:1026C00059FB002003F056FB022003F053FB0020CF
:1026D00003F050FB032003F04DFB002003F04AFB06
:1026E000B32003F04DFB002003F044FB002003F077
:1026F00041FB002003F03EFB002003F03BFB0020E9
:1027000003F038FB002003F035FB002003F032FB20
:10271000002003F02FFB002003F02CFB002003F02F
:1027200029FB002003F026FB002003F023FB002000
:1027300003F020FB002003F01DFB002003F01AFB38
:10274000002003F017FB002003F014FB002003F02F
:1027500011FB002003F00EFB002003F00BFB002018
:1027600003F008FB002003F005FB002003F002FB50
:10277000002003F0FFFAB42003F002FB8B2003F0EB
:10278000F9FA002003F0F6FA962003F0F3FA00209D
:1027900003F0F0FAA12003F0EDFA002003F0EAFACA
:1027A000B52003F0EDFA022003F0E4FA002003F074
:1027B000E1FA032003F0DEFA002003F0DBFA042044
:1027C00003F0D8FA002003F0D5FAB62003F0D8FAC7
:1027D000002003F0CFFA002003F0CCFAB72003F07A
:1027E000CFFA002003F0C6FA002003F0C3FA3F201E
:1027F00003F0C0FA002003F0BDFA5E2003F0BAFA3D
:10280000002003F0B7FA642003F0B4FA002003F0CC
:10281000B1FA8C2003F0AEFA002003F0ABFAAC2042
:1028200003F0A8FA002003F0A5FADC2003F0A2FAD6
:10283000002001E05802002003F09CFA702003F011
:1028400099FA002003F096FA902003F093FA002002
:1028500003F090FAEB2003F08DFA002003F08AFADF
:10286000DC2003F087FA002003F084FAB82003F09C
:1028700087FA002003F07EFA002003F07BFA0020A4
:1028800003F078FA002003F075FA002003F072FAE2
:10289000002003F06FFA002003F06CFA002003F030
:1028A00069FABA2003F06CFA242003F063FA0020DE
:1028B00003F060FA002003F05DFA002003F05AFAFA
:1028C000C12003F05DFA202003F054FA002003F049
:1028D00051FA542003F04EFA002003F04BFAFF2087
:1028E00003F048FA002003F045FAC22003F048FA4A
:1028F0000A2003F03FFA002003F03CFA042003F022
:1029000039FA002003F036FAC32003F039FA3C20EC
:1029100003F030FA002003F02DFA3A2003F02AFAEF
:10292000002003F027FA392003F024FA002003F0F6
:1029300021FA372003F01EFA002003F01BFA3C2096
:1029400003F018FA002003F015FA362003F012FA0B
:10295000002003F00FFA322003F00CFA002003F0FD
:1029600009FA2F2003F006FA002003F003FA2C20C6
:1029700003F000FA002003F0FDF9292003F0FAF932
:10298000002003F0F7F9262003F0F4F9002003F00B
:10299000F1F9242003F0EEF9002003F0EBF92420F4
:1029A00003F0E8F9002003F0E5F9232003F0E2F951
:1029B000002003F0DFF93C2003F0DCF9002003F0F5
:1029C000D9F9362003F0D6F9002003F0D3F93220EC
:1029D00003F0D0F9002003F0CDF92F2003F0CAF95D
:1029E000002003F0C7F92C2003F0C4F9002003F005
:1029F000C1F9292003F0BEF9002003F0BBF926201D
:102A000003F0B8F9002003F0B5F9242003F0B2F97F
:102A1000002003F0AFF9242003F0ACF9002003F00C
:102A2000A9F9232003F0A6F9002003F0A3F9C4209C
:102A300003F0A6F9622003F09DF9002003F09AF953
:102A4000052003F097F9002003F094F9842003F0A7
:102A500091F9002003F08EF9F02003F08BF90020AB
:102A600003F088F9182003F085F9002003F082F9BB
:102A7000A42003F07FF9002003F07CF9182003F074
:102A800079F9002003F076F9502003F073F9002063
:102A900003F070F90C2003F06DF9002003F06AF9DF
:102AA000172003F067F9002003F064F9952003F084
:102AB00061F9002003F05EF9F32003F05BF90020D8
:102AC00003F058F9E62003F055F9002003F052F91D
:102AD000C52003F055F9322003F04CF9002003F033
:102AE00049F9442003F046F9002003F043F965203A
:102AF00003F040F9002003F03DF9762003F03AF9A5
:102B0000002003F037F9882003F034F9002003F0A7
:102B100031F9C62003F034F9202003F02BF900200E
:102B200003F028F9172003F025F9002003F022F91B
:102B3000012003F01FF9002003F01CF9C72003F067
:102B40001FF9002003F016F9002003F013F900200C
:102B500003F010F9002003F00DF9C82003F010F97C
:102B6000002003F007F9002003F004F9002003F02F
:102B700001F9002003F0FEF8C92003F001F900205C
:102B800003F0F8F8002003F0F5F8002003F0F2F865
:102B9000002003F0EFF8002003F0ECF8002003F031
:102BA000E9F8002003F0E6F8002003F0E3F8002045
:102BB00003F0E0F8002003F0DDF8002003F0DAF87D
:102BC000002003F0D7F8002003F0D4F8002003F031
:102BD000D1F8002003F0CEF8002003F0CBF8E0207D
:102BE00003F0CEF8162003F0C5F8002003F0C2F879
:102BF0001C2003F0BFF8002003F0BCF8212003F0F4
:102C0000B9F8002003F0B6F8362003F0B3F800203E
:102C100003F0B0F8462003F0ADF8002003F0AAF866
:102C2000522003F0A7F8002003F0A4F8642003F07A
:102C3000A1F8002003F09EF87A2003F09BF8002012
:102C400003F098F88B2003F095F8002003F092F839
:102C5000992003F08FF8002003F08CF8A82003F0EF
:102C600089F8002003F086F8B92003F083F80020EB
:102C700003F080F8C42003F07DF8002003F07AF818
:102C8000CA2003F077F8002003F074F8D22003F094
:102C900071F8002003F06EF8D92003F06BF80020E3
:102CA00003F068F8E02003F065F8002003F062F814
:102CB000F32003F05FF8002003F05CF8E12003F05C
:102CC0005FF8162003F056F8002003F053F81C209C
:102CD00003F050F8002003F04DF8222003F04AF8EA
:102CE000002003F047F8362003F044F8002003F0FA
:102CF00041F8452003F03EF8002003F03BF8522055
:102D000003F038F8002003F035F8642003F032F8BF
:102D1000002003F02FF87A2003F02CF8002003F0B5
:102D200029F88B2003F026F8002003F023F89920DF
:102D300003F020F8002003F01DF8A82003F01AF893
:102D4000002003F017F8B92003F014F8002003F076
:102D500011F8C42003F00EF8002003F00BF8CA208D
:102D600003F008F8002003F005F8D22003F002F881
:102D7000002002F0FFFFD82002F0FCFF002002F04C
:102D8000F9FFE02002F0F6FF002002F0F3FFF3204D
:102D900002F0F0FF002002F0EDFFE22002F0F0FF71
:102DA000052002F0E7FF002002F0E4FF0B2002F014
:102DB000E1FF002002F0DEFF1B2002F0DBFF00201D
:102DC00002F0D8FF342002F0D5FF002002F0D2FF3D
:102DD000442002F0CFFF002002F0CCFF4F2002F091
:102DE000C9FF002002F0C6FF612002F0C3FF0020EF
:102DF00002F0C0FF792002F0BDFF002002F0BAFF10
:102E0000882002F0B7FF002002F0B4FF972002F004
:102E1000B1FF002002F0AEFFA62002F0ABFF0020C1
:102E200002F0A8FFB72002F0A5FF002002F0A2FFE9
:102E3000C22002F09FFF002002F09CFFC72002F09A
:102E400099FF002002F096FFD12002F093FF0020AE
:102E500002F090FFD62002F08DFF002002F08AFFE2
:102E6000DD2002F087FF002002F084FFF32002F053
:102E700081FF002002F07EFFE32002F081FF0520A9
:102E800002F078FF002002F075FF0A2002F072FFC6
:102E9000002002F06FFF1C2002F06CFF002002F007
:102EA00069FF332002F066FF002002F063FF442038
:102EB00002F060FF002002F05DFF502002F05AFF98
:102EC000002002F057FF622002F054FF002002F0C1
:102ED00051FF782002F04EFF002002F04BFF8820C7
:102EE00002F048FF002002F045FF972002F042FF69
:102EF000002002F03FFFA62002F03CFF002002F07D
:102F000039FFB72002F036FF002002F033FFC22065
:102F100002F030FF002002F02DFFC72002F02AFF50
:102F2000002002F027FFD12002F024FF002002F051
:102F300021FFD52002F01EFF002002F01BFFDD2044
:102F400002F018FF002002F015FFF32002F012FF3C
:102F5000002002F00FFFE42002F012FF012002F037
:102F600009FF002002F006FF012002F003FF00200D
:102F700002F000FF022002F0FDFE002002F0FAFE47
:102F80002A2002F0F7FE002002F0F4FE3C2002F0BE
:102F9000F1FE002002F0EEFE4B2002F0EBFE0020DE
:102FA00002F0E8FE5D2002F0E5FE002002F0E2FE05
:102FB000742002F0DFFE002002F0DCFE842002F02C
:102FC000D9FE002002F0D6FE932002F0D3FE0020AE
:102FD00002F0D0FEA22002F0CDFE002002F0CAFED8
:102FE000B32002F0C7FE002002F0C4FEBE2002F0B3
:102FF000C1FE002002F0BEFEC42002F0BBFE002095
:1030000002F0B8FECD2002F0B5FE002002F0B2FEC4
:10301000D32002F0AFFE002002F0ACFEDD2002F073
:10302000A9FE002002F0A6FEF32002F0A3FE00207D
:1030300002F0A0FEE52002F0A3FE002002F09AFEBE
:10304000002002F097FE002002F094FE002002F023
:1030500091FE022002F08EFE002002F08BFE29205D
:1030600002F088FE002002F085FE3C2002F082FE85
:10307000002002F07FFE4B2002F07CFE002002F0D8
:1030800079FE5D2002F076FE002002F073FE7420CF
:1030900002F070FE002002F06DFE842002F06AFE55
:1030A000002002F067FE932002F064FE002002F090
:1030B00061FEA22002F05EFE002002F05BFEB32063
:1030C00002F058FE002002F055FEBE2002F052FE33
:1030D000002002F04FFEC42002F04CFE002002F05F
:1030E00049FECD2002F046FE002002F043FED32030
:1030F00002F040FE002002F03DFEDC2002F03AFE2D
:10310000002002F037FEF32002F034FE002002F02F
:1031100031FEE62002F034FE112002F02BFE0020EA
:1031200002F028FE342002F025FE002002F022FEEC
:10313000562002F01FFE002002F01CFE762002F056
:1031400019FE002002F016FE772002F013FE002088
:1031500002F010FE662002F00DFE002002F00AFED2
:10316000882002F007FE002002F004FE992002F001
:1031700001FE002002F0FEFDBB2002F0FBFD00205E
:1031800002F0F8FD992002F0F5FD002002F0F2FDBA
:10319000662002F0EFFD002002F0ECFD552002F069
:1031A000E9FD002002F0E6FD552002F0E3FD0020DD
:1031B00002F0E0FD452002F0DDFD002002F0DAFD26
:1031C000432002F0D7FD002002F0D4FD442002F09D
:1031D000D1FD002002F0CEFDE72002F0D1FD32202B
:1031E00002F0C8FD002002F0C5FD552002F0C2FD2E
:1031F000002002F0BFFD762002F0BCFD002002F0AE
:10320000B9FD662002F0B6FD002002F0B3FD672094
:1032100002F0B0FD002002F0ADFD672002F0AAFD33
:10322000002002F0A7FD872002F0A4FD002002F09C
:10323000A1FD992002F09EFD002002F09BFDBB2025
:1032400002F098FD002002F095FD992002F092FD19
:10325000002002F08FFD772002F08CFD002002F0AC
:1032600089FD442002F086FD002002F083FD5620F7
:1032700002F080FD002002F07DFD232002F07AFDA7
:10328000002002F077FD332002F074FD002002F0F0
:1032900071FD452002F06EFD002002F06BFDE8207C
:1032A00002F06EFD002002F065FD002002F062FDDC
:1032B000992002F05FFD002002F05CFD872002F003
:1032C00059FD002002F056FD882002F053FD002039
:1032D00002F050FD772002F04DFD002002F04AFD83
:1032E000662002F047FD002002F044FD882002F035
:1032F00041FD002002F03EFDAA2002F03BFD00202F
:1033000002F038FDBB2002F035FD002002F032FD56
:10331000992002F02FFD002002F02CFD662002F023
:1033200029FD002002F026FD552002F023FD00209B
:1033300002F020FD552002F01DFD002002F01AFDD4
:10334000442002F017FD002002F014FD442002F09A
:1033500011FD002002F00EFD552002F00BFD0020B3
:1033600002F008FDE92002F00BFDAA2002F002FDA8
:10337000002002F0FFFC002002F0FCFC002002F024
:10338000F9FC002002F0FCFCAA2002F0F3FCCF20A4
:1033900002F0F6FC002002F0EDFC002002F0EAFC56
:1033A000002002F0E7FC002002F0E4FC002002F024
:1033B000E1FC002002F0DEFC002002F0DBFC00203B
:1033C00002F0D8FC002002F0D5FC002002F0D2FC74
:1033D000002002F0CFFC002002F0CCFC002002F024
:1033E000C9FC002002F0C6FC002002F0C3FC002053
:1033F00002F0C0FC002002F0BDFCF02002F0C0FC96
:10340000002002F0B7FC502002F0B4FC002002F0D3
:10341000B1FC002002F0AEFC002002F0ABFCF32077
:1034200002F0AEFC002002F0A5FCF92002F0A8FC9E
:10343000062002F09FFC102002F09CFC292002F0E4
:1034400099FC002002F096FC3A2002F099FC5520ED
:1034500002F090FC112002F093FC642006F0DEFBE9
:10346000292002F08DFC352002F08AFC002002F0B9
:1034700081FC512002F084FCFF2002F07BFC5320F1
:1034800002F07EFC2C2002F075FC552002F078FC46
:10349000822002F06FFC2C2002F072FC02F0E6B8F1
:1034A000FE48808845F2105188427DD155214FF465
:1034B000704002F075FCAA214FF2010002F070FC8E
:1034C00052214FF2020002F06BFC08214FF2030080
:1034D00002F066FC01214FF2040002F061FC0D21B4
:1034E0004FF4304002F05CFC0D214BF2010002F081
:1034F00057FC0D214BF2020002F052FC34214FF434
:10350000364002F04DFC34214BF2016002F048FCE1
:1035100034214BF2026002F043FC0D214FF43140A4
:1035200002F03EFC0D214BF2011002F039FC0D219E
:103530004BF2021002F034FC34214FF4374002F019
:103540002FFC34214BF2017002F02AFC34214BF2A3
:10355000027002F025FC00214FF4324002F020FC02
:1035600000214BF2012002F01BFC00214BF2022053
:1035700002F016FC24214FF4384002F011FC242103
:103580004BF6010002F00CFC24214BF6020002F085
:1035900007FC01214FF43F4002F002FC0F214FF4E1
:1035A000334002F0FDFB00E0FDE30F214BF2013060
:1035B00002F0F6FB0F214BF2023002F0F1FB342156
:1035C0004FF4394002F0ECFB34214BF6011002F0CD
:1035D000E7FB34214BF6021002F0E2FB08214FF426
:1035E000354002F0DDFB08214BF2015002F0D8FB20
:1035F00008214BF2025002F0D3FB03214FF442406A
:1036000002F0CEFB24214FF43A4002F0C9FB242102
:103610004BF6012002F0C4FB24214BF6022002F0FD
:10362000BFFB00214FF43C4002F0BAFB78214BF67F
:10363000014002F0B5FB00214BF6024002F0B0FB66
:1036400000214FF43D4002F0ABFB78214BF60150D6
:1036500002F0A6FB00214BF6025002F0A1FB002174
:103660004FF43E4002F09CFB64214BF6016002F0F7
:1036700097FB00214FF4514002F092FB33214DF2B1
:10368000011002F08DFB00214DF2021002F088FBC8
:1036900034214DF2031002F083FB00214DF204109F
:1036A00002F07EFB3A214DF2051002F079FB002179
:1036B0004DF2061002F074FB4A214DF2071002F0A1
:1036C0006FFB00214DF2081002F06AFB5C214DF205
:1036D000091002F065FB00214DF20A1002F060FBB8
:1036E00081214DF20B1002F05BFB00214DF20C101A
:1036F00002F056FBA6214DF20D1002F051FB002105
:103700004DF20E1002F04CFBE5214DF20F1002F0CD
:1037100047FB01214DF2101002F042FB13214DF244
:10372000111002F03DFB01214DF2121002F038FBA6
:1037300054214DF2131002F033FB01214DF214100D
:1037400002F02EFB82214DF2151002F029FB01211F
:103750004DF2161002F024FBCA214DF2171002F0B0
:103760001FFB02214DF2181002F01AFB00214DF24E
:10377000191002F015FB02214DF21A1002F010FB95
:1037800001214DF21B1002F00BFB02214DF21C1027
:1037900002F006FB34214DF21D1002F001FB022164
:1037A0004DF21E1002F0FCFA67214DF21F1002F0DC
:1037B000F7FA02214DF2201002F0F2FA84214DF2C4
:1037C000211002F0EDFA02214DF2221002F0E8FA87
:1037D000A4214DF2231002F0E3FA02214DF224104D
:1037E00002F0DEFAB7214DF2251002F0D9FA0221DB
:1037F0004DF2261002F0D4FACF214DF2271002F03C
:10380000CFFA02214DF2281002F0CAFADE214DF261
:10381000291002F0C5FA02214DF22A1002F0C0FA76
:10382000F2214DF22B1002F0BBFA02214DF22C10C6
:1038300002F0B6FAFE214DF22D1002F0B1FA03218A
:103840004DF22E1002F0ACFA10214DF22F1002F0C2
:10385000A7FA03214DF2301002F0A2FA33214DF203
:10386000311002F09DFA03214DF2321002F098FA65
:103870006D214DF2331002F093FA00214FF45240C3
:1038800002F08EFA33214DF2012002F089FA002174
:103890004DF2022002F084FA342101E058020020A7
:1038A0004DF2032002F07CFA00214DF2042002F0D8
:1038B00077FA3A214DF2052002F072FA00214DF21A
:1038C000062002F06DFA4A214DF2072002F068FA54
:1038D00000214DF2082002F063FA5C214DF209202C
:1038E00002F05EFA00214DF20A2002F059FA81211D
:1038F0004DF20B2002F054FA00214DF20C2002F0A0
:103900004FFAA6214DF20D2002F04AFA00214DF2A5
:103910000E2002F045FAE5214DF20F2002F040FAA8
:1039200001214DF2102002F03BFA13214DF211203B
:1039300002F036FA01214DF2122002F031FA542140
:103940004DF2132002F02CFA01214DF2142002F066
:1039500027FA82214DF2152002F022FA01214DF2C0
:10396000162002F01DFACA214DF2172002F018FAB3
:1039700002214DF2182002F013FA00214DF2192015
:1039800002F00EFA02214DF21A2002F009FA01218A
:103990004DF21B2002F004FA02214DF21C2002F02D
:1039A000FFF934214DF21D2002F0FAF902214DF207
:1039B0001E2002F0F5F967214DF21F2002F0F0F908
:1039C00002214DF2202002F0EBF984214DF221205A
:1039D00002F0E6F902214DF2222002F0E1F9A421E1
:1039E0004DF2232002F0DCF902214DF2242002F0F6
:1039F000D7F9B7214DF2252002F0D2F902214DF27C
:103A0000262002F0CDF9CF214DF2272002F0C8F98F
:103A100002214DF2282002F0C3F9DE214DF22920C7
:103A200002F0BEF902214DF22A2002F0B9F9F2218A
:103A30004DF22B2002F0B4F902214DF22C2002F0BD
:103A4000AFF9FE214DF22D2002F0AAF903214DF22B
:103A50002E2002F0A5F910214DF22F2002F0A0F93E
:103A600003214DF2302002F09BF933214DF2312039
:103A700002F096F903214DF2322002F091F96D2106
:103A80004DF2332002F08CF900214FF4534002F044
:103A900087F933214DF2013002F082F900214DF215
:103AA000023002F07DF934214DF2033002F078F952
:103AB00000214DF2043002F073F93A214DF2053045
:103AC00002F06EF900214DF2063002F069F94A2148
:103AD0004DF2073002F064F900214DF2083002F097
:103AE0005FF95C214DF2093002F05AF900214DF2E4
:103AF0000A3002F055F981214DF20B3002F050F9F5
:103B000000214DF20C3002F04BF9A6214DF20D30A0
:103B100002F046F900214DF20E3002F041F9E521A4
:103B20004DF20F3002F03CF901214DF2103002F05D
:103B300037F913214DF2113002F032F901214DF223
:103B4000123002F02DF954214DF2133002F028F911
:103B500001214DF2143002F023F982214DF215308B
:103B600002F01EF901214DF2163002F019F9CA21B6
:103B70004DF2173002F014F902214DF2183002F024
:103B80000FF900214DF2193002F00AF902214DF22D
:103B90001A3002F005F901214DF21B3002F000F954
:103BA00002214DF21C3002F0FBF834214DF21D30A1
:103BB00002F0F6F802214DF21E3002F0F1F8672112
:103BC0004DF21F3002F0ECF802214DF2203002F0ED
:103BD000E7F884214DF2213002F0E2F802214DF2A3
:103BE000223002F0DDF8A4214DF2233002F0D8F8A3
:103BF00002214DF2243002F0D3F8B7214DF22530E6
:103C000002F0CEF802214DF2263002F0C9F8CF21A1
:103C10004DF2273002F0C4F802214DF2283002F0B4
:103C2000BFF8DE214DF2293002F0BAF802214DF240
:103C30002A3002F0B5F8F2214DF22B3002F0B0F844
:103C400002214DF22C3002F0ABF8FE214DF22D3066
:103C500002F0A6F803214DF22E3002F0A1F8102157
:103C60004DF22F3002F09CF803214DF2303002F07B
:103C700097F833214DF2313002F092F803214DF2E2
:103C8000323002F08DF86D214DF2333002F088F8B9
:103C900000214FF4544002F083F833214DF20140EB
:103CA00002F07EF800214DF2024002F079F8342152
:103CB0004DF2034002F074F800214DF2044002F08E
:103CC0006FF83A214DF2054002F06AF800214DF2FA
:103CD000064002F065F84A214DF2074002F060F814
:103CE00000214DF2084002F05BF85C214DF20940E2
:103CF00002F056F800214DF20A4002F051F88121FD
:103D00004DF20B4002F04CF800214DF20C4002F055
:103D100047F8A6214DF20D4002F042F800214DF285
:103D20000E4002F03DF8E5214DF20F4002F038F868
:103D300001214DF2104002F033F813214DF21140F1
:103D400002F02EF801214DF2124002F029F8542120
:103D50004DF2134002F024F801214DF2144002F01C
:103D60001FF882214DF2154002F01AF801214DF2A0
:103D7000164002F015F8CA214DF2174002F010F873
:103D800002214DF2184002F00BF800214DF21940CB
:103D900002F006F802214DF21A4002F001F801216A
:103DA0004DF21B4000E006E301F0FAFF02214DF264
:103DB0001C4001F0F5FF34214DF21D4001F0F0FFF1
:103DC00002214DF21E4001F0EBFF67214DF21F4032
:103DD00001F0E6FF02214DF2204001F0E1FF8421D5
:103DE0004DF2214001F0DCFF02214DF2224001F0B2
:103DF000D7FFA4214DF2234001F0D2FF02214DF262
:103E0000244001F0CDFFB7214DF2254001F0C8FF5D
:103E100002214DF2264001F0C3FFCF214DF2274091
:103E200001F0BEFF02214DF2284001F0B9FFDE2172
:103E30004DF2294001F0B4FF02214DF22A4001F079
:103E4000AFFFF2214DF22B4001F0AAFF02214DF20B
:103E50002C4001F0A5FFFE214DF22D4001F0A0FF06
:103E600003214DF22E4001F09BFF10214DF22F4017
:103E700001F096FF03214DF2304001F091FF332114
:103E80004DF2314001F08CFF03214DF2324001F040
:103E900087FF6D214DF2334001F082FF00214FF486
:103EA000554001F07DFF33214DF2015001F078FFC4
:103EB00000214DF2025001F073FF34214DF2035006
:103EC00001F06EFF00214DF2045001F069FF3A212C
:103ED0004DF2055001F064FF00214DF2065001F053
:103EE0005FFF4A214DF2075001F05AFF00214DF2C9
:103EF000085001F055FF5C214DF2095001F050FFD0
:103F000000214DF20A5001F04BFF81214DF20B5080
:103F100001F046FF00214DF20C5001F041FFA621B7
:103F20004DF20D5001F03CFF00214DF20E5001F01A
:103F300037FFE5214DF20F5001F032FF01214DF224
:103F4000105001F02DFF13214DF2115001F028FF08
:103F500001214DF2125001F023FF54214DF2135074
:103F600001F01EFF01214DF2145001F019FF8221D2
:103F70004DF2155001F014FF01214DF2165001F0E1
:103F80000FFFCA214DF2175001F00AFF02214DF236
:103F9000185001F005FF00214DF2195001F000FF0B
:103FA00002214DF21A5001F0FBFE01214DF21B508F
:103FB00001F0F6FE02214DF21C5001F0F1FE342119
:103FC0004DF21D5001F0ECFE02214DF21E5001F0A9
:103FD000E7FE67214DF21F5001F0E2FE02214DF293
:103FE000205001F0DDFE84214DF2215001F0D8FE79
:103FF00002214DF2225001F0D3FEA4214DF22350B4
:1040000001F0CEFE02214DF2245001F0C9FEB7218D
:104010004DF2255001F0C4FE02214DF2265001F070
:10402000BFFECF214DF2275001F0BAFE02214DF222
:10403000285001F0B5FEDE214DF2295001F0B0FE0E
:1040400002214DF22A5001F0ABFEF2214DF22B502D
:1040500001F0A6FE02214DF22C5001F0A1FEFE213E
:104060004DF22D5001F09CFE03214DF22E5001F037
:1040700097FE10214DF22F5001F092FE03214DF2D8
:10408000305001F08DFE33214DF2315001F088FEA9
:1040900003214DF2325001F083FE6D214DF2335079
:1040A00001F07EFE00214FF4564001F079FE3321ED
:1040B0004DF2016001F074FE00214DF2026001F04A
:1040C0006FFE34214DF2036001F06AFE00214DF2D3
:1040D000046001F065FE3A214DF2056001F060FEDA
:1040E00000214DF2066001F05BFE4A214DF20760AF
:1040F00001F056FE00214DF2086001F051FE5C21F6
:104100004DF2096001F04CFE00214DF20A6001F011
:1041100047FE81214DF20B6001F042FE00214DF27D
:104120000C6001F03DFEA6214DF20D6001F038FE5D
:1041300000214DF20E6001F033FEE5214DF20F60DB
:1041400001F02EFE01214DF2106001F029FE132135
:104150004DF2116001F024FE01214DF2126001F0D8
:104160001FFE54214DF2136001F01AFE01214DF2A1
:10417000146001F015FE82214DF2156001F010FE71
:1041800001214DF2166001F00BFECA214DF21760BD
:1041900001F006FE02214DF2186001F001FE00213F
:1041A0004DF2196001F0FCFD02214DF21A6001F0A0
:1041B000F7FD01214DF21B6001F0F2FD02214DF2ED
:1041C0001C6001F0EDFD34214DF21D6001F0E8FDB1
:1041D00002214DF21E6001F0E3FD67214DF21F60E8
:1041E00001F0DEFD02214DF2206001F0D9FD8421B5
:1041F0004DF2216001F0D4FD02214DF2226001F068
:10420000CFFDA4214DF2236001F0CAFD02214DF241
:10421000246001F0C5FDB7214DF2256001F0C0FD1D
:1042200002214DF2266001F0BBFDCF214DF2276047
:1042300001F0B6FD02214DF2286001F0B1FDDE2152
:104240004DF2296001F0ACFD02214DF22A6001F02F
:10425000A7FDF2214DF22B6001F0A2FD02214DF2EB
:104260002C6001F09DFDFE214DF22D6001F098FDC6
:1042700003214DF22E6001F093FD10214DF22F60CD
:1042800001F08EFD03214DF2306001F089FD3321F4
:104290004DF2316001F084FD03214DF2326001F0F6
:1042A0007FFD6D214DF2336001F07AFD55214FF411
:1042B000704001F075FDAA214FF2010001F070FD80
:1042C00052214FF2020001F06BFD08214FF2030072
:1042D00001F066FD00214FF2040001F061FDCC21E8
:1042E0004FF4314001F05CFD00214BF2011001F070
:1042F00057FD05214FF4364001F052FD70214FF477
:10430000374001F04DFD70214BF2017001F048FD86
:1043100001214FF4384001F043FD03214BF6010029
:1043200001F03EFD03214BF6020001F039FD0321AF
:104330004BF6030001F034FD02214FF43C4001F044
:104340002FFD00214BF6014001F02AFD00214BF624
:10435000024001F025FDD0214FF4494001F020FD3D
:1043600002214CF6011001F01BFD50214CF6021009
:1043700001F016FD50214CF6031001F011FD502103
:104380004CF6041001F00CFD00214FF4545001F0E4
:1043900007FD55214FF4685001F002FD4FF488509D
:1043A00001F0EEFC782005F05FFC4FF4245001F0A2
:1043B000E7FC01F05BB9FE48808849F2253188426C
:1043C0007ED147F6F001E52001F0EAFC4FF4807160
:1043D000012001F0E5FC4FF4E061022001F0E0FC77
:1043E00041F23001032001F0DBFC0021042001F048
:1043F000D7FC40F20221082001F0D2FC0021092064
:1044000001F0CEFC00210A2001F0CAFC00210C20A2
:1044100001F0C6FC00210D2001F0C2FC00210F209C
:1044200001F0BEFC0021102001F0BAFC0721112090
:1044300001F0B6FC0021122001F0B2FC0021132093
:1044400001F0AEFC0021072001F0AAFC41F29061CE
:10445000102001F0A5FC40F22721112001F0A0FC62
:104460009D21122001F09CFC4FF4C851132001F053
:1044700097FC2521292001F093FC0D212B2001F030
:104480008FFC0721302001F08BFC40F203313120FA
:1044900001F086FC0321322001F082FC40F206216B
:1044A000352001F07DFC0821362001F079FC40F236
:1044B0000641372001F074FC4FF44171382000E0D0
:1044C00057E001F06DFC0721392001F069FC40F252
:1044D00002613C2001F064FC08213D2001F060FCF9
:1044E0000021502001F05CFCEF21512001F058FC2C
:1044F0000021522001F054FC40F23F11532001F002
:104500004FFC4FF42741602001F04AFC012161205B
:1045100001F046FC00216A2001F042FC00218020CD
:1045200001F03EFC0021812001F03AFC00218220B4
:1045300001F036FC0021832001F032FC00218420B0
:1045400001F02EFC0021852001F02AFC1021902092
:1045500001F026FC4FF4C061922001F021FC40F2F2
:104560003311072001F01CFC2221002001F018FC6F
:104570001FE78F48808849F2283188427ED141F276
:104580008F01EC2001F00CFC41F23421EF2001F00E
:1045900007FC4FF48071012001F002FC4FF4E06150
:1045A000022001F0FDFB41F23001032001F0F8FB95
:1045B0000021042001F0F4FB40F20221082001F068
:1045C000EFFB0021092001F0EBFB00210A2001F0A4
:1045D000E7FB01210C2001F0E3FB00210D2001F09D
:1045E000DFFB00210F2001F0DBFB0021102001F098
:1045F000D7FB0721112001F0D3FB0021122001F08D
:10460000CFFB0021132001F0CBFB0121072001F09B
:10461000C7FB322005F002FB41F29041102001F06F
:10462000BFFB40F22721112001F0BAFB322005F038
:10463000F5FA8A21122001F0B3FB322005F0EEFAE0
:104640004FF4D051132001F0ABFB0621292001F0DB
:10465000A7FB0D212B2001F0A3FB322005F0DEFA91
:104660000021202001F09CFB0021212001F098FB7B
:10467000322005F0D3FA0021302000E074E001F090
:104680008FFB40F20461312001F08AFB40F20531DA
:10469000322001F085FB0021352001F081FB40F63E
:1046A0000941362001F07CFB4FF40171372001F005
:1046B00077FB40F20131382001F072FB40F20771C4
:1046C000392001F06DFB00213C2001F069FB40F630
:1046D0000A213D2001F064FB322005F09FFA002101
:1046E000502001F05DFBEF21512001F059FB00212A
:1046F000522001F055FB40F23F11532001F050FBD6
:104700004FF42741602001F04BFB0121612001F0B3
:1047100047FB00216A2001F043FB0021802001F0CB
:104720003FFB0021812001F03BFB0021822001F0B2
:1047300037FB0021832001F033FB0021842001F0AE
:104740002FFB0021852001F02BFB1021902001F090
:1047500027FB4FF4C061922001F022FB40F233119D
:10476000072001F01DFB24E61148808849F2203122
:1047700088427DD10021084601F012FB4FF4807180
:10478000012001F00DFB4FF4E061022001F008FB75
:1047900041F23001032001F003FB0021042001F06D
:1047A000FFFA40F20221082001F0FAFA002101E0AC
:1047B00058020020092001F0F3FA00210A2001F03C
:1047C000EFFA01210C2001F0EBFA00210D2001F09D
:1047D000E7FA00210F2001F0E3FA322005F01EFA7B
:1047E00040F20111072001F0DBFA322005F016FA41
:1047F0004FF48651102001F0D3FA0721112001F067
:10480000CFFA4FF48871122001F0CAFA4FF43061E8
:10481000132001F0C5FA0021292001F0C1FA44F269
:1048200010012B2001F0BCFA0021502001F0B8FA51
:10483000EF21512001F0B4FA0021522001F0B0FA2A
:1048400040F23F11532001F0ABFA4FF41C516020AD
:1048500001F0A6FA0121612001F0A2FA00216A20EC
:1048600001F09EFA0021802001F09AFA002100E078
:1048700031E0812001F094FA0021822001F090FAC9
:104880000021832001F08CFA0021842001F088FAB5
:104890000021852001F084FA1021902001F080FA97
:1048A0000021922001F07CFA0121932001F078FA96
:1048B0004FF48871952001F073FA0021972001F0E0
:1048C0006FFA0021982001F06BFA40F27311072073
:1048D00001F066FA6DE5FE48808849F23131884280
:1048E0007DD141F21401E72001F05AFA4FF48071B2
:1048F000012001F055FA4FF40071022001F050FA46
:1049000041F23801032001F04BFA40F20221082065
:1049100001F046FA0021092001F042FA00210A20A4
:1049200001F03EFA00210C2001F03AFA00210D209E
:1049300001F036FA00210F2001F032FA0021102098
:1049400001F02EFA0721112001F02AFA002112208D
:1049500001F026FA0021132001F022FAC82005F008
:104960005DF941F29061102001F01AFA40F227211E
:10497000112001F015FA322005F050F90C21122017
:1049800001F00EFA322005F049F94FF400611320CE
:1049900001F006FA1121292001F002FA0B212B2047
:1049A00001F0FEF9322005F039F90021202001F054
:1049B000F7F940F23F11212001F0F2F900213020F7
:1049C00001F0EEF94FF48371312001F0E9F9002193
:1049D000322001F0E5F94FF40171352000E064E088
:1049E00001F0DEF941F20A61362001F0D9F940F216
:1049F0000771372001F0D4F94FF48371382001F0AA
:104A0000CFF940F20771392001F0CAF940F20241B2
:104A10003C2001F0C5F940F60F413D2001F0C0F9FE
:104A20000021502001F0BCF9EF21512001F0B8F92C
:104A30000021522001F0B4F940F23F11532001F05F
:104A4000AFF94FF41C51602001F0AAF90121612057
:104A500001F0A6F900216A2001F0A2F900218020CE
:104A600001F09EF90021812001F09AF900218220B5
:104A700001F096F90021832001F092F900218420B1
:104A800001F08EF90021852001F08AF91021902093
:104A900001F086F94FF4C061922001F081F940F2F3
:104AA0003311072001F07CF983E48948808845F2BE
:104AB000084188427ED14FF48071012001F070F9E5
:104AC0004FF4E061022001F06BF941F23001032064
:104AD00001F066F90021042001F062F940F207219B
:104AE000082001F05DF90021092001F059F90021A9
:104AF0000A2001F055F900210C2001F051F90021A4
:104B00000D2001F04DF900210F2001F049F914208A
:104B100005F084F841F2B061102001F041F9012163
:104B2000112001F03DF90121172001F039F94FF46E
:104B30009C71122001F034F94FF40061132001F050
:104B40002FF90921292001F02BF909212A2001F050
:104B500027F90021A42001F023F90021502001F0C1
:104B60001FF9EF21512001F01BF90021522001F023
:104B700017F940F23F11532001F012F94FF41C5184
:104B8000602001F00DF90121612001F009F90021F7
:104B90006A2001F005F90021802001F001F90021CF
:104BA000812001F0FDF80021822001F0F9F80021B8
:104BB000832000E023E001F0F3F80021842001F0DD
:104BC000EFF80021852001F0EBF81321902001F08F
:104BD000E7F80021922001F0E3F80321932001F08F
:104BE000DFF84FF48871952001F0DAF840F2731184
:104BF000072001F0D5F8322005F010F8B8E4344869
:104C0000808841F2055188427ED10021072001F0C1
:104C1000C7F8322005F002F84FF48E71122001F02F
:104C2000BFF80121A42001F0BBF80F21082001F0FA
:104C3000B7F808210A2001F0B3F808210D2001F08F
:104C4000AFF840F20771302001F0AAF807213120B7
:104C500001F0A6F840F20361322001F0A1F84FF410
:104C6000E061332001F09CF840F20221342001F091
:104C700097F80221352001F093F841F60F713620A4
:104C800001F08EF840F20771372001F089F8002119
:104C9000382001F085F80021392001F081F840F238
:104CA00007713A2001F07CF800213B2001F078F8F0
:104CB00007213C2001F074F800213D2001F070F83C
:104CC000322004F0ABFF0121072001F069F801E078
:104CD000580200200121172001F062F8322004F070
:104CE0009DFF4FF4BD51102001F05AF840F21721FA
:104CF000112001F055F84FF48F71122001F050F897
:104D00004FF47061132000E097E001F049F80021B2
:104D10002A2001F045F80A21292001F041F84FF43A
:104D20009F71122001F03CF80021502001F038F86A
:104D3000EF21512001F034F80021522001F030F829
:104D400040F23F11532001F02BF84FF41C5160202A
:104D500001F026F80121612001F022F800216A20EB
:104D600001F01EF80021802001F01AF800218120B6
:104D700001F016F80021822001F012F800218320B2
:104D800001F00EF80021842001F00AF800218520AE
:104D900001F006F81321902001F002F84FF4407161
:104DA000922000F0FDFF0521932000F0F9FF002183
:104DB000952000F0F5FF0021972000F0F1FF002181
:104DC000982000F0EDFF4FF48071012000F0E8FF23
:104DD0004FF4E061022000F0E3FF41F238010320CC
:104DE00000F0DEFF0021042000F0DAFF00210C209B
:104DF00000F0D6FF00210F2000F0D2FF002120207C
:104E000000F0CEFF0021212000F0CAFF2121072061
:104E100000F0C6FF142004F001FF6121072000F01C
:104E2000BFFF142004F0FAFE40F27311072000F0D7
:104E3000B7FF142004F0F2FE95E4FE4880884BF2A0
:104E4000055188427ED10021084600F0A9FF0021CB
:104E5000084600F0A5FF0021084600F0A1FF002150
:104E6000084600F09DFF0121A42000F099FF1420C6
:104E700004F0D4FE4FF41C51602000F091FF40F28A
:104E80000221082000F08CFF4FF40571302000F063
:104E900087FF43F21571312000F082FF40F2046178
:104EA000322000F07DFF40F61661332000F078FFDD
:104EB00042F21121342000F073FF4FF4A851352045
:104EC00000F06EFF48F20751362000F069FF41F212
:104ED0000741372000F064FF41F20341382000F021
:104EE0005FFF2021392000F05BFF1A21902000F0A5
:104EF00057FF0021102000F053FF0721112000F080
:104F00004FFF0021122000F04BFF0021132000F082
:104F100047FF142004F082FE4FF4E661102000F0F9
:104F20003FFF40F23711112000F03AFF142004F047
:104F300075FE4FF4DC71122000F032FF142004F0F3
:104F40006DFE00E083E04FF47061132000F028FF55
:104F500080212A2000F024FF4821292000F020FF92
:104F6000142004F05BFE4FF48071012000F018FF64
:104F70004FF4E061022000F013FF41F238010320FA
:104F800000F00EFF40F20221082000F009FF00218E
:104F90000A2000F005FF00210C2000F001FF002195
:104FA0000D2000F0FDFE30210E2000F0F9FE002162
:104FB000502000F0F5FEEF21512000F0F1FE00211D
:104FC000522000F0EDFE40F23F11532000F0E8FEC9
:104FD0004FF41C51602000F0E3FE0121612000F03D
:104FE000DFFE00216A2000F0DBFE1121902000F09E
:104FF000D7FE4FF4C061922000F0D2FE40F2024191
:10500000932000F0CDFE0221942000F0C9FE142070
:1050100004F004FE0121072000F0C2FE142004F079
:10502000FDFD6121072000F0BBFE40F27311072057
:1050300000F0B6FE0021202000F0B2FE0021212069
:1050400000F0AEFE2221002000F0AAFE0EE3794817
:1050500080884CF2055188427ED10021084600F03C
:105060009FFE0021084600F09BFE142004F0D6FDB0
:105070000021084600F094FE0021084600F090FE52
:105080000021084600F08CFE0021084600F088FE52
:105090000121A42000F084FE142004F0BFFD4FF491
:1050A0001C51602000F07CFE40F60601082000F054
:1050B00077FE40F20371302000F072FE01213120B2
:1050C00000F06EFE0421322000F06AFE4FF4817180
:1050D000332000F065FE4FF44071342000F060FE94
:1050E00040F20311352000F05BFE1F21362000F056
:1050F00057FE40F20371372000F052FE01213820A4
:1051000000F04EFE0421392000F04AFE15219020C7
:1051100000F046FE4FF48261102000F041FE40F2A4
:105120004721112000F03CFE4FF4DE71122000F008
:1051300037FE4FF46061132000F032FE782004F057
:105140006DFD4FF48071012000F02AFE4FF40071D4
:10515000022000F025FE00E050E041F23001032083
:1051600000F01EFE08210A2000F01AFE00210C208B
:1051700000F016FE20210E2000F012FE00210F206C
:1051800000F00EFE0021202000F00AFE0021212068
:1051900000F006FE3D212A2000F002FE142004F05B
:1051A0003DFD2D21292000F0FBFD0021502000F0C5
:1051B000F7FD4DF2EF01512000F0F2FD00215220E9
:1051C00000F0EEFD40F23F11532000F0E9FD002118
:1051D000612000F0E5FD00216A2000F0E1FD4FF4C0
:1051E0004071922000F0DCFD0521932000F0D8FDF5
:1051F0004FF48071072000F0D3FD37E20D4880881E
:1052000044F2315188427CD10121002000F0C8FDD8
:105210000A2004F003FD41F22861102000F0C0FDD7
:105220000E21122000F0BCFD40F63921132000F0C1
:10523000B7FD01E0580200200A2004F0EFFC4021F5
:10524000112000F0ADFD5021152000F0A9FD0A202D
:1052500004F0E4FC1E21122000F0A2FD0A2004F05C
:10526000DDFC4FF4B151102000F09AFD42F63921D7
:10527000132000F095FD0A2004F0D0FC4FF480715B
:10528000012000F08DFD4FF44071022000F088FDF8
:1052900041F23801032000F083FD40F20221082092
:1052A00000F07EFD08210A2000F07AFD0021302068
:1052B00000F076FD40F20241312000F071FD4FF424
:1052C0008371322000F06CFD40F20351332000F076
:1052D00067FD4FF48271342000F062FD40F201312D
:1052E000352000F05DFD40F20771362000F058FDDA
:1052F00040F20531372000F053FD4FF402713820A1
:1053000000E040E000F04CFD40F60B71392000F069
:1053100047FD0221412000F043FD4FF41C51602065
:1053200000F03EFD0121612000F03AFD4FF40471D0
:10533000902000F035FD4FF48571922000F030FD93
:105340000421932000F02CFD4FF48071A02000F088
:1053500027FD0121072000F023FD2121072000F077
:105360001FFD2321072000F01BFD3321072000F043
:1053700017FD40F23311072000F012FD0021A0209C
:1053800000F00EFD72E1BF48808844F2355188423A
:105390007ED13021152000F003FD10219A2000F06D
:1053A000FFFC2021112000F0FBFC43F228411020DB
:1053B00000F0F6FC0221122000F0F2FC41F238016C
:1053C000132000F0EDFC282004F028FC12210846F0
:1053D00000F0E6FC282004F021FC43F220411020DC
:1053E00000F0DEFC43F23801132000F0D9FC462027
:1053F00004F014FC0021302000F0D2FC40F2024105
:10540000312000F0CDFC40F20731322000F0C8FC22
:105410004FF44171332000F0C3FC0421342000F02C
:10542000BFFC40F20141352000F0BAFC40F20771A8
:10543000362000F0B5FC40F20531372000F0B0FC1A
:105440004FF4C261382000F0ABFC4FF4C261392048
:1054500000F0A6FC4FF48071012000F0A1FC4FF495
:105460004071022000F09CFC41F23001032000F06A
:1054700097FC40F60801082000F092FC08210A2061
:1054800000F08EFC4FF41C51602000F089FC00E01D
:1054900031E00121612000F083FC4FF49F719020E6
:1054A00000F07EFC4FF48071922000F079FC4FF404
:1054B0008071932000F074FC4FF44051A02000F064
:1054C0006FFC1021A32000F06BFC0121072000F0ED
:1054D00067FC2121072000F063FC2321072000F056
:1054E0005FFC3321072000F05BFC40F23311072002
:1054F00000F056FCBAE06348808841F663118842A8
:10550000F8D1E22000F03CFC232000F033FC022024
:1055100000F030FC042000F02DFC642004F0A4FB1B
:10552000E02000F02DFC012000F024FC0A2004F013
:1055300075FBE02000F024FC032000F01BFC0C2095
:1055400004F06CFB012000F01BFC0A2004F066FB59
:10555000E62000F015FC032000F00CFCFF2000F01A
:1055600009FCFF2000F006FCB02000F009FC202020
:1055700000F000FC002000F0FDFB032000F0FAFB2F
:1055800040F21F3000F0F6FB012000F0F3FB40F288
:10559000DF1000F0EFFB002000F0ECFBB42000F087
:1055A000EFFB042000F0E6FB40F21F4000F0E2FBBE
:1055B000002000F0DFFBD22000F0DCFB002000F038
:1055C000D9FB002000F0D6FB002000F0D3FB002028
:1055D00000F0D0FBB62000F0D3FB022000F0CAFBA5
:1055E0004FF4037000F0C6FB002000F0C3FB222044
:1055F00000F0C0FB092000F0BDFB002000F0BAFB6A
:10560000002000F0B7FBF02000F0BAFB032000F010
:10561000B1FB292000F0B4FBD02000F0B1FB00204A
:1056200000F0A8FBBE2000F0ABFB052000F0A2FBC1
:10563000FE2000F09FFB012000F09CFBFF2000F00B
:1056400099FB002000F096FBB82000F099FB0F209A
:1056500000F090FB012000F08DFBBA2000F090FBE1
:10566000012000F087FB642000F032F80020FCF7F6
:10567000B9FA0120044908604FF6FF70FCF77CFA84
:105680001FB000BD580200208081214210B50246A3
:10569000012000E050430B00A1F10104E1B2F9D177
:1056A00010BD000008B5034800880090BDF8000058
:1056B00008BD00000008006C10B50446204600F04C
:1056C0005FFB052004F0D0FAFFF7ECFF10BD0000EF
:1056D0002DE9F0470446BE2000F052FB052000F003
:1056E00049FB204604F0A5FD07464FF066320C4BFF
:1056F00004F0B2FD054604F06FFD1FFA80F948463C
:1057000000F038FB012000F035FBFF2000F032FBF9
:10571000002000F02FFB002000F02CFBBDE8F087FC
:105720006666044070B5044600230026B7488079B9
:1057300001280BD1B548808846F60401884205D07F
:10574000B248808841F66311884208D1AF48807919
:10575000F0B9AE48808841F66311884218D1082C10
:1057600015D2DFE804F00406080A0C0E1012062415
:105770000DE007240BE0042409E0052407E00124E0
:1057800005E0002403E0032401E0022400BF00BF81
:105790009E48808849F24131884217D09B488088D2
:1057A00046F60401884211D09848808845F21031AD
:1057B00088420BD09548808845F21051884205D028
:1057C0009248808841F6631188427DD1082C1CD212
:1057D000DFE804F00406090C0F12151800BF14E0EE
:1057E00043F0800311E043F040030EE043F0C003B8
:1057F0000BE043F0200308E043F0600305E043F0D2
:10580000A00302E043F0E00300BF00BF7F488088B0
:1058100045F21051884202D14FF4585600E0362626
:105820007A48808845F2103188420DD077488088C8
:1058300045F21051884207D07448808841F66311C0
:10584000884201D043F008037048808846F604017E
:10585000884201D143F002031946304600F0A0FA15
:105860006A48808841F6631188421DD003F0200009
:1058700068B16648008865494988884214DA6348F7
:105880000588408861490880084645800CE05F48EB
:1058900000885E494988884206DD5C480588408862
:1058A0005A490880084645805848808845F210517A
:1058B000884254D15549488900F062FA002000F02E
:1058C00059FA5249498900E078E0491C88B200F051
:1058D00057FA002000F04EFA4C494989891C88B2D9
:1058E00000F04EFA49490988491EC1F30F2000F023
:1058F00041FA46494989C91C88B200F041FA434936
:105900000978491EC8B200F035FA4049888900F08C
:1059100037FA002000F02EFA3C498989491C88B2E8
:1059200000F02EFA002000F025FA38498989891CF8
:1059300088B200F025FA35494988491EC1F30F2085
:1059400000F018FA31498989C91C88B200F018FAA8
:105950002E498978491EC8B200F00CFA55E02B494F
:10596000488900F00DFA002000F004FA002000F051
:1059700001FA26490988491EC1F30F2000F0FAF9FF
:1059800022490978491EC8B200F0F4F91F498889F4
:1059900000F0F6F9002000F0EDF9002000F0EAF93F
:1059A0001A494988491EC1F30F2000F0E3F917494D
:1059B0008978491EC8B200F0DDF926E0082C1CD217
:1059C000DFE804F004070A0D0F12151843F0300346
:1059D00013E043F0100310E043F020030DE000BF9C
:1059E0000BE043F0380308E043F0280305E043F000
:1059F000180302E043F0080300BF00BF032643F48E
:105A000080531946304600F0CBF970BD5802002093
:105A100010B503460C466748808849F241318842F8
:105A200005D06448808845F21031884214D161491C
:105A3000488900F0A5F9181200F09CF9D8B200F0DE
:105A400099F95C49888900F09BF9201200F092F9DD
:105A5000E0B200F08FF9ABE05648808846F60401CA
:105A600088421DD153488079012804D151480088CB
:105A7000401EC01A83B24F49488900F081F91812BC
:105A800000F078F9D8B200F075F94A49888900F039
:105A900077F9201200F06EF9E0B200F06BF987E0C0
:105AA0004448808841F66311884247D14148807953
:105AB000A8B940480088401EC01A83B23D494889B1
:105AC00000F05EF9002000F055F9002000F052F9D6
:105AD000181200F04FF9D8B200F04CF916E0354931
