:020000040801F1
:1000000080FB00201D320108690201086B02010813
:100010006F02010873020108770201080000000066
:100020000000000000000000000000007B0201084A
:100030007D020108000000007F0201088102010822
:10004000373201083732010837320108EF0D010855
:1000500037320108373201083732010837320108D8
:1000600037320108373201083732010837320108C8
:1000700037320108373201083732010837320108B8
:1000800037320108373201083732010837320108A8
:100090003732010837320108373201083732010898
:1000A00037320108270A01083732010837320108C0
:1000B0003732010837320108373201083732010878
:1000C0003732010837320108373201083732010868
:1000D00037320108913101083732010837320108FF
:1000E0003732010837320108373201083732010848
:1000F0003732010837320108373201083732010838
:10010000373201084D2E0108373201083732010815
:100110003732010837320108373201083732010817
:100120003732010837320108373201083732010807
:1001300000F002F800F042F80AA090E8000C8244B7
:100140008344AAF10107DA4501D100F037F8AFF294
:10015000090EBAE80F0013F0010F18BFFB1A43F0A5
:1001600001031847C0650000E0650000103A24BF95
:1001700078C878C1FAD8520724BF30C830C144BF0C
:1001800004680C607047000000230024002500264E
:10019000103A28BF78C1FBD8520728BF30C148BFEA
:1001A0000B607047642906F0CF80782906F008813B
:1001B000002070471FB51FBD10B510BD06F056FAE0
:1001C0001146FFF7F7FF00F035F806F074FA03B4B4
:1001D000FFF7F2FF03BC02F081FF000008B502F058
:1001E0000DFF4FF4A06003F039F84FF4E13002F056
:1001F00083FF00F09BFA00F0BFFA41F61F4144F67E
:100200001F6000F0E1FB002004230822072100907A
:1002100000F01EFB40F2E241042000F089FE00F0F5
:1002200086FD00F03FFF002005F04DFF06A006F020
:100230004BF808BD0A480B490860FFF7CFFF01E003
:1002400000F001FAFCE700000D0A20202020627275
:10025000616B65207374617274212020200D0A0087
:100260000000010808ED00E0704700BFFEE700BF96
:10027000FEE700BFFEE700BFFEE77047704770472C
:10028000704700000CB50020019000906C48006899
:1002900040F480306A49086000BF6948006800F493
:1002A000003000900198401C0190009818B9019806
:1002B000B0F5A06FF1D16248006800F4003010B1D1
:1002C0000120009001E0002000900098012843D117
:1002D0005C48006840F010005A4908600846006811
:1002E00020F0030008600846006840F00200086043
:1002F000534840685249486008464068486008468C
:10030000406840F4806048600846406820F47C10F3
:1003100048600846406840F4E810486008460068B5
:1003200040F08070086000BF4548006800F0007031
:100330000028F9D04248406820F003004049486056
:100340000846406840F00200486000BF3C484068F2
:1003500000F00C000828F9D10CBD10B5FFF792FF92
:1003600010BD10B53648006840F0010034490860FF
:1003700008464068344908403149486008460068EA
:10038000324908402E4908600846006820F4802061
:1003900008600846406820F4FE0048604FF41F00E3
:1003A0008860FFF7DAFF4FF000602949086010BD50
:1003B00010B5002100200022214B5B6803F00C01E6
:1003C00021B1042906D0082928D107E0214B224C6D
:1003D000236027E01F4B204C236023E0184B5B6811
:1003E00003F47010164B5B6803F48032022303EBB6
:1003F000904022B9194B4343174C23600DE0104B3A
:100400005B6803F4003323B1144B4343124C236065
:1004100003E0104B4343104C236003E00D4B0E4CA4
:10042000236000BF00BF064B5B68C3F303130C4C93
:10043000E15C094B1B68CB40074C236010BD0000FA
:1004400000100240002002400000FFF8FFFFF6FE0F
:1004500008ED00E000127A0000D0002000093D0005
:1004600004D0002030B58FB0044614210AA806F04D
:1004700018F8142105A806F014F88648006800282A
:100480007DD0854800788DF8280083480088000AD0
:100490008DF8290080480068000C8DF82A007E48FD
:1004A0000068000E8DF82B007C488088C0B28DF863
:1004B0002C007A488088000A8DF82D0077488079D2
:1004C0008DF82E007548C0798DF82F00734800789C
:1004D0008DF83000714840788DF831006F48807891
:1004E0008DF8320020788DF8330060788DF8340074
:1004F000A0788DF83500E0788DF8360020798DF8F9
:10050000370060798DF83800A0798DF83900E079EE
:100510008DF83A006048006800EB800081001322EB
:100520000AA800F0BAFE5C48006800EB8000810079
:10053000132205A800F015FE9DF81E009DF81D1061
:100540009DF81C20CDE9002102909DF818009DF82F
:10055000195040EA05219DF81B309DF81A2050A043
:1005600005F0B2FE9DF826009DF825109DF8242088
:100570009DF82330CDE90132CDE9031000E037E0EA
:100580009DF8220000909DF821309DF820209DF8D4
:100590001F1048A005F098FE3F480068FF2805DCC2
:1005A0009DF8141048A005F08FFE1CE03A48006842
:1005B0004FF6FF71884209DA9DF814009DF8152066
:1005C00040EA022140A005F07FFE0CE09DF81400F7
:1005D0009DF8152040EA02209DF8162040EA0241CD
:1005E00039A005F071FE2C480068401C2A490860BB
:1005F0000FB030BD1CB50024002000900190FF20FA
:100600008DF8050000208DF8060002208DF8070007
:1006100020480068B0B12F48006898B100202D49EB
:1006200008601C4908600821684600F079F9044612
:1006300024B1214628A005F047FE03E021462DA065
:1006400005F042FE1CBD10B5002000F0AFF80446D6
:10065000012C06D100200F4908602CA005F034FEC3
:1006600007E0022C05D101200A4908602BA005F003
:100670002BFE10BD0120174908607047154800681F
:10068000012800D170470020FCE7012001490860E3
:100690007047000018D0002014D0002078D000202F
:1006A0002025642D25642D25642D25643A25643A82
:1006B000256420002025782578257825782578253B
:1006C000782578257820000020636E742564200D3D
:1006D0000A0000001CD00020202073746F70204698
:1006E00061696C6564202074656D703D256420200F
:1006F00000000000202073746F70204F4B20207486
:10070000656D703D25642020000000002020657884
:100710006974204F4B20202020000000202073749B
:10072000617274204F4B20200000000008B50121A9
:10073000482003F01DF92020ADF8000010208DF8AE
:10074000030003208DF802006946094802F054FEB8
:100750002021074802F0FDFE2020ADF80000694688
:10076000044802F049FE2021024802F0F2FE08BDD2
:10077000000C01400018014008B50121442003F09D
:10078000F7F81820ADF8000048208DF803006946FE
:100790002C4802F031FE0120ADF8000028208DF831
:1007A00003006946284802F027FE08BD10B504463C
:1007B00014B10120254908702448007858B310214D
:1007C000204802F0ACFE50B108211E4802F0A7FEFE
:1007D00028B101211C4802F0A2FE01281BD10A20E9
:1007E00002F049FC0020194908701021154802F058
:1007F00096FE08B9012010BD0821124802F08FFEB4
:1008000008B90220F7E701210F4802F088FE01280D
:1008100015D10320EFE710210A4802F080FE0128DD
:100820000DD10821074802F07AFE012807D10121E5
:10083000054802F074FE10B9012004490870002038
:10084000D9E70000001801400008014020D0002036
:100850002DE9F04188B004460D4616461F46DDF8E6
:1008600038800121042003F083F80121480603F0B9
:100870008CF84FF48050ADF81C0003208DF81E005A
:1008800018208DF81F0007A94D4802F0B5FD4FF460
:100890000060ADF81C0048208DF81F0007A94848EB
:1008A00002F0AAFD00208DF816008DF817008DF8D3
:1008B000180001208DF8190000208DF81A008DF81D
:1008C0001B008DF812808DF813408DF814608DF8A0
:1008D0001550ADF8107004A93A4803F0C6F800208E
:1008E0008DF80A008DF80B0001208DF80C002020F7
:1008F000ADF800000020ADF802004FF6FF70ADF833
:100900000400ADF806000020ADF8080001208DF8C5
:100910000D00684603F033F9002008B0BDE8F0810F
:10092000F0B585B007460D46002401200090002058
:1009300001908DF808008DF809008DF80A5000BF6D
:1009400005E0395D0DF10B000155601C84B2AC422D
:10095000F7DB69461B4803F001FA0646002401E074
:10096000601C84B23146174803F090FA18B940F67B
:10097000FF708442F4DB40F6FF70844202DB01200A
:1009800005B0F0BD0020FBE730B585B0054600217D
:100990000C4803F05BFB10B9002005B030BD6A467F
:1009A0000021084803F0CFFA002404E00DF10B0009
:1009B000005D2855641C082CF8D39DF80A00ECE76C
:1009C00000080140006400407FB505460C46012147
:1009D000C80202F0CDFFADF80850ADF80440002089
:1009E000ADF80A00ADF806008DF80C0001A92F48FB
:1009F00003F0F2FF012211462C4804F064FB192099
:100A00008DF8000000208DF8010003208DF8020011
:100A100001208DF80300684602F025FC01212348DF
:100A200004F036FB7FBD1CB500200090019000242F
:100A300001211E4804F0F5FD002835D001211B4896
:100A400004F000FE1A48006808B9012000E0002008
:100A50001749086000F07EFA6846FFF795FF0446E4
:100A6000082C16D113480068401C1249086008463B
:100A70000068052801DD052008600E48006805288B
:100A800012D1FFF702FEFFF7F5FD6846FFF7EAFC1B
:100A90000AE0082C08D007480068052804D1002087
:100AA00004490860FFF7A6FD1CBD0000002C0140B2
:100AB0009401234224D0002008B503208DF80000C3
:100AC00000208DF801008DF8020001208DF8030050
:100AD000684602F0C8FB08BDF0B503460C46154653
:100AE000642093FBF0F0C6B2642093FBF0F700FBA8
:100AF0001730C1B2132E02DD01F16400C1B2084605
:100B0000CF1701EB977701EBA707BAB2072092FB4B
:100B1000F0F700FB172082B25719601EDFF8D4C32C
:100B20001CF80000384482B2CF1701EB9777BF1052
:100B3000A1EB87071FB9032C01DA501E82B20720F0
:100B400092FBF0F700FB1720C0B2F0BD0146CA17B8
:100B500001EB92729210A1EB820292B9642091FB98
:100B6000F0F200FB121050B94FF4C87091FBF0F294
:100B700000FB121008B9012070470020FCE701209B
:100B8000FAE70020F8E770B500260024002504F0FD
:100B90007DFD0646D848B6FBF0F4D8480088A04250
:100BA0003CD0D6490C8040F2B27510E02846FFF7E1
:100BB000CDFF40B1B4F5B77F02D3A4F5B77404E01C
:100BC000681C85B206E0A4F26D14681C85B2B4F509
:100BD000B67FEBD800BFCA488580002516E0C8491B
:100BE0008888FFF7B3FF30B1012D04D11D2C01D34C
:100BF0001D3C09E00CE0C348405DA04203D8C14859
:100C0000405D241A00E003E0681C85B21C2CE6D28B
:100C100000BF681CBA498871601CC871B648B6FB31
:100C2000F0F100FB11644FF46160B4FBF0F0B449E3
:100C300008704FF46160B4FBF0F100FB11403C21FF
:100C4000B0FBF1F0AE4948704FF46160B4FBF0F1D5
:100C500000FB11403C21B0FBF1F201FB1200A8495E
:100C600088700B46DA7999799888FFF735FFA4499F
:100C70000872002070BD2DE9F05F06460F469046D1
:100C80009946DDE90AAB002440F2B270864203DBEC
:100C900040F63300864202DD0120BDE8F09F40F2BD
:100CA000B2750AE02846FFF751FF10B19648044498
:100CB00001E096480444681C85B2B542F2DB781E18
:100CC000C7B2002510E08F48405D40F2A3214843A1
:100CD00004EBC0143046FFF739FF18B1012D01D1E4
:100CE00085480444681C85B2BD42ECDBA8F10100D4
:100CF00040F2A321484304EBC014C9EB4910C0EBF8
:100D0000092004EB0014CAEB0A1004EB80045C44D5
:100D100001214FF0C05002F038FE012004F0A7FD81
:100D2000204604F0BCFC04F0EDFC0020B5E71CB547
:100D3000002401214FF0C05002F027FE012004F0F2
:100D400096FD042004F05BFD45F25001884240D03E
:100D500004F020FD012002F078FD04E0601CC4B224
:100D60000A2002F088F9412002F0D7FC08B9FA2CD9
:100D7000F4DBFA2C01DB01201CBD4FF4807002F083
:100D800080FD012002F083FD04F0BCFC04F0C3FCF4
:100D90000121084604F05AFC04F0B4FC04F063FCA2
:100DA00047F6FF7004F088FC04F0ACFC37202E21DD
:100DB0000A231922CDE90010032140F2E470FFF765
:100DC0005AFF04F059FC45F25001042004F00BFDD9
:100DD00007E004F0A0FC0121084604F037FC04F011
:100DE00091FCFFF769FEFFF7CEFE0020C4E70EB5C9
:100DF000012004F0B5FC08B1FFF7C5FE022004F0A5
:100E0000AFFCA0B1022004F0BBFCFFF7BCFE3C48E5
:100E100080783B4949783A4A1278CDE9002102901E
:100E20003748C3798279818839A005F04DFA0520C9
:100E300004F0A6FC04F066FC0EBD2DE9F05F06464A
:100E40000F4690469946DDE90AAB002440F2B270A5
:100E5000864203DB40F63300864202DD0120BDE816
:100E6000F09F40F2B2750AE02846FFF76FFE10B11E
:100E70002548044401E025480444681C85B2B54275
:100E8000F2DB781EC7B2002510E01E48405D40F23C
:100E9000A321484304EBC0143046FFF757FE18B1B6
:100EA000012D01D114480444681C85B2BD42ECDB1D
:100EB000A8F1010040F2A321484304EBC014C9EBA0
:100EC0004910C0EB092004EB0014CAEB0A1004EB34
:100ED00080045C4401214FF0C05002F056FD012017
:100EE00004F0C5FC204604F0F5FB04F00BFC0020E8
:100EF000B5E70000CC6601088051010028D0002031
:100F000078D00020D86601080085E2018033E10135
:100F1000416C61726D2054696D653A25642D2564BC
:100F20002D25642025643A25643A25640A000000D2
:100F300070B505460C4645F2555004F0F3FC2846C2
:100F400004F0F3FC204604F0F3FC04F0F4FC04F09D
:100F5000F7FC70BD10B504F0EEFC10BD70B5054691
:100F6000002405E0601CC4B2C82C01DD002070BD67
:100F700002213A4804F045FE0028F3D029463748BC
:100F800004F0ECFD002405E0601CC4B2C82C01DDB7
:100F90000020ECE70121314804F033FE0028F3D0B3
:100FA0002E4804F0DDFDC0B2E1E700B587B00121B5
:100FB000082002F0DDFC0121880302F0E6FC4FF47A
:100FC0006040ADF8180018208DF81B0003208DF844
:100FD0001A0006A9224802F00FFA4FF46041204897
:100FE00002F0B7FA0020ADF804004FF48270ADF8BB
:100FF00006000020ADF808000220ADF80A0001202C
:10100000ADF80C004002ADF80E003820ADF810002D
:101010000020ADF812000720ADF8140001A90F4818
:1010200004F0C6FC01210D4804F067FDFF20FFF726
:1010300095FF07B000BD10B50446084800884FF67C
:10104000C771084005490880084600882043088089
:101050000121024804F051FD10BD0000003800409D
:10106000000C014010B500240020D14908609020F8
:10107000FFF774FF0020FFF771FF0020FFF76EFFFE
:101080000020FFF76BFFFF20FFF768FF44EA002412
:10109000FF20FFF763FF04430120C649C1F8B001F8
:1010A000204610BD08B50121082002F061FC4FF474
:1010B0008050ADF8000010208DF8030003208DF85B
:1010C00002006946BC4802F097F94FF48051BA48D3
:1010D00002F03FFA0120B6490860FFF766FF0020E2
:1010E000FFF7A9FFFFF7BEFFB449088008BD10B5A0
:1010F00000240020AE4908600520FFF72FFFFF20E5
:10110000FFF72CFF04460120AA49C1F8B001204690
:1011100010BD10B504460020A54908600120FFF766
:101120001DFF2046FFF71AFF0120A249C1F8B001B8
:1011300010BD10B500209E4908600620FFF70EFF85
:1011400001209C49C1F8B00110BD10B5002098499C
:1011500008600420FFF702FF01209649C1F8B001A2
:1011600010BD2DE9F04106460C4617460020904977
:1011700008600320FFF7F2FEC4F30740FFF7EEFE1E
:10118000C4F30720FFF7EAFEE0B2FFF7E7FE002511
:1011900005E0FF20FFF7E2FE7055681C85B2BD42F6
:1011A000F7DB012082490860BDE8F08110B500BF7F
:1011B000FFF79DFF00F001000028F9D110BD2DE9D7
:1011C000F04106460C461746FFF7B3FF002078496A
:1011D00008600220FFF7C2FEC4F30740FFF7BEFE1F
:1011E000C4F30720FFF7BAFEE0B2FFF7B7FE002511
:1011F00004E0705DFFF7B2FE681C85B2BD42F8DB0B
:1012000001206B490860FFF7D1FFBDE8F0812DE9AF
:10121000F04107460E461446F0B2C0F58075AC4268
:1012200000DC254612E02A4631463846FFF7C7FF64
:10123000AC4200D10BE02F442E44601B84B2B4F5C5
:10124000807F02DD4FF4807500E02546EBE700BFAC
:10125000BDE8F08110B50446214659A005F034F8E8
:101260002403FFF766FFFFF7A1FF00205049086045
:101270002020FFF773FEC4F30740FFF76FFEC4F3AF
:101280000720FFF76BFEE0B2FFF768FE0120494937
:10129000C1F8B001FFF78AFF10BD2DE9F05F81466C
:1012A0000F461646DFF820B14FEA1738C7F30B0A8E
:1012B000CAF58054A64200DC344644E04FEA0831C7
:1012C0004FF480525846FFF74CFF002508E00AEB28
:1012D00005001BF80000FF2800D003E0681C85B261
:1012E000A542F4DB00BFA54216DA4046FFF7B2FF85
:1012F000002507E019F8050005EB0A010BF80100CD
:10130000681C85B2A542F5DB4FEA08314FF48052E4
:101310005846FFF77CFF04E0224639464846FFF76F
:1013200076FFA64200D10FE008F101084FF0000A55
:10133000A1442744301B86B2B6F5805F02DD4FF42E
:10134000805400E03446B9E700BFBDE8F09F10B517
:10135000FFF7EFFEFFF72AFF002015490860C720BE
:10136000FFF7FCFD01201349C1F8B001FFF71EFF94
:1013700010BD10B500200E490860B920FFF7EEFD42
:1013800001200C49C1F8B001032001F050FE10BD4E
:1013900010B5002006490860AB20FFF7DFFD0120F3
:1013A0000449C1F8B001032001F041FE10BD000066
:1013B000B081214200802142000C01402AD000204F
:1013C00066653A25780D0A0082D00020014600208B
:1013D000012900D011B9FE4B197000E0262070479A
:1013E0000146FC4A506820F0FF00084350607047F7
:1013F00070B5044605E0F748456B05F0450000B1BF
:1014000000E0F8E700BF042004F0F7FC20B104205E
:1014100004F0FDFC032070BD012004F0EEFC20B1BF
:10142000012004F0F4FC0120F5E7EA480069A0423D
:1014300001D01020EFE740F2FF50E64988630846EC
:10144000406908210840C0B2E5E72DE9FC410746A4
:101450000D46002600240020009001900820DE495F
:10146000086010204860402088600020C8604FF469
:1014700080600861084604F049FC1020FFF7B8FFBF
:10148000044614B12046BDE8FC81D448008800041D
:10149000D149086037204860402088600020C8603B
:1014A0004FF480600861084604F030FC3720FFF7F5
:1014B0009FFF04460CB12046E5E74FF0FF30C849D6
:1014C000086008204860302088600220C860002042
:1014D000086101204861084604F041FC0020BE4933
:1014E000086033204860402088600020C8604FF4C6
:1014F00080600861084604F009FC3320FFF778FF9C
:1015000004460CB12046BEE70CE04FF4001004F096
:1015100074FC38B104F045FC4DF82600761C022E10
:1015200000D306E0AB48406B40F22A610840002837
:10153000EBD000BF082004F060FC20B1082004F0CC
:1015400066FC04209FE7022004F057FC20B1022033
:1015500004F05DFC022096E7202004F04EFC20B150
:10156000202004F054FC06208DE74FF4007004F0B6
:1015700044FC28B14FF4007004F049FC072082E7D6
:1015800040F2FF5004F043FC00980006009901F47B
:101590007F4140EA0120009901F47F0140EA1120D7
:1015A000009940EA1160686001980006019901F411
:1015B0007F4140EA0120019901F47F0140EA1120B6
:1015C000019940EA1160286020465CE77CB5054639
:1015D000002400200090019000260DB1022600E0BA
:1015E00000267C48406900F0007008B10E207CBDE8
:1015F0007A49098888B26946FFF727FF04460CB18B
:101600002046F4E7019800F4802060B37348008816
:10161000000471490860372048604020886000203D
:10162000C8604FF480600861084604F06FFB372003
:10163000FFF7DEFE04460CB12046D8E76648066098
:10164000062065494860402088600020C8604FF44B
:1016500080600861084604F059FB0620FFF7C8FEC9
:1016600004462046C3E72520C1E770B5044600259F
:101670005C480078032801D1272070BD59480078C4
:1016800038B158480078012803D05648007802281D
:1016900018D1022C01D32720EFE7E0B2FFF796FF25
:1016A00005467DB94B48406820F4C0504949486020
:1016B00008464068A1B240EAC12046494860084651
:1016C000406848602846D8E710B5044642480460A0
:1016D000072041494860402088600020C8604FF4DE
:1016E00080600861084604F011FB0720FFF780FEC8
:1016F00010BDF0B50146002000223A4B1B7881F85E
:101700005630364B1B88A1F85430374B1B681A0EE5
:1017100093090B70C2F383034B7002F003038B70C9
:10172000314B1B68C3F30742CA702F4B1B88C3F3AE
:1017300007220A712C4B1A784A715B681A0E130142
:10174000CB80294B5B68C3F30742CB8843EA121373
:10175000CB8002F00F030B72234B9B88C3F307224D
:10176000D3094B72C2F380138B72C2F34013CB7256
:10177000C2F300130B7300234B731A4B1B783BB15E
:10178000184B1B78012B03D0164B1B78032B5ED113
:1017900093071B0D0B61144B1A790B6943EA820303
:1017A0000B61114B9B681A0E0B6943EA92130B6194
:1017B000C2F3C2030B7502F007034B750A4B9B681B
:1017C000C3F3074253098B75C2F38203CB750DE057
:1017D00034D0002000800140A0E0002030D0002064
:1017E000B4E000202CD00020CCE0002093075B0F59
:1017F0000B76F74B1B89C3F307220B7E43EAD21308
:101800000B760B695B1C0024C1E912340B7E9B1C18
:10181000012404FA03F3DC17D1E91256A5FB037C7B
:1018200006FB03C305FB0433C1E912730C7A0123E1
:10183000A3400B650024D1E912650B6DA6FB037C68
:1018400005FB03C306FB0433C1E912732EE0E14B31
:101850001B78022B2AD1DE4B1A7993069B0A0B6167
:10186000DB4B9B681A0E0B6943EA02230B61D84BD2
:101870009B68C3F307420B6913430B61D44B1B896D
:10188000C3F307220B695B1C4FF40074A3FB0446EF
:101890004FF480630025A4FB037C06FB03C304FB19
:1018A0000533C1E912734FF400730B65C2F3801363
:1018B00001F8193F93065B0E4B70C54B1A7A4B78B3
:1018C00043EAD2134B7002F07F038B70C04BDB688E
:1018D0001A0ED309CB70C2F341130B71C2F382030A
:1018E0004B7193071B0F8B71B94BDB68C3F3074236
:1018F0008B7943EA92138B71C2F34013CB710023AF
:101900000B7202F001034B72B14B9B89C3F30722A8
:10191000D3098B72C2F38013CB72C2F340130B73E3
:10192000C2F300134B73C2F381038B7302F0030302
:10193000CB73A74B1A7B53080B7401234B74A64B34
:101940001B681A0ECA741939A34B1B68C3F30742EC
:101950001402CC85A04B1B88C3F30722CB8D134305
:10196000CB859D4B1A7814060C635B681A0E0B6BC3
:1019700043EA02440C63984B5B68C3F307420B6B6A
:1019800043EA02240C63944B9B88C3F307220B6B3E
:1019900013430B63904B1A7934235A548E4B9B6834
:1019A0001A0E35235A548C4B9B68C3F30742140616
:1019B0008C63894B1B89C3F307228B6B43EA024478
:1019C0008C63854B1A7A8B6B43EA02248C63824BBF
:1019D000DB681A0E8B6B13438B637F4BDB68C3F39F
:1019E00007423C235B5C43EA12143C235C5413071C
:1019F0001C0DCC87784B9B89C3F30722CB8F1343F5
:101A0000CB87754B1A7B540840235C540124412337
:101A10005C54F0BD70B500264FF4803505E06F488A
:101A2000446B04F0450000B103E02800A5F1010576
:101A3000F5D100BF15B104F0040028B1032604203D
:101A400004F0E5F9304670BD012004F0D6F918B174
:101A50000126012004F0DBF940F2FF5004F0D7F931
:101A60003046F0E72DE9F04105460E464FF00008FC
:101A700005E05A48476B07F0450000B100E0F8E781
:101A800000BF042004F0B9F928B1042004F0BFF924
:101A90000320BDE8F081012004F0AFF920B101205E
:101AA00004F0B5F90120F4E74C480069A84201D0E0
:101AB0001020EEE740F2FF5004F0A9F947484469CE
:101AC00004F4604018B9200C30804046E1E704F48B
:101AD000005008B11320DCE704F4804008B1102066
:101AE000D7E704F4004008B10F20D2E74046D0E722
:101AF00038B500240120009004F0F3F808B925203F
:101B000038BD34480078042821D0002034490860CA
:101B100002204860C02088600020C8604FF48060C8
:101B20000861084604F0F2F8FFF774FF04460CB1B0
:101B30002046E5E729484069274908602748806929
:101B400048602648C06988602448006AC860214807
:101B5000007858B11F480078012807D01D48007848
:101B6000062803D01B480078022816D100201C4903
:101B7000086003204860402088600020C8604FF45F
:101B800080600861084604F0C1F869460320FFF749
:101B900069FF04460CB12046B2E70E4800780328DE
:101BA00020D1BDF8000000040D4908600320486002
:101BB000402088600020C8604FF4806008610846BB
:101BC00004F0A4F8FFF726FF04465CB1204697E72F
:101BD000CCE000202CD00020DCE000200080014080
:101BE000A0E00020FE480078042827D0BDF80000BF
:101BF000FC490860BDF800000004FB4908600920AA
:101C00004860C02088600020C8604FF48060086190
:101C1000084604F07BF8FFF7FDFE04460CB12046B1
:101C20006EE7F2484069F2490860F0488069486010
:101C3000EE48C0698860ED48006AC86000205FE730
:101C400010B505E0E948446B04F0450000B100E040
:101C5000F8E700BF042004F0D0F820B1042004F01D
:101C6000D6F8032010BD40F2FF5004F0D0F8002059
:101C7000F8E770B500264FF4803505E0DB48446B8B
:101C800004F0450000B103E02800A5F10105F5D1FD
:101C900000BF15B104F0040028B10326042004F0AD
:101CA000B6F8304670BD04F0400018B10026402060
:101CB00004F0ADF83046F5E770B500254FF48034F8
:101CC00004E0802004F099F800B103E02000A4F1C2
:101CD0000104F6D100BF0CB9032070BD40F2FF50E3
:101CE00004F095F82846F8E72DE9F047002700248E
:101CF00000260025A046A146B220BE490875002056
:101D0000086048608860C8600861084603F0BEFF4C
:101D1000032003F0DBFF012003F0D5FF00BF12E03A
:101D20000020B149086048608860C8604FF4806056
:101D30000861084603F0EAFFFFF7BEFF044604B956
:101D400003E0781CC7B24A2FEADB00BF14B120467B
:101D5000BDE8F0874FF4D570A349086008204860BB
:101D6000402088600020C8604FF480600861084609
:101D700003F0CCFFFFF77DFF044624B9012098490A
:101D800008704FF08049002097490860372048606C
:101D9000402088600020C8604FF4806008610846D9
:101DA00003F0B4FF3720FFF723FB0446002C4BD190
:101DB00034E000208C49086037204860402088606B
:101DC0000020C8604FF480600861084603F09EFF61
:101DD0003720FFF70DFB04460CB12046B8E78648D4
:101DE00049EA000080490860292048604020886056
:101DF0000020C8604FF480600861084603F086FF49
:101E0000FFF71EFF04460CB12046A1E7774846695C
:101E1000012080EAD67080F001086D1CB8F1000F37
:101E200003D14FF6FF708542C3D34FF6FF70854252
:101E300002D31B2420468BE706F08040060032D0F8
:101E40000220674908702EE01CE06C486649086073
:101E500001204860402088600020C8604FF4806006
:101E60000861084603F052FFFFF7EAFE04460CB192
:101E700020466DE75D484669012080EAD67080F013
:101E800001086D1CB8F1000F03D14FF6FF708542B9
:101E9000DBD34FF6FF70854202D31B24204657E761
:101EA00003204F490870204652E77CB500250024E6
:101EB0000121302001F05CFD012140F2024001F0DF
:101EC0004AFD4FF4F850ADF8000018208DF80300DB
:101ED00003208DF802006946494801F08DFA04207C
:101EE000ADF8000018208DF8030003208DF80200E3
:101EF0006946444801F080FA8020ADF8000048208F
:101F00008DF8030003208DF8020069463D4801F07A
:101F100073FA03F0ADFE31208DF8040000208DF837
:101F200005008DF8060001208DF8070001A801F0DA
:101F30009AF9FFF7D9FE044614B9FFF7D9FD044614
:101F40001CB93148FFF7D5FB044634B92E49B1F826
:101F500054100804FFF7B8FB04461CB90120FFF732
:101F600084FB04461CB11E480078032812D1264881
:101F700090F8560020B1244890F85600012801D16D
:101F80000A2500E004252846FFF72AFA0020FFF77B
:101F90001DFA044620467CBD10B5002003F096FED5
:101FA000002010BD70B58CB006460C4615460121C8
:101FB000022001F0D0FC154803F044FF0021134833
:101FC00004F00DF809488030019002960395A008AE
:101FD000049000200590802006908000079017E074
:101FE0002CD0002030D00020A0E000200080014054
:101FF000CCE0002088E00020000010800080FF80FE
:102000000010014000140140F0E0002044040240B0
:1020100080000890002009904FF400500A900020A2
:102020000B9001A9FA4803F0AFFF0021F84803F034
:10203000D6FF0CB070BD0146002002E04910421CE2
:10204000D0B20129FAD170472DE9F84F81461746E1
:1020500098460A9C4FF0000AD3464D464FF0FF3693
:10206000B9F1000F02D12620BDE8F88F0020E94920
:10207000C862E9480078022805D10402780A40EADB
:10208000C8574FEA68280020E44988604860401E2D
:102090000860012048610020C8600861084603F01C
:1020A0005EFEDC48406900F0007008B10E20DBE7FE
:1020B000002C21DDB4F5006F1EDC601E2040D8B975
:1020C0002046FFF7B8FF0090D54804601020D4499F
:1020D0004860402088600020C8604FF4806008613C
:1020E000084603F013FE1020FFF782F98246BAF18A
:1020F000000F03D05046B7E72620B5E7009800014F
:10210000C6498860084644604FF0FF3008600120EF
:1021100048610220C86000200861084603F01FFEE5
:10212000BF4807601120BE494860402088600020F9
:10213000C8604FF480600861084603F0E7FD112095
:10214000FFF756F98246BAF1000F01D050468BE7EF
:10215000B448007800285AD100F0BCFF18E04FF4D2
:10216000004003F04AFE78B14FF0000B06E0A948AA
:102170008030006845F82B000BF1010BBBF1080F14
:10218000F5D32035A84E03E00EB904206CE7761E87
:10219000A048406B40F22A6108400028DFD00820A8
:1021A00003F02BFE20B1082003F031FE04205BE792
:1021B000022003F022FE20B1022003F028FE0220BC
:1021C00052E7202003F019FE20B1202003F01FFE6B
:1021D000062049E74FF4007003F00FFE28B14FF4DA
:1021E000007003F014FE07203EE703E003F0D9FD82
:1021F00028602D1D4FF4001003F0FFFD0028F5D1DD
:1022000000F06AFF40F2FF5003F001FE32E0854823
:10221000007801282ED1002221464846FFF7C2FE51
:102220000020824908708249087082490870794804
:10223000C06B40F22A3108437649C863012003F09D
:1022400062FD00E0761E72484438006800F40050D9
:1022500038B97848007820B97448007808B9002E59
:10226000F0D10EB90420FFE67048007810B16F4835
:1022700090F800A05046F7E62DE9FF5F1746984614
:10228000DDE90E464FF00009CA464FF0FF356A49B6
:102290000098086000205F49C8625F480078022803
:1022A00005D10402780A40EAC8574FEA682800209E
:1022B0005A4988604860401E08600120486100203B
:1022C000C8600861084603F04AFD5248406900F0C2
:1022D000007018B10E2004B0BDE8F09F002C21DD85
:1022E000B4F5006F1EDC601E2040D8B92046FFF711
:1022F000A2FE83464A4804601020494948604020B5
:1023000088600020C8604FF480600861084603F0D0
:10231000FDFC1020FFF76CF88146B9F1000F03D0E7
:102320004846D8E72620D6E7012E70D906FB04F0F0
:10233000B0F1007F01D32620CDE74FEA0B103749DB
:10234000886006FB04F048604FF0FF300860012011
:1023500048610220C86000200861084603F0FFFCC5
:102360002F48076012202E494860402088600020D6
:10237000C8604FF480600861084603F0C7FC122073
:10238000FFF736F88146B9F1000F01D04846A2E7C1
:102390002448007800287DD100F09CFE1EE04FF418
:1023A000004003F02AFDA8B14FF0000A08E01948E8
:1023B000803000682049096841F82A000AF1010AC2
:1023C000BAF1080FF3D31C48006820301A4908609E
:1023D000154D03E00DB904207DE76D1E0D48406BDF
:1023E00040F22A3108400028D9D0082003F005FD2A
:1023F00020B1082003F00BFD04206CE7022003F05D
:10240000FCFCD8B1022003F002FD022063E7A4E047
:1024100044040240008001402CD00020B4E00020A1
:10242000A0E0002034D00020FFFF7F0036D0002045
:1024300035D0002037D0002038D00020202003F0F5
:10244000DCFC20B1202003F0E2FC062043E74FF43F
:10245000007003F0D2FC28B14FF4007003F0D7FCF9
:10246000072038E709E003F09CFCFA490968086096
:10247000F8480068001DF74908604FF4001003F0A9
:10248000BCFC0028EFD14FF4807003F0B6FC20B301
:10249000F14800E028E0007838B1EF4800780128E2
:1024A00003D0ED480078022817D10020EB490860DE
:1024B0000C204860402088600020C8604FF4806095
:1024C0000861084603F022FC0C20FEF791FF8146CC
:1024D000B9F1000F01D04846FDE600F0FDFD40F2E5
:1024E000FF5003F094FC38E0DD480078012834D137
:1024F00006FB04F100220098FFF754FD0020D949A3
:1025000008700120D84908700020D8490870D848C0
:10251000C06B40F22A310843D549C8630846C06AF7
:1025200040F00800C86200E06D1ED248006800F468
:10253000005008B9002DF7D10DB90420CBE600BF3B
:10254000CA48007818B9C74800780028F8D0C548AC
:10255000007810B1C34890F800904846BBE61CB51F
:102560000446002001900090C34800880004BB4945
:1025700008600D204860402088600020C8604FF44B
:1025800080600861084603F0C1FBB948406B0090C9
:1025900002E0B748406B0090009800F0450000282A
:1025A000F7D0012003F029FC20B1012003F02FFC1B
:1025B00001201CBD042003F020FC20B1042003F006
:1025C00026FC0320F5E7AA4800690D2801D0102059
:1025D000EFE740F2FF5003F01AFCA5484069019074
:1025E0000198C0F3432020700020E2E72DE9FF5F4F
:1025F00086B017469846149D00260020059004904A
:10260000002481460390824602900195DDF818B0BF
:10261000DDF818B0BBF1000F03D126200AB0BDE8E9
:10262000F09F00209249C862944988604860401E2B
:102630000860012048610020C8600861084603F076
:102640008EFB8B48406900F0007008B10E20E5E772
:1026500081480078022805D10502780A40EAC85767
:102660004FEA6828002D1FDDB5F5006F1CDC681EE1
:102670002840C8B92846FFF7DEFC0590774805607A
:10268000102076494860402088600020C8604FF4E0
:1026900080600861084603F039FB1020FEF7A8FEB1
:1026A00006461EB13046B9E72620B7E772480088D3
:1026B00000046A4908600D204860402088600020BE
:1026C000C8604FF480600861084603F01FFB0D20CE
:1026D000FEF78EFE06460EB130469FE7644840691D
:1026E00003904FF0FF341BE0641E63480088000431
:1026F0005A4908600D204860402088600020C8606A
:102700004FF480600861084603F000FB0D20FEF7DF
:102710006FFE06460EB1304680E75548406903908B
:10272000039800F4807008B9002CDDD10CB9292081
:1027300074E74A480760182048494860402088608C
:102740000020C8604FF480600861084603F0DEFA9C
:102750001820FEF74DFE06460EB130465EE700201B
:102760004149087005980001444988600846456061
:102770004FF0FF300860012048610020C860086108
:10278000084603F0ECFA4FF0FF3435480078002893
:102790005FD100F09FFC43E04FF4804003F02DFB3D
:1027A000C8B30198A0EB0900202821D20198A0EB22
:1027B000090000F0030020B90198A0EB090080088F
:1027C00004E00198A0EB09008008401C02904FF043
:1027D000000A09E0DBF8000003F0E7FA0AF1010A59
:1027E0000BF1040B09F1040902988245F2D30FE0C2
:1027F0004FF0000A05E05BF82A0003F0D6FA0AF170
:10280000010ABAF1080FF6D30BF1200B09F12009E8
:102810006FF0404404E0FFE70CB90420FEE6641EBC
:102820001348406B40F21A6108400028B4D00820D9
:1028300003F0E3FA20B1082003F0E9FA0420EDE602
:10284000022003F0DAFAD8B1022003F0E0FA022005
:10285000E4E630E038D000202CD00020A0E00020BA
:1028600034D0002036D0002035D0002037D00020D2
:10287000008001400004024030D00020B4E000207D
:10288000102003F0BAFA20B1102003F0C0FA05209E
:10289000C4E64FF4007003F0B0FA28B14FF40070B2
:1028A00003F0B5FA0720B9E600F016FC40F2FF503D
:1028B000FC4988633EE0FC48007801283AD11022A8
:1028C00029460698FFF76EFB0020F8490870F84982
:1028D0000870F8490870F348C06B40F21A31084399
:1028E000F049C8630846C06A40F00800C86200E0CA
:1028F000641EF148006800F4005008B9002CF7D1BC
:102900001CB9FFF7D2FA042088E64FF0FF3400E04C
:10291000641EE848007820B9E448007808B9002C23
:10292000F6D10CB9042079E6E048007810B1DF4810
:10293000007873E640F2FF5003F069FA04A8FFF74D
:102940000EFE064603E004A8FFF709FE06463EB960
:102950009DF810000728F6D09DF810000628F2D048
:1029600030465BE62DE9FF5F84B0DDE912470026C3
:10297000002003900290002580468146019007FBCD
:1029800004FBDDF810A0DDF810A0BAF1000F03D1B0
:10299000262008B0BDE8F09F0020C249C862C749A0
:1029A00088604860401E0860012048610020C860BF
:1029B0000861084603F0D3F9BA48406900F0007096
:1029C00008B10E20E5E7BE480078022808D10402CD
:1029D000DDE90601400A40EAC1504912CDE906018D
:1029E000002C1FDDB4F5006F1CDC601E2040C8B950
:1029F0002046FFF720FB0390B24804601020B14945
:102A00004860402088600020C8604FF48060086102
:102A1000084603F07BF91020FEF7EAFC06461EB1DB
:102A20003046B6E72620B4E7012F6FD907FB04F044
:102A3000B0F1007F01D32620ABE7A148007838B180
:102A40009F480078012803D09D48007802282DD1A6
:102A50009D48008800049B4908603720486040205A
:102A600088600020C8604FF480600861084603F069
:102A70004DF93720FEF7BCFC06460EB1304688E71C
:102A80009048076017208F494860402088600020E8
:102A9000C8604FF480600861084603F037F91720DA
:102AA000FEF7A6FC06460EB1304672E78549069849
:102AB000086019204860402088600020C8604FF4FA
:102AC00080600861084603F021F91920FEF790FCA8
:102AD00006460EB130465CE70398000177498860EE
:102AE00007FB04F048604FF0FF30086001204861A8
:102AF0000020C8600861084603F031F96A48007890
:102B0000002871D1451E00F0E5FA40E0F3E0654889
:102B1000406B00F48040A8B3ABEB080020281ED225
:102B2000ABEB080000F0030018B9ABEB080080081D
:102B300003E0ABEB08008008401C01904FF0000957
:102B400009E0DAF8000003F030F909F101090AF1AF
:102B5000040A08F1040801988145F2D30FE04FF010
:102B6000000905E05AF8290003F01FF909F10109ED
:102B7000B9F1080FF6D30AF1200A08F120086FF026
:102B8000404504E0FFE70DB9042002E76D1E45480B
:102B9000406B40F21A3108400028B8D0082003F0FA
:102BA0002CF920B1082003F032F90420F1E60220CC
:102BB00003F023F920B1022003F029F90220E8E60E
:102BC000102003F01AF920B1102003F020F905209D
:102BD000DFE64FF4007003F010F930B14FF40070ED
:102BE00003F015F90720D4E62CE04FF4807003F0D1
:102BF00004F900B33248007838B131480078012830
:102C000003D02F480078022815D100202D490860F4
:102C10000C204860402088600020C8604FF480602D
:102C20000861084603F072F80C20FEF7E1FB064647
:102C30000EB13046ADE600F04FFA40F2FF5003F01F
:102C4000E6F858E018480078012854D107FB04F151
:102C500010220498FFF7A6F90020144908700120FB
:102C6000134908700020134908700E48C06B40F2E9
:102C70001A3108430B49C8630846C06A40F008008F
:102C8000C8624FF0FF3500E06D1E0B48006800F48D
:102C9000005008B9002DF7D1C5B9FFF706F9042097
:102CA00077E600000080014034D0002036D00020BC
:102CB00035D0002037D0002000040240B4E00020CE
:102CC0002CD00020A0E0002030D000204FF0FF35B5
:102CD00000E06D1EC248007820B9C248007808B9EB
:102CE000002DF6D10DB9042053E6BE48007810B18E
:102CF000BC4800784DE640F2FF5003F088F802A887
:102D0000FFF72DFC064603E002A8FFF728FC064665
:102D10003EB99DF808000728F6D09DF8080006285F
:102D2000F2D0304635E610B5AF48406B00F4807005
:102D300070B3AE480078012814D10020AC49086077
:102D40000C204860402088600020C8604FF48060FC
:102D50000861084602F0DAFF0C20FEF749FBA149A2
:102D6000087002E000209F4908709F48806B40F483
:102D700080709D4988630846C06B4CF23A318843A5
:102D80009949C8630120964908709648007810BD9B
:102D9000022003F032F868B1022003F038F89248BC
:102DA000C06B4CF23A3188438F49C86302208D4989
:102DB0000870ECE7082003F020F868B1082003F061
:102DC00026F88948C06B4CF23A3188438649C8637B
:102DD000042084490870DAE7202003F00EF868B177
:102DE000202003F014F88048C06B4CF23A3188433D
:102DF0007D49C86306207B490870C8E7102002F0AF
:102E0000FCFF68B1102003F002F87748C06B4CF269
:102E10003A3188437449C863052072490870B6E79F
:102E20004FF4007002F0E9FF70B14FF4007002F04F
:102E3000EEFF6D48C06B4CF23A3188436A49C86373
:102E4000072068490870A2E70020A0E710B5FFF747
:102E50006AFF10BD70B50446002514B92625284622
:102E600070BD644800880004614908600D20486016
:102E7000402088600020C8604FF4806008610846E8
:102E800002F044FF0D20FEF7B3FA05460DB12846C7
:102E9000E6E75548406920602846E1E708B500208C
:102EA00000906846FFF7D6FF08B1FF2008BD0098E4
:102EB000C0F34320FAE72DE9FE4F83460C469146C6
:102EC00000200290002625462C46700240EAD55686
:102ED0006D020BF00300F0B14FF0000A18E04FF460
:102EE000007000904FEA4A20471946EBE0733A46DB
:102EF0004148FFF7A9F802904FF400723E49584646
:102F000003F08AFA0BF5007B0AF1010000F0FF0ADA
:102F1000CA45E4DB16E0B9F1010F09D14FF40070A6
:102F20002A46334600905846FFF78EF8029009E093
:102F30004FF400702A463346CDE900095846FFF7A2
:102F40009BF902900298BDE8FE8F2DE9FE4F814665
:102F50000C46924600200290002625462C46700220
:102F600040EAD5566D0209F00300F0B14FF0000BB6
:102F700018E04FF4007249461F4803F04DFA4FF431
:102F8000007000904FEA4B20471946EBE0733A4639
:102F90001948FFF72BFB029009F500790BF10100AE
:102FA00000F0FF0BD345E4DB16E0BAF1010F09D1C5
:102FB0004FF400702A46334600904846FFF716FB50
:102FC000029009E04FF400702A463346CDE9000A2A
:102FD0004846FFF7C7FC02900298BDE8FE8F00004C
:102FE00037D0002036D000200080014035D00020AE
:102FF000A0E0002030D0002048E1002010B56FF0A4
:10300000040000F07AF92E4800682E49B0FBF1F078
:103010002D4908700846007800EB4001C1EBC01054
:103020004FF6FF7101EAC0002849088010BD014633
:10303000254A12784A434FF0E0235A6100229A61F0
:103040001A46126942F001021A6100BF4FF0E022F5
:10305000106900F001021AB100F48032002AF5D0A4
:103060004FF0E022126922F001024FF0E0231A61D2
:1030700000229A6170470146144A12884A434FF071
:10308000E0235A6100229A611A46126942F0010255
:103090001A6100BF4FF0E022106900F001021AB17E
:1030A00000F48032002AF5D04FF0E022126922F0BD
:1030B00001024FF0E0231A6100229A61704700007C
:1030C00000D0002000127A003CD000203ED000202A
:1030D00030BF704772B6704762B6704700BF704726
:1030E00000BF4A4A128802F04002002AF9D0C2B258
:1030F000464B1B1D1A80704710B586B0044601214F
:1031000044F2040000F034FC4FF40070ADF81400F9
:1031100003208DF8160018208DF8170005A93C48EB
:1031200000F06AF94FF48060ADF8140004208DF8C7
:10313000170005A9364800F05FF925208DF800003A
:1031400003208DF801008DF8020001208DF80300A6
:10315000684600F088F801940020ADF80800ADF84A
:103160000A00ADF80C00ADF810000C20ADF80E0010
:1031700001A9264801F09BF9012240F2255123487C
:1031800001F02DFA0121214801F01DFA06B010BD11
:1031900010B540F225511D4801F006FB10B31B4845
:1031A00001F082FAC4B21B48008800F40040C8B99C
:1031B0001848008800F4804060B10A2C03D0002039
:1031C0001449088020E01348008840F40040114969
:1031D000088019E00D2C06D10E48008840F480408C
:1031E0000C49088010E00B480088C0F30D000A4924
:1031F0000C5408480088401C06490880084600888E
:10320000C72801DD0020088010BD00000038014003
:103210000008014044D0002048E3002009488047CE
:1032200009480047FEE7FEE7FEE7FEE7FEE7FEE7A8
:10323000FEE7FEE7FEE7FEE704480549054A064BC0
:1032400070470000630301083101010880F5002088
:1032500080FB002080F7002080F7002031490143E7
:10326000314A1160704770B5002100230F22C478E5
:1032700004B32D4C246804F4E064C4F5E064210A2E
:10328000C1F10403CA40447804FA03F1847814407D
:1032900021430901254C0678A155047804F01F0547
:1032A0000124AC4005786D11AD0005F1E025C5F8AD
:1032B000004109E0047804F01F050124AC401C4DD6
:1032C0000678761145F8264070BD1A4A0A40024336
:1032D000154B1B1F1A60704739B1134A121D126833
:1032E0000243114B1B1D1A6006E00F4A121D1268A3
:1032F00082430D4B1B1D1A607047042808D14FF004
:10330000E021096941F004014FF0E022116107E07A
:103310004FF0E021096921F004014FF0E022116132
:10332000704700000000FA050CED00E000E400E04A
:1033300080E100E080FFFF1F10B50446CC488442C6
:1033400008D10121042000F02DFB0021042000F011
:1033500029FB46E0C748844208D10121082000F03B
:1033600021FB0021082000F01DFB3AE0C248844206
:1033700008D10121102000F015FB0021102000F0E1
:1033800011FB2EE0BD48844208D10121202000F02D
:1033900009FB0021202000F005FB22E0B848844210
:1033A00008D10121402000F0FDFA0021402000F06A
:1033B000F9FA16E0B348844208D10121802000F0D8
:1033C000F1FA0021802000F0EDFA0AE0AE488442D4
:1033D00007D10121801500F0E5FA0021A01500F0C9
:1033E000E1FA10BD10B50121084600F0DBFA00211A
:1033F000012000F0D7FA10BD2DE9F041024600256A
:103400000026002000230024002791F803C00CF0C0
:103410000F0591F803C00CF0100CBCF1000F03D0A5
:1034200091F802C04CEA050591F800C0BCF1000F0C
:1034300031D0146800202BE04FF0010C0CFA00F39F
:10344000B1F800C00CEA03069E4220D183004FF081
:103450000F0C0CFA03F7BC4305FA03FC4CEA040416
:1034600091F803C0BCF1280F06D14FF0010C0CFA03
:1034700000FCC2F814C00AE091F803C0BCF1480F88
:1034800005D14FF0010C0CFA00FCC2F810C0401C32
:103490000828D1D31460B1F800C0BCF1FF0F34DDAF
:1034A000546800202EE000F1080C4FF0010808FAE3
:1034B0000CF3B1F800C00CEA03069E4221D1830050
:1034C0004FF00F0C0CFA03F7BC4305FA03FC4CEA6F
:1034D000040491F803C0BCF1280F05D100F1080CD9
:1034E00008FA0CF8C2F8148091F803C0BCF1480F38
:1034F00007D100F1080C4FF0010808FA0CF8C2F8E7
:103500001080401C0828CED35460BDE8F0814FF6EF
:10351000FF710180022181700421C1707047024651
:10352000002093680B400BB1012000E000207047A1
:103530000146886880B2704702460020D3680B407D
:103540000BB1012000E0002070470146C86880B23E
:10355000704701617047416170470AB1016100E045
:1035600041617047C16070474FF480320A43826105
:103570008161826182698269704702460020434B03
:1035800018684FF68073184040EA021008433F4B1A
:10359000186070473E49C8617047F0B50A4600237D
:1035A00000240021002500F00046B6F1004F02D1B2
:1035B000364EF16901E0354E7168C0F3034583B2C0
:1035C00000F44016B6F5401F08D121F070612F4E6F
:1035D000766826F070662D4F7E6012E000F480164B
:1035E000B6F5801F06D1032606FA05F4A14341F083
:1035F000706106E0460D360103FA06F6B14341F06C
:10360000706122B1460D360103FA06F6314300F02F
:103610000046B6F1004F02D11C4EF16101E01B4E95
:103620007160F0BD30B500228B071C0F0F2303FA29
:1036300004F2164B08338C1053F824309343134C88
:1036400008348D1044F8253023468C1053F824306C
:103650008C07240F00FA04F423430C4C08348D101B
:1036600044F8253030BD0A49DC310860704700005D
:1036700000080140000C014000100140001401400E
:1036800000180140001C01400020014000000140E2
:1036900000002042DF48006840F00100DD4908607A
:1036A00008464068DC490840DA4948600846006836
:1036B000DA490840D74908600846006820F48020AD
:1036C00008600846406820F4FE0048604FF41F0080
:1036D00088607047CF49096821F48031CD4A116074
:1036E0001146096821F480211160B0F5803F03D0B4
:1036F000B0F5802F0ED106E0C649096841F480314B
:10370000C44A116007E0C349096841F4A021C14AD5
:10371000116000E000BF00BF704710B501460022F5
:10372000002300204A11012A02D1BA4C236806E086
:10373000022A02D1B74C236A01E0B64C636A01F059
:103740001F02012494401C400CB1012000E0002025
:1037500010BD38B5002000900024002500BF3120A6
:10376000FFF7DBFF05460098401C00900098B0F57D
:10377000A06F01D0002DF2D03120FFF7CEFF08B1AD
:10378000012400E00024204638BD01460020A14A63
:10379000106820F0F80040EAC10010607047A049AE
:1037A00008607047024600209A4B586820F47C104D
:1037B00042EA01031843974B5860704798490866DE
:1037C000704701460020934A506820F003000843E8
:1037D000506070478F48406800F00C007047014609
:1037E00000208C4A506820F0F00008435060704779
:1037F00001460020874A506820F4E060084350608A
:10380000704701460020834A506820F4605040EA27
:10381000C1005060704729B17E4A527A02437D4B05
:103820005A7204E07B4A527A82437A4B5A7270474A
:103830007B49D8310860704701460020754A5068BE
:1038400020F440400843506070470021714A203204
:103850001170704A82F82010012802D004280AD181
:1038600004E001216B4A2032117005E00521694A0C
:103870002032117000E000BF00BF70476949086046
:1038800070476449096A0143624A11627047654999
:1038900044390860704730B500210022002400231D
:1038A0005C4D6D6805F00C0121B1042905D0082993
:1038B00023D105E05C4D056022E05B4D05601FE013
:1038C000544D6D6805F47012524D6D6805F48034E6
:1038D000022505EB92421CB9544D554305600BE09F
:1038E0004C4D6D6805F400351DB1504D55430560D4
:1038F00002E04D4D5543056002E04B4D056000BFB1
:1039000000BF444D6D6805F0F0010909484D6B5C3E
:103910000568DD4045603F4D6D6805F4E061090ACA
:10392000434D6B5C4568DD4085603A4D6D6805F43C
:103930006051C90A3E4D6B5C4568DD40C560354D40
:103940006D6805F44041890B3A4D6B5CC568B5FB69
:10395000F3F5056130BD29B12E4A526902432D4B62
:103960005A6104E02B4A526982432A4B5A617047DC
:1039700029B1284A92690243264B9A6104E0254AFC
:1039800092698243234B9A61704729B1214AD269D7
:103990000243204BDA6104E01E4AD26982431D4B88
:1039A000DA61704729B11B4AD2680243194BDA60C9
:1039B00004E0184AD2688243164BDA60704729B196
:1039C000144A12690243134B1A6104E0114A126946
:1039D0008243104B1A6170471249403908607047A2
:1039E0000F49C86470470B49C87170470948406A5D
:1039F00040F0807007494862704701460020054A40
:103A000092680A400AB1012000E000207047014995
:103A100088727047001002400000FFF8FFFFF6FEBA
:103A2000000042428004424200127A0000093D0038
:103A300046D0002056D0002010B50446FE488442EF
:103A400009D101214806FFF7BAFF00214FF00070AD
:103A5000FFF7B5FF08E001218806FFF7B0FF00215E
:103A60004FF08060FFF7ABFF10BD30B5024600207D
:103A70000023146824F002041460146844F0010464
:103A8000146000E05B1C546804F001041CB94FF69C
:103A9000FF74A342F6D1546804F001040CB900206D
:103AA0006CE08C79012C04D1146844F0800414601B
:103AB00003E0146824F080041460CC79012C04D154
:103AC000146844F04004146003E0146824F04004D7
:103AD00014600C7A012C04D1146844F020041460A2
:103AE00003E0146824F0200414604C7A012C04D103
:103AF000146844F01004146003E0146824F0100407
:103B000014608C7A012C04D1146844F00804146009
:103B100003E0146824F008041460CC7A012C04D16A
:103B2000146844F00404146003E0146824F00404EE
:103B300014608C78A407CD7844EA05640D7944EAD2
:103B400005444D7944EA05540D886D1E2C43D4611B
:103B5000146824F001041460002300E05B1C546826
:103B600004F001041CB14FF6FF74A342F6D154686F
:103B700004F001040CB1002000E0012030BD10B5BC
:103B80000021837A012202FA03F1AC4A126842F062
:103B90000102AA4B1A60A94A1C3212688A43A74B39
:103BA0001C331A60027BCAB9A44A0C3212688A43D9
:103BB000A24B0C331A604288C38842EA03439F4AEF
:103BC0004032847A42F834300288838842EA0343E0
:103BD0009A4A4032847A02EBC4025360027B012A83
:103BE00019D1964A0C3212680A43944B0C331A606E
:103BF0004288038842EA0343904A4032847A42F87A
:103C00003430C288838842EA03438C4A4032847A43
:103C100002EBC4025360C27A3AB9884A121D126894
:103C20008A43864B1B1D1A6006E0844A121D1268E7
:103C30000A43824B1B1D1A60028932B97F4A143233
:103C400012688A437D4B14331A600289012A06D117
:103C50007A4A143212680A43784B14331A60427B52
:103C6000012A06D1754A1C3212680A43734B1C3371
:103C70001A60724A126822F00102704B1A6010BD7D
:103C800000218171C171017241728172C1728170B2
:103C9000C17003210171022141710121018070472E
:103CA0006649096841F00101644A116011460968DA
:103CB00043F60E729143614A11601146096841EA68
:103CC000002111601146096821F00101116070475F
:103CD00021B1026842F48032026003E0026822F4FB
:103CE000803202607047E1B1026842F080020260F7
:103CF0004FF4C272125842F480734FF4C2721350E0
:103D00004FF4CA72125842F480734FF4CA721350BF
:103D10004FF4D272125842F480734FF4D27213509F
:103D20001BE0026822F0800202604FF4C272125857
:103D300022F480734FF4C27213504FF4CA721258B7
:103D400022F480734FF4CA7213504FF4D272125897
:103D500022F480734FF4D2721350704710B50246AC
:103D60000020936803F08063B3F1806F00D110E00E
:103D7000936803F00063B3F1006F01D1012008E004
:103D8000936803F08053B3F1805F01D1022000E01B
:103D90000420042879D002F5C07303EB00131B68DC
:103DA00003F0010402F5C07303EB00131C600B7AEF
:103DB0007BB94B7A0C8843EA445302F5C07404EB98
:103DC00000142468234302F5C07404EB001423603C
:103DD00010E00B7A4C6843EAC4034C7A234302F5A3
:103DE000C07404EB00142468234302F5C07404EB90
:103DF000001423608B7A03F00F038B7202F5C073FB
:103E000003EB00135B6823F00F0402F5C07303EBB0
:103E100000135C6002F5C07303EB00135B688C7ADF
:103E2000234302F5C07404EB001463608B7B1C0613
:103E30004B7B44EA034403E000640040006600401A
:103E40000B7B44EA0323CC7A234302F5C07404EBD2
:103E50000014A3608B7C1C064B7C44EA03440B7C5F
:103E600044EA0323CC7B234302F5C07404EB001423
:103E7000E36002F5C07303EB00131B6843F0010419
:103E800002F5C07303EB00131C6010BD10B50246B1
:103E9000002321B1012907D002290FD109E0906840
:103EA000F94C00EA04030BE09068F84C00EA0403C4
:103EB00006E09068F64C00EA040301E0002300BF2E
:103EC00000BFF44C181BA34216D007DC83B16FF07F
:103ED0008060184470B1022818D111E0B0F5007F5D
:103EE00010D0ED4C204448B1B0F5003F0ED10BE0AE
:103EF00002230DE000230BE0002309E0002307E08C
:103F0000012305E0012303E0012301E0002300BFBA
:103F100000BFD8B210BD21B1012907D002290FD1AD
:103F200009E0826842F0800282600AE0826842F41E
:103F30000042826005E0826842F40002826000E094
:103F400000BF00BF704710B500F5D87303EB011335
:103F50001B6803F004031372137A53B900F5D87386
:103F600003EB01131B6840F2FF7404EA5353136020
:103F700009E000F5D87303EB01131B686FF0604490
:103F800004EAD303536000F5D87303EB01131B68F5
:103F900003F00203537200F5D87303EB01135B685F
:103FA00003F00F03937200F5D87303EB01135B6802
:103FB0001B0AD37400F5D87303EB01139B68D3720B
:103FC00000F5D87303EB01139B681C0A147300F50A
:103FD000D87303EB01139B681C0C547300F5D87362
:103FE00003EB01139B681B0E937300F5D87303EB6F
:103FF0000113DB68D37300F5D87303EB0113DB689F
:104000001C0A147400F5D87303EB0113DB681C0C55
:10401000547400F5D87303EB0113DB681B0E937423
:1040200021B9C36843F02003C36003E0036943F090
:104030002003036110BD21B9C26842F02002C260B2
:1040400003E0026942F0200202617047024600204C
:1040500019B9D36803F0030006E0012903D11369FD
:1040600003F0030000E00020704710B502460B4645
:1040700000204FF6FF71BBB9146824F0020444F02D
:104080000104146000E0491E546804F00304012C8C
:1040900001D00029F7D1546804F00304012C01D0A9
:1040A000002032E0012030E0012B13D1146824F00D
:1040B0000304146000E0491E546804F003040CB1CA
:1040C0000029F8D1546804F003040CB100201CE06E
:1040D00001201AE0022B17D1146824F0010444F0E7
:1040E0000204146000E0491E546804F00304022C2A
:1040F00001D00029F7D1546804F00304022C01D048
:10410000002002E0012000E0002010BD0146002058
:104110000A6822F0010242F002020A604A6802F0D4
:104120000302022A00D10120704701464FF6FF72B8
:1041300000200B6823F002030B6000E0521E4B6866
:1041400003F00203022B01D1002AF7D14B6803F0E0
:104150000203022B00D001207047014600208A692B
:1041600002F070007047014600208A69100E704707
:10417000014600208A69C2F3074070471AB14369BB
:104180000B43436102E043698B434361704710B5C1
:104190000246002001F4700343B19369C1F3130494
:1041A00023400BB101202DE000202BE001F08073B3
:1041B00043B15368C1F3130423400BB1012021E044
:1041C00000201FE001F0006343B19368C1F31304C2
:1041D00023400BB1012015E0002013E001F0007333
:1041E00043B1D368C1F3130423400BB1012009E0AC
:1041F000002007E01369C1F3130423400BB1012031
:1042000000E0002010BD0022244B994202D100237F
:10421000836111E0C1F3130201F000730BB1C260BE
:104220000AE001F080630BB1026105E001F0006378
:104230000BB1826000E0426070470246002002EA53
:1042400001030BB1012000E00020704770B5044667
:104250000D46002660692840002872D0B5F5807FA1
:1042600069D01DDC082D42D006DC012D2DD0022D99
:1042700031D0042D7FD134E0102D3ED0202D42D0FE
:10428000402D78D145E00000030000040003000841
:1042900000000310000100080001FFF77000F0307B
:1042A000B5F5004F61D009DCB5F5007F4AD0B5F512
:1042B000806F4DD0B5F5006F5DD150E0B5F5803F12
:1042C0002DD0B5F5003F56D12FE0A0685549FFF736
:1042D000B4FF064651E0E0680321FFF7AEFF064653
:1042E0004BE0E0680821FFF7A8FF064645E0E068DC
:1042F0001021FFF7A2FF06463FE020690321FFF7E8
:104300009CFF064639E020690821FFF796FF064624
:1043100033E020691021FFF790FF06462DE060682A
:104320000821FFF78AFF064627E060681021FFF7A3
:1043300084FF064621E0A0690121FFF77EFF0646C3
:104340001BE01BE0A0690221FFF777FF064614E09F
:10435000A0690421FFF771FF06460EE00BE0A0699B
:104360007021FFF76AFF064607E060680421FFF747
:1043700064FF064601E0002600BF00E0002630464C
:1043800070BDB1F5007F3AD00FDC202928D006DCC3
:1043900001291CD004291DD0082940D11DE0402945
:1043A00021D0B1F5807F3AD126E0B1F5004F31D070
:1043B00006DCB1F5806F25D0B1F5006F2FD124E078
:1043C000B1F5803F12D0B1F5003F28D111E0154A78
:1043D000826025E00822C26022E01022C2601FE055
:1043E000082202611CE01022026119E008224260EA
:1043F00016E01022426013E00422426010E0042222
:1044000042600DE0042242600AE000228261042240
:10441000426005E0002282610422426000E000BFA9
:1044200000BF70470101010010B50446FB488442FB
:1044300009D101218803FFF7B5FA00214FF480402C
:10444000FFF7B0FA32E0F648844209D1012148046E
:10445000FFF7B5FA00214FF40030FFF7B0FA25E07E
:10446000F048844209D101218804FFF7A8FA00210D
:104470004FF48020FFF7A3FA18E0EB48844209D1FB
:104480000121C804FFF79BFA00214FF40020FFF739
:1044900096FA0BE0E548844208D101210805FFF7B0
:1044A0008EFA00214FF48010FFF789FA10BD2DE934
:1044B000F04786B005460E460024A24600BFA1463E
:1044C0000027B08900B100BF2F462C8A4CF6FF7040
:1044D0000440F08804432C82AC894EF6F31004406B
:1044E000B08831890843718908430443AC81AC8AA0
:1044F0004FF6FF400440B0890443AC8201A8FFF7A7
:10450000CAF9C648874202D1DDF810A001E0DDF803
:104510000CA0A88900F4004040B10AEBCA0000EBEF
:104520000A1031684900B0FBF1F807E00AEBCA0055
:1045300000EB0A1031688900B0FBF1F86420B8FB89
:10454000F0F004012009642101FB1089A88900F41E
:10455000004040B1322000EBC900B0FBF1F000F0A8
:104560000700044308E0322000EB09106421B0FB8F
:10457000F1F000F00F0004432C8106B0BDE8F08795
:104580004FF41651016000218180C18001810C210E
:10459000418100218181704710B502460020108AB8
:1045A0004FF2FF0318400B884C8823438C88234329
:1045B000CC8823431843108210BD00210180418024
:1045C0008180C180704721B1828942F4005282818A
:1045D00004E082894DF6FF731A4082817047F0B57E
:1045E0000346002400260025002040F66A17B94241
:1045F00000D100BF1846C1F3421401F01F06012785
:1046000007FA06F5012C01D10C3004E0022C01D18F
:10461000103000E014301AB107682F43076002E041
:104620000768AF430760F0BD1AB1838A0B438382EA
:1046300002E0838A8B4383827047028A4FF6F073CD
:104640001A400282028A0A430282704782894FF22C
:10465000FF731A40828182890A438281704721B1A7
:10466000828942F00202828104E082894FF6FD7362
:104670001A4082817047028A4FF6DF731A40028225
:10468000028A0A430282704721B1028A42F48042C0
:10469000028204E0028A4BF6FF731A4002827047DE
:1046A000C1F308028280704701468888C0F3080081
:1046B0007047818941F0010181817047028BD2B23C
:1046C0000283028B42EA012202837047028B02F4CA
:1046D0007F420283028B0A430283704721B1828AA0
:1046E00042F02002828204E0828A4FF6DF731A4091
:1046F0008282704721B1828A42F01002828204E0F5
:10470000828A4FF6EF731A408282704721B1828A03
:1047100042F00802828204E0828A4FF6F7731A4060
:104720008282704721B1828942F40042828103E093
:104730008289C2F30E028281704721B1828A42F4DB
:104740000062828204E0828A4FF2FF731A40828202
:104750007047828A4FF6FB731A408282828A0A432C
:104760008282704721B1828A42F00202828204E092
:10477000828A4FF6FD731A408282704702460020FB
:10478000B1F5007F00D100BF13880B400BB10120B1
:1047900000E00020704701F40072B2F5007F00D104
:1047A00000BFCA430280704770B502460024002350
:1047B0000025002040F66A16B14200D100BFC1F3C7
:1047C000421501F01F03012606FA03F3012D02D161
:1047D0009689334006E0022D02D1168A334001E06B
:1047E000968A33400C12012606FA04F416883440E7
:1047F00013B10CB1012000E0002070BD10B5002203
:10480000002340F66A14A14200D100BF0A1201241D
:104810009440A3B2DC43048010BD00000038014086
:104820000044004000480040004C00400050004060
:1048300010B50446FE48844208D10121C014FFF798
:10484000B1F80021E014FFF7ADF8C4E0B4F1804FF7
:1048500008D101210846FFF7B2F800210120FFF737
:10486000AEF8B8E0F348844208D101210220FFF7F6
:10487000A6F800210220FFF7A2F8ACE0EE4884423F
:1048800008D101210420FFF79AF800210420FFF746
:1048900096F8A0E0E948844208D101210820FFF7FA
:1048A0008EF800210820FFF78AF894E0E44884425B
:1048B00008D101211020FFF782F800211020FFF716
:1048C0007EF888E0DF48844208D101212020FFF7EC
:1048D00076F800212020FFF772F87CE0DA48844265
:1048E00008D101214014FFF75DF800216014FFF7A3
:1048F00059F870E0D548844209D10121C804FFF776
:1049000051F800214FF40020FFF74CF863E0D04845
:10491000844209D101210805FFF744F800214FF432
:104920008010FFF73FF856E0CA48844209D10121C0
:104930004805FFF737F800214FF40010FFF732F871
:1049400049E0C548844208D101214020FFF737F8EB
:1049500000214020FFF733F83DE0C048844208D1F1
:1049600001218020FFF72BF800218020FFF727F896
:1049700031E0BB48844208D101218015FFF71FF8C0
:104980000021A015FFF71BF825E0B648844209D1A5
:1049900001210804FFF706F800214FF48030FFF7EB
:1049A00001F818E0B048844209D101214804FEF71B
:1049B000F9FF00214FF40030FEF7F4FF0BE0AB48A5
:1049C000844208D101218804FEF7ECFF00214FF456
:1049D0008020FEF7E7FF10BD00220288944B98422A
:1049E0000ED0994B98420BD0B0F1804F08D0914B2C
:1049F000984205D0904B984202D0904B984204D1F7
:104A00004FF68F731A404B881A438D4B984207D04C
:104A10008C4B984204D04FF6FF431A40CB881A4380
:104A200002808B8883850B880385814B98420BD04D
:104A3000854B984208D08B4B984205D08A4B9842C0
:104A400002D08A4B984201D10B7A038601238382DC
:104A5000704770B5002400220023058C4FF6FE76C7
:104A600035400584028C8388048B4FF68F752C406B
:104A7000B51E2C400D882C43751E2A400D892A43F3
:104A80004D882A436A4DA8420BD06F4DA84208D0EA
:104A9000744DA84205D0744DA84202D0734DA8426F
:104AA00013D14FF6F7752A404D892A434FF6FB750F
:104AB0002A408D882A434FF6FF652B404FF6FF555D
:104AC0002B408D892B43CD892B4383800483CD8854
:104AD0008586028470BD70B5002400220023058CF9
:104AE0004FF6EF7635400584028C8388048B48F6B8
:104AF000FF752C404FF6FF452C400D884FF6FF7692
:104B000006EA05252C434FF6DF752A400D8906EA93
:104B100005152A434D8806EA05152A43444DA84247
:104B200002D0494DA8421DD14FF67F752A404D89CC
:104B30004FF6FF7606EA05152A434FF6BF752A4061
:104B40008D8806EA05152A434FF6FF352B404FF2B4
:104B5000FF752B408D8906EA85052B43CD8906EA32
:104B600085052B4383800483CD880587028470BD2F
:104B700070B5002400220023058C4FF6FF663540F7
:104B80000584028C8388848B4FF68F752C404FF6FA
:104B9000FC752C400D882C434FF6FF552A400D899B
:104BA0004FF6FF7606EA05252A434D8806EA0525D5
:104BB0002A431F4DA84202D0234DA8421DD14FF2D7
:104BC000FF752A404D894FF6FF7606EA05252A43F0
:104BD0004FF6FF352A408D8806EA05252A434EF612
:104BE000FF752B404DF6FF752B408D8906EA0515A4
:104BF0002B43CD8906EA05152B4383808483CD881A
:104C00008587028470BD70B5002200230024058CC6
:104C10004EF6FF7635400584038C8488828B48F6F7
:104C2000FF752A404FF6FF452A400D8820E000001E
:104C3000002C01400004004000080040000C00402F
:104C4000001000400014004000340140004C0140BE
:104C5000005001400054014000180040001C00407A
:104C60000020004000400140004401400048014055
:104C70004FF6FF7606EA05252A434DF6FF752B40D1
:104C80000D8906EA05352B434D8806EA05352B4389
:104C9000FA4DA84202D0FA4DA84208D14BF6FF7552
:104CA0002C408D894FF6FF7606EA85152C438480CB
:104CB0008283CD88A0F84050038470BD828B4FF270
:104CC000FF331A408283828B4FF6FF7303EA01237E
:104CD0001A4382837047F0B50C4615460022002126
:104CE0000026078C4EF6FF7C07EA0C070784828BB0
:104CF000018C4FF6FF7707EA043640F6FF473A404B
:104D00004FF6FF7707EA05273A434FF6FF7707EAA2
:104D100003373A43D94FB8420ED0D94FB8420BD0DF
:104D2000B0F1804F08D0D74FB84205D0D64FB84227
:104D300002D0D64FB84206D14DF6FF77394046F43F
:104D40008057394305E047F6FF57394044F4805710
:104D5000394382830184F0BD828B4FF6F3731A408E
:104D60008283828B0A4382837047F0B50C461546D6
:104D7000002200210026078C4FF6FF6C07EA0C0783
:104D80000784828B018C4FF6FF7707EA04264FF6E3
:104D90000C773A404FF6FF7707EA03172F433A4361
:104DA000B64FB8420ED0B64FB8420BD0B0F1804FDC
:104DB00008D0B44FB84205D0B34FB84202D0B34F79
:104DC000B84206D14FF6FF57394046F48077394351
:104DD00005E04FF2FF57394044F48077394382832E
:104DE0000184F0BD028B4FF2FF331A400283028B25
:104DF0004FF6FF7303EA01231A4302837047F0B5AD
:104E00000C461546002200210026078C4FF6EF7C49
:104E100007EA0C070784028B018C4FF6FF7707EA3D
:104E2000041640F6FF473A404FF6FF7707EA03378C
:104E30003A434FF6FF7707EA05273A438F4FB842C8
:104E40000ED08F4FB8420BD0B0F1804F08D08D4FAD
:104E5000B84205D08C4FB84202D08C4FB84206D130
:104E60004FF6DF77394046F01007394305E04FF63B
:104E70005F77394044F01007394302830184F0BD65
:104E8000028B4FF6F3731A400283028B0A430283AC
:104E90007047F0B50C46154600220021068C4FF6EF
:104EA000FE773E400684028B018C4FF60C76324032
:104EB0007E1C06EA03162E433243704EB0420ED0DB
:104EC0006F4EB0420BD0B0F1804F08D06D4EB04263
:104ED00005D06D4EB04202D06C4EB04206D14FF6B6
:104EE000FD76314044F00106314305E04FF6F5769A
:104EF000314044F00106314302830184F0BD70B5B6
:104F000005460C465D4885420ED05D4885420BD073
:104F1000B5F1804F08D05B48854205D05A4885429C
:104F200002D05A48854200D100E000BF208850B925
:104F30002389A28861882846FFF7ABFFE1882846CD
:104F4000FFF79EFF25E0208804280AD12389A28844
:104F500061882846FFF753FFE1882846FFF742FFA4
:104F600017E0208808280AD12389A288618828466A
:104F7000FFF7FBFEE1882846FFF7EEFE09E02389F4
:104F8000A28861882846FFF7A6FEE1882846FFF739
:104F900095FE70BD2DE9F04105460C46002601271F
:104FA000608808B9022600E00026A088012801D107
:104FB000022700E001272088A0B92389A288618800
:104FC0002846FFF766FFE1882846FFF759FF238947
:104FD0003A4631462846FFF712FFE1882846FFF798
:104FE00001FF13E02389A28861882846FFF707FFA5
:104FF000E1882846FFF7F6FE23893A4631462846DF
:10500000FFF747FFE1882846FFF73AFFBDE8F08148
:105010000A884B881A438B881A43CB881A430B891A
:105020001A434B891A438B891A43A0F844207047CE
:105030004FF6FF71818000210180C18041800172A3
:1050400070470021018041808180C18001814181C0
:105050008181C181704700210180418001218180CF
:105060000021C18001817047002101804180818041
:10507000C18001814181818170470000002C014085
:10508000003401400004004000080040000C0040D3
:1050900021B1028842F00102028004E002884FF64A
:1050A000FE731A400280704731B1B0F8442042F4D8
:1050B0000042A0F8442005E0B0F84420C2F30E02FC
:1050C000A0F8442070471AB183890B43838102E022
:1050D00083898B43838170478182704741EA020351
:1050E000A0F8483070471AB183890B43838102E0EE
:1050F00083898B438381704701894FF6F872114091
:10510000018170470A46002101894FF68F731940CB
:1051100011430181704730B504460D4629462046AB
:10512000FFF7F0FF208940F00700208130BD2DE916
:10513000F04104460D4616461F46602D06D13B46FB
:10514000012231462046FFF75AFE05E03B46012288
:1051500031462046FFF79DFE29462046FFF7D2FF45
:10516000208940F007002081BDE8F08130B50C4671
:1051700000210189C9B24FF6FF7505EA03251543E1
:1051800025432943018130BD2DE9F04105460E46F6
:1051900017469846002443463A4631462846FFF7CC
:1051A000E5FF2C894FF6F870044044F007044FF6F1
:1051B0008F70044044F070042C81BDE8F081F0B59C
:1051C00004460D4616461F463B46324629462046B3
:1051D000FFF7CCFF208940F480402081F0BD01859D
:1051E000828270470A46002101884FF68F7319406A
:1051F000114301807047F0B50C4615461E4600214C
:10520000002200230189028B038C4FF6F877394086
:1052100021434FF6FC473A4040F201173A434FF61C
:10522000DD773B404FF6FF7707EA06172F433B43F6
:10523000018102830384F0BD0A460021018B4FF6F1
:105240008F7319401143018370470A460021018B77
:1052500048F6FF7319404FF6FF7303EA0223194320
:10526000018370470A460021818B4FF68F731940E6
:105270001143818370470A460021818B48F6FF73F2
:1052800019404FF6FF7303EA0223194381837047E5
:1052900021B1028842F08002028004E002884FF6C9
:1052A0007F731A400280704721B1828842F0040265
:1052B000828004E082884FF6FB731A408280704738
:1052C00021B1828842F00802828004E082884FF691
:1052D000F7731A408280704721B1828842F0010240
:1052E000828004E082884FF6FE731A408280704705
:1052F0000A460021018B4FF6F773194011430183D1
:1053000070470A460021018B4FF2FF7319404FF698
:10531000FF7303EA02231943018370470A46002101
:10532000818B4FF6F77319401143818370470A460A
:105330000021818B4FF2FF7319404FF6FF7303EA90
:1053400002231943818370470A460021018B4FF6DF
:10535000FB7319401143018370470A460021018BFA
:105360004FF6FF3319404FF6FF7303EA0223194348
:10537000018370470A460021818B4FF6FB73194069
:105380001143818370470A460021818B4FF6FF331A
:1053900019404FF6FF7303EA0223194381837047D4
:1053A0000A460021018B4FF67F7319401143018398
:1053B00070470A460021018BC1F30E014FF6FF73BF
:1053C00003EA02231943018370470A460021818BB7
:1053D0004FF67F7319401143818370470A460021BD
:1053E000818BC1F30E014FF6FF7303EA02231943C9
:1053F000818370470A460021018C4FF6FD731940E6
:105400001143018470470A460021018C4FF6F7735F
:1054100019401143018470470A460021018C4FF660
:10542000DF7319404FF6FF7303EA02131943018437
:1054300070470A460021018C4FF67F7319404FF6E2
:10544000FF7303EA02131943018470470A460021DF
:10545000018C4FF6FF5319404FF6FF7303EA022306
:105460001943018470470A460021018C4FF2FF73F3
:1054700019404FF6FF7303EA022319430184704772
:105480000A460021018C4DF6FF7319404FF6FF7359
:1054900003EA023319430184704730B50023012425
:1054A0008C40A3B2048C9C430484048C02FA01F562
:1054B000ADB22C43048430BD30B5002304248C40AD
:1054C000A3B2048C9C430484048C02FA01F5ADB2AF
:1054D0002C43048430BD70B50346002000241846D8
:1054E000183001258D40ACB21D8CA5431D8409B137
:1054F000082909D100EB6100056825F070050560F9
:105500000568154305600EE00D1FC5F34E052844E0
:10551000056825F4E045056005684FF6FF7606EA64
:1055200002263543056070BD21B1028842F00202B7
:10553000028004E002884FF6FD731A400280704733
:1055400021B1028842F00402028004E002884FF692
:10555000FB731A400280704721B1828842F08002BA
:10556000828004E082884FF67F731A408280704701
:1055700002884FF6F7731A40028002880A430280BD
:10558000704782884FF68F731A40828082880A4360
:105590008280704702894FF6F8731A4002810289AF
:1055A0000A430281704702894FF67F731A400281D5
:1055B00002890A4302817047818470478185704760
:1055C000818670470187704781877047A0F8401037
:1055D000704702884FF6FF431A40028002880A4350
:1055E000028070470146888E70470146088F7047D9
:1055F0000146888F70470146B1F840007047014668
:10560000888C70470146088D704702460020138A37
:105610000B400BB1012000E000207047CA4302821A
:10562000704730B50246002000230024158A05EAA1
:105630000103958905EA010413B10CB1012000E0D2
:10564000002030BDCA4302827047000029B1504A91
:10565000128802434E4B1A8004E04D4A128882435E
:105660004B4B1A8070474A48001D008840F01000DC
:105670004749091D088070474548001D00884FF6BE
:10568000EF7108404249091D0880704700214048D9
:105690001C300188001F008841EA0040704700B5B7
:1056A0000246FFF7E0FF100C394918310880091D48
:1056B0000A80FFF7E1FF00BD00B50246FFF7D3FF08
:1056C000C2F30340324908310880091D0A80FFF700
:1056D000D3FF00BD00B50246FFF7C5FF100C2C49F3
:1056E00020310880091D0A80FFF7C6FF00BD002099
:1056F0002749103109880907080B25491431098801
:105700000843704700BF2248001D008800F02000B9
:105710000028F8D070471E48001D00884FF6F7712A
:1057200008401B49091D088000BF1948001D00885A
:1057300000F008000028F8D0704701460020144A05
:10574000121D12880A400AB1012000E000207047B3
:105750000F49091D098881430D4A121D11807047A8
:10576000014600200A4A121D12880A40D0B2084A97
:1057700012880A4012B108B1012000E000207047F1
:105780000349091D09888143014A121D1180704790
:105790000028004010B50120FEF71EF90020FEF79A
:1057A0001BF910BD2A49086070472949091F086084
:1057B0007047274984310860704701460020254A18
:1057C00010884FF67F4210400843224A10807047ED
:1057D000014600201F4A10884FF68072104008438F
:1057E0001C4A1080704708B500220092194A2C3AD2
:1057F0000092009A02440092009A116008BD08B518
:1058000001460020009013482C380090009808446E
:1058100000900098008808BD0D489C300068C0B218
:1058200070470C480830008840F0010009490831F1
:10583000088070470648A0300068C0B2704705482D
:105840000830008840F002000249083108807047A3
:1058500004860D422C6C004010B501210807FEF7AC
:10586000AEF800214FF08050FEF7A9F810BD2A498C
:105870000862704728490861704701460020274A9E
:10588000106820F0E0000843106070472249A03102
:105890000860704710B502460020204B186820F0C1
:1058A0000300104318601E4B1B6843F004031C4C9C
:1058B0002360012901D130BF00E020BF184B1B68D5
:1058C00023F00403164C236010BD1448006840F018
:1058D0000400124908600846006840F002000860B1
:1058E0000F48006840F004000D49086000BF00BF89
:1058F00030BF704701460020084A52680A400AB18A
:10590000012000E0002070470449096841EA800155
:10591000024A11607047000000000E420070004013
:1059200010ED00E00E49086070470D49486070476F
:105930000B49886070474AF6AA20094908607047F9
:105940004CF6CC4006490860704701460020044AE6
:10595000D2680A400AB1012000E000207047000030
:105960000030004010B50446BE48844208D10121F1
:105970008014FEF717F80021A014FEF713F816E0C4
:10598000B948844208D101210014FEF718F800211B
:105990002014FEF714F80AE0B448844207D101212C
:1059A000C013FEF70CF80021E013FEF708F810BD55
:1059B00010B50022028802F441520B884C88234320
:1059C0008C882343CC8823430C8923434C8923436D
:1059D0008C892343CC8923431A430280838B4FF263
:1059E000FF74234083830B8A038210BD2DE9F04F9F
:1059F00085B005460C464FF0000902274FF000081D
:105A00004FF0010B0026B246A88B4FF24001084030
:105A1000A88302202884B5F81C90A068022801D130
:105A200000BF38E0A08810B94FF0010B01E04FF043
:105A3000020B8D48854200D100E000BF6846FDF7AB
:105A40002AFFDDF800A0E088B0F5007F0AD14FEA18
:105A50001A2000EB80004000A168B0FBF1F0401D6F
:105A600086B20BE04FEA4B10BAFBF0F000EB80007F
:105A70004000A168B0FBF1F0401D86B20A20B6FBE1
:105A8000F0F606F00108A6EB0800C0F34F074FF64A
:105A9000FF7000EA0828022F01DBFF2F02DD02273A
:105AA0004FF00008E08840EA080038432884A088C6
:105AB000A1890843618808432188084340F40060B5
:105AC00040EA0909A5F81C9005B0BDE8F08F002157
:105AD000018041808180C180018141818181C181BA
